:1070000055C000006EC000006CC000006AC00000E7
:1070100068C0000066C0000064C0000062C00000DC
:1070200060C000005EC00000C6C400005AC000007E
:1070300058C0000056C0000054C0000052C00000FC
:1070400050C00000DEC000004CC000004AC000007C
:1070500048C0000046C0000044C0000042C000001C
:1070600040C000003EC000003CC000003AC000002C
:1070700038C0000036C0000034C0000032C000003C
:1070800030C000002EC000002CC000002AC000004C
:1070900028C0000026C0000024C0000022C000005C
:1070A00020C000001EC000001CC0000011241FBE34
:1070B000CFEFDAE0DEBFCDBF11E0A0E0B1E0EEED52
:1070C000FEE702C005900D92A639B107D9F721E07D
:1070D000A6E9B1E001C01D92AC3AB207E1F763D373
:1070E000FCC68ECF84E08093E9000DC08091E8005B
:1070F0008B778093E80003C08EB3882359F080918A
:10710000E80082FFF9CF8091E80085FFEFCF809102
:10711000F100089580E0089593E09093E900909144
:10712000E80095FF0AC08093F1005D9884E690E046
:1071300090939B0180939A0108959091E8009E7727
:107140009093E80003C09EB3992329F09091E80042
:1071500090FFF9CFE8CF0895F89410926F00109245
:107160008100109285001092840081E085BF15BED9
:1071700047985D9A289A0C94000008958091A00188
:107180009091A10101969093A1018093A001292FD4
:1071900097FF03C03EEF391B232F220F281710F44F
:1071A00047980895479A089584B7877F84BF88E1F8
:1071B0000FB6F89480936000109260000FBE90E8C4
:1071C00080E00FB6F89490936100809361000FBE49
:1071D00081E085BF82E085BF3F9A209A559AE1E61B
:1071E000F0E09083108247985D9A289A1092890067
:1071F0009AEF9093880080936F0083E080938100E2
:10720000C2C31F920F920FB60F9211242F938F9328
:107210009F93EF93FF9310928500109284008091CA
:107220009A0190919B01009741F0019790939B01E7
:1072300080939A01892B09F45D9A8091980190912D
:107240009901009741F001979093990180939801DB
:10725000892B09F4289AE0E0F0E085919491019659
:1072600049F0809196019091970101969093970132
:1072700080939601FF91EF919F918F912F910F90A5
:107280000FBE0F901F90189542E061EC82E00ED384
:1072900042E161E883E00AD342E160E884E006C3AA
:1072A0008091A401982F9F77913239F59091A50193
:1072B000903291F0913209F5813AF9F48091E80029
:1072C000877F8093E80067E070E083E091E024D45A
:1072D0008091E8008B770FC0813279F48091E800CB
:1072E000877F8093E80067E070E083E091E071D4ED
:1072F0008091E8008E778093E80008954F925F9226
:107300006F927F928F929F92AF92BF92CF92DF92B5
:10731000EF92FF920F931F93CF93DF9384E08093BC
:10732000E9008091E80082FF2DC2289884E690E071
:107330009093990180939801D5DE082F853481F4CC
:107340008CE49DE1909397018093960107B600FC31
:10735000FDCFF999FECF81E180935700E89503C0F6
:10736000843521F4BFDE8DE0D7DEE3C18C34D9F360
:10737000803509F4F8CF843721F484E4CDDE80E051
:10738000F3CF813611F489E5EFCF813481F4AADEA1
:10739000C82FA8DE90E0880F991F3C2F330F20E004
:1073A000822B932BAA2797FDA095BA2F96C18037E1
:1073B00011F483E5D9CF833549F4CCE8D1E0899144
:1073C000ABDE21E0C339D207D1F7B3C1863521F452
:1073D00081E3A2DE80E3C8CF833731F487E89CDE07
:1073E00085E99ADE8EE1C0CF8536B9F4E0E0F0E0C1
:1073F00083E095E080935700E89507B600FCFDCF49
:1074000090935700E89507B600FCFDCFE058FF4F7A
:10741000E11520E7F20771F7A6CF823719F4E1E012
:10742000F0E00EC0863419F4E0E0F0E009C08E34DC
:1074300019F4E3E0F0E004C0813539F4E2E0F0E073
:1074400089E08093570084918FCF823631F489E5AB
:1074500063DE80E061DE80E887CF823419F0873612
:1074600009F0D1C010929701109296013BDEC82E10
:1074700039DED82E37DE182F8554823010F08FE396
:1074800073CFDC2D80E0C82FCD2910926F00073616
:1074900009F041C081E180935700E895B12C01E0EB
:1074A00037C0C0909C01D0909D01E0909E01F0906B
:1074B0009F011634B9F4EB2DF0E0EC29FD298491FD
:1074C0002BDEBB2069F0E2E0CE0ED11CE11CF11CEA
:1074D000C0929C01D0929D01E0929E01F0929F018A
:1074E000B02615C0D701C601B695A7959795879583
:1074F000DED412DEF2E0CF0ED11CE11CF11CC092F2
:107500009C01D0929D01E0929E01F0929F012197F3
:10751000209739F674C080909C0190909D01A090B6
:107520009E01B0909F01163409F057C083E0F4012A
:1075300080935700E89507B600FCFDCF4EC0163487
:1075400039F5DD2009F140909C0150909D0160903B
:107550009E0170909F01C6DDF82EE12C97012C2929
:10756000F201090100935700E8951124F2E04F0E53
:10757000511C611C711C40929C0150929D016092B3
:107580009E0170929F0102C0ADDDC82ED02623C09F
:10759000A9DD682F80919C0190919D01A0919E0191
:1075A000B0919F01B695A7959795879588D44091FE
:1075B0009C0150919D0160919E0170919F014E5FD1
:1075C0005F4F6F4F7F4F40939C0150939D0160939D
:1075D0009E0170939F01219703C0C12CD12C01E023
:1075E000209709F0ACCF163441F485E0F401809384
:1075F0005700E89507B600FCFDCF8DE08DDD82E0F9
:1076000080936F0096C0833471F4C0919C01D09137
:107610009D0168DD90E021E0FE010C012093570000
:10762000E8951124A0CE833611F5C0909C01D0902E
:107630009D01E0909E01F0909F0154DDB701A601ED
:10764000416090E021E0FA010C0120935700E89599
:107650001124F2E0CF0ED11CE11CF11CC0929C0160
:10766000D0929D01E0929E01F0929F017CCE8D36DA
:1076700061F4E0919C01F0919D0185E080935700B9
:10768000E89507B600FCFDCF6ECE823551F4E0914F
:107690009C01F0919D01C591D4918D2F3DDD8C2FE2
:1076A00063CE843419F51EDD682F80919C01909182
:1076B0009D01A0919E01B0919F01B695A7959795C8
:1076C0008795FDD380919C0190919D01A0919E0191
:1076D000B0919F010296A11DB11D80939C019093D2
:1076E0009D01A0939E01B0939F013DCE8436F1F49D
:1076F000C0909C01D0909D01E0909E01F0909F0170
:10770000D701C601B695A79597958795D0D304DD87
:1077100022E0C20ED11CE11CF11CC0929C01D0924F
:107720009D01E0929E01F0929F0103C08B3109F010
:10773000A6CE83E08093E9009091E8008091E80074
:107740008E778093E80095FD11C08091E80080FD60
:1077500004C08EB38111F9CF15C08091E8008E77F7
:107760008093E80003C08EB3882361F08091E80025
:1077700080FFF9CF84E08093E9008091E8008B7767
:107780008093E800DF91CF911F910F91FF90EF90D0
:10779000DF90CF90BF90AF909F908F907F906F9031
:1077A0005F904F9008958091000890910108109289
:1077B00001081092000844B714BE28E10FB6F894EF
:1077C00020936000109260000FBE41FD1AC040FF80
:1077D00009C0E0E0F0E0259134912F3F3F4F11F0D8
:1077E000BBDC0FC043FF0DC02091000130910101AF
:1077F0008217930731F0E0E0F0E0859194910196D3
:1078000079F7D2DC789410929701109296010CC00F
:1078100075DD3CD3809196019091970181349F4111
:1078200010F010920201AADC809102018111F0CFC8
:107830008091E00081608093E0008EDC80E090E049
:107840000895292F30E033272230310539F02330D5
:10785000310549F02130310589F00BC02EE330E0CD
:107860008CE391E01EC0882371F0813089F0823072
:10787000A1F020E030E080E090E013C022E130E0B1
:107880008AE791E00EC024E030E088E391E009C08F
:107890002AE130E08CE191E004C020E130E08AE0B0
:1078A00091E0FA0191838083C90108958093E900F2
:1078B000EBEEF0E0808181608083EDEEF0E01082FD
:1078C0006093EC0040838091EE00881F8827881F1A
:1078D00008958091A40187FD05C08091E80080FF94
:1078E0000DC010C08091E80082FD04C08EB38111EC
:1078F000F9CF08958091E8008B7707C08EB381118E
:10790000ECCF08958091E8008E778093E800089589
:107910000F931F93CF93DF9341D048D0C8EDD0E0B1
:1079200088818F77888388818068888388818F7D2C
:10793000888319BC1EBA1092A20100EE10E0F80173
:1079400080818B7F808388818160888342E060E0D2
:1079500080E0ACDFE1EEF0E080818E7F8083E2EEBC
:10796000F0E0808181608083808188608083F8017D
:1079700080818E7F8083888180618883DF91CF9131
:107980001F910F910895E7EDF0E080818160808381
:107990008AE482BF81E08093A301BACFE8EDF0E0F2
:1079A00080818E7F80831092E20008951092DA0029
:1079B0001092E10008951F920F920FB60F921124BA
:1079C0002F933F934F935F936F937F938F939F93E7
:1079D000AF93BF93EF93FF938091DA0080FF1BC0BA
:1079E0008091D80080FF17C08091DA008E7F80934D
:1079F000DA008091D90080FF0BC080E189BD82E16F
:107A000089BD09B400FEFDCF81E08EBB3ED203C02C
:107A100019BC1EBA3AD28091E10080FF17C0809154
:107A2000E20080FF13C08091E2008E7F8093E2002D
:107A30008091E20080618093E2008091D8008062B2
:107A40008093D80019BC85E08EBB1FD28091E100E5
:107A500084FF2CC08091E20084FF28C080E189BDB2
:107A600082E189BD09B400FEFDCF8091D8008F7DF1
:107A70008093D8008091E1008F7E8093E100809117
:107A8000E2008F7E8093E2008091E200816080932B
:107A9000E2008091A201811104C08091E30087FF80
:107AA00002C084E001C081E08EBBEFD18091E10093
:107AB00083FF21C08091E20083FF1DC08091E1001F
:107AC000877F8093E10082E08EBB1092A2018091BB
:107AD000E1008E7F8093E1008091E2008E7F8093B1
:107AE000E2008091E20080618093E20042E060E089
:107AF00080E0DCDECAD1FF91EF91BF91AF919F9101
:107B00008F917F916F915F914F913F912F910F9046
:107B10000FBE0F901F9018954091AA015091AB0194
:107B20004617570748F06115710539F44091E80090
:107B30004E774093E80001C0BA01FC0140E032C03A
:107B40008EB3882309F441C0853009F440C0809188
:107B5000E80083FD38C08091E80082FD2EC080914E
:107B6000E80080FF1FC09091F3008091F200392F50
:107B700020E0A901482BCA0106C041914093F100C1
:107B80006150710901966115710519F088309105F0
:107B9000A0F341E0089709F040E08091E8008E777B
:107BA0008093E8006115710559F64111C9CF05C0F0
:107BB0008EB3882351F0853051F08091E80082FF28
:107BC000F7CF80E0089581E0089582E0089583E092
:107BD00008956115710529F44091E8004B774093B1
:107BE000E800AC0127C08EB38823B1F1853071F174
:107BF0008091E80083FD2CC08091E80082FFF3CFE4
:107C0000FA0107C08091F1008193AF0161507109C1
:107C100061F0AF019091F3008091F200392F20E0E4
:107C2000D901A82BCD01892B69F78091E8008B77CA
:107C30008093E80061157105B1F68091E80080FD40
:107C400009C08EB3882341F08530B9F783E00895E9
:107C500081E0089580E0089582E00895EF92FF9218
:107C60000F931F93CF93DF9300D0CDB7DEB7E4EA35
:107C7000F1E08091F100819381E0EC3AF807C9F7D7
:107C80000FDB8091E80083FFE9C08091A40190910F
:107C9000A501953009F46FC038F4913071F170F09E
:107CA000933009F0DBC029C0983009F4AAC099309C
:107CB00009F4B9C0963009F0D1C083C0803809F406
:107CC000CDC0823809F0CAC08091A8019091A90165
:107CD000877099278093E9009091EB001092E9005A
:107CE0008091E800877F8093E80095FB882780F9E2
:107CF0008093F1001092F1008FC0882319F0823038
:107D000009F0ACC08F71823009F0A8C08091A60143
:107D100081112BC08091A8019091A90187709927AA
:107D2000009709F49BC08093E9002091EB0020FFAD
:107D30001CC02091A501233021F48091EB008062CA
:107D400012C09091EB0090619093EB0021E030E045
:107D500001C0220F8A95EAF72093EA001092EA0008
:107D60008091EB0088608093EB001092E900809195
:107D7000E800877F54C0811171C00091A601109165
:107D8000A7010F771127E02EFFB6F8948091E80045
:107D9000877F8093E8009DDD8091E80080FFFCCF25
:107DA0008091E3008078802B8093E300806880934B
:107DB000E300EE2011F083E001C082E08EBBFFBE45
:107DC0004DC08058823008F049C0AE014F5F5F4F10
:107DD0006091A8018091A6019091A70132DD0097E2
:107DE00009F43CC02091E800277F2093E800BC0103
:107DF00089819A8191DE8091E8008B778093E800F9
:107E00002DC0803859F58091E800877F8093E80085
:107E10008091A2018093F1008091E8008E77809399
:107E2000E80057DD1BC0811119C09091A601923066
:107E3000A8F48091E800877F8093E8009093A201E6
:107E400048DD8091A201811104C08091E30087FF89
:107E500002C084E001C081E08EBB16DA8091E800A8
:107E600083FF0AC08091EB0080628093EB008091D9
:107E7000E800877F8093E8000F900F90DF91CF910B
:107E80001F910F91FF90EF9008950895CF938EB3B7
:107E9000882359F0C091E900C7701092E9008091E1
:107EA000E80083FDDBDEC093E900CF910895F999E6
:107EB000FECF92BD81BDF89A992780B50895262FEF
:107EC000F999FECF1FBA92BD81BD20BD0FB6F894BF
:0E7ED000FA9AF99A0FBE01960895F894FFCF22
:107EDE0077770100000000000008100355006E00C7
:107EEE006B006E006F0077006E0000001A035500E5
:107EFE0053004200200049004F00200062006F0036
:107F0E0061007200640000000403090409023E00CF
:107F1E000201008032090400000102020100052462
:107F2E000010010424020405240600010705820343
:107F3E000800FF09040100020A0000000705040200
:107F4E00100001070583021000011201100102004A
:107F5E000008501D9E60010002010001434154457E
:067F6E0052494E410000E3
:100000000C9479010C94A1010C94A1010C94A10110
:100010000C94A1010C94A1010C94A1010C94A101D8
:100020000C94A1010C94A1010C94EE200C94752168
:100030000C94A1010C94A1010C94A1010C94A101B8
:100040000C94A1010C94A1010C94A1010C94A101A8
:100050000C94A1010C94A1010C94A1010C944D1AD3
:100060000C94A1010C94A1010C94A1010C94A10188
:100070000C94A1010C94A1010C94A1010C94A10178
:100080000C94A1010C94A1010C94A1010C94A10168
:100090000C94C6030C94A1010C94A1010C94A10131
:1000A0000C94A1010C94A1010C94A101000000008A
:1000B000240027002A002D00300000000000250049
:1000C00028002B002E003100000000002300260035
:1000D00029002C002F000404040404030405020278
:1000E00002020403020202020606060606060404D1
:1000F00002020204040802011040804010204080E7
:10010000408008020401804020100201108010206D
:1001100040400000000200080E0000030401000B34
:1001200000000000000000000000000000000000CF
:10013000070605040100080A0B0C0D09080B000254
:10014000020201000904000001020200000524006F
:100150001001052401010104240206052406000102
:100160000705810310004009040100020A00000095
:100170000705020240000007058302400000040357
:100180000904220343006C0079006400650020002C
:10019000200020002000200020002000200020005F
:1001A00020002000180346006100620075006C000A
:1001B0006500200020002000200020001201000225
:1001C00000000040501D9F6000010102000112016B
:1001D000000202000040501D9F600001010200016A
:1001E00000C18081C105010902A1010901A10085A9
:1001F00001050919012903150025019503750181E0
:100200000295017505810305010930093109381589
:1002100081257F750895038106C0C005010906A1E7
:10022000018502050719E029E715002501750195EB
:10023000088102950175088103950675081500254A
:10024000650507190029658100C009040200010342
:100250000000000921010100012265000705840357
:1002600040000100000000000000002A2B280000D0
:10027000000000000000000000000000000000007E
:100280000000002C9EB4A0A1A2A434A6A7A5AE365F
:100290002D3738271E1F20212223242526B333B6CD
:1002A0002EB7B89F8485868788898A8B8C8D8E8FA0
:1002B000909192939495969798999A9B9C9D2F31A3
:1002C00030A3AD350405060708090A0B0C0D0E0F07
:1002D000101112131415161718191A1B1C1DAFB183
:1002E000B0B500006202A112CE12D4176A1D2A20F6
:1002F000382311241FBECFEFDAE0DEBFCDBF14E0FC
:10030000A0E0B1E0EEEEFDE402C005900D92A43B4A
:10031000B107D9F717E0A4EBB4E001C01D92AE3AE3
:10032000B107E1F712E0C2EFD2E004C02297FE016C
:100330000E94BA26C43ED107C9F70E94351E0C940C
:10034000F5260C940000A0E0B0E0E9EAF1E00C949E
:10035000C626EC01A880B980CA80DB80A114B10454
:10036000C104D10441F484E2A82E89EDB82E8BE5B6
:10037000C82E87E0D82EC601B5012DE133EF41E04C
:1003800050E00E949D2627EA31E440E050E00E94C0
:100390005C267B018C01C601B5012DE133EF41E004
:1003A00050E00E949D26CA01B9012CEE34EF4FEFB8
:1003B0005FEF0E945C266E0D7F1D801F911F97FFCF
:1003C00004C06150704080409048688379838A837C
:1003D0009B839B01AC015F77B901CA01CDB7DEB742
:1003E000EAE00C94E2260E94A301089585E594E0DA
:1003F0000E94A3010895609355047093560480935E
:10040000570490935804089585E795E00E940410DE
:1004100085E795E00E94910C85E795E00E944F09E1
:100420008091B305882321F085E795E00E947C0543
:1004300008958AEF94E00E9402038AE897E060E85A
:1004400075E20E941F1D85E795E00E94F91008954E
:1004500081E08093F9046093D6041092F70410921F
:10046000F80408952091D50430E08091D404281B2D
:100470003109C90108954091D4048091D5044817E9
:1004800018F02FEF3FEF0AC0E42FF0E0EC54FB4FE1
:100490008081282F30E04F5F4093D404C901089534
:1004A000E091D4048091D504E81718F0EFEFFFEF46
:1004B00006C0F0E0EC54FB4F8081E82FF0E0CF0164
:1004C000089508951092FD041092FC0488EE93E0C4
:1004D000A0E0B0E08093FE049093FF04A093000599
:1004E000B09301058AE694E09093FB048093FA04AC
:1004F0000895CF92DF92EF92FF920F931F93CF93C5
:10050000DF937C016B018A018091F9048823A1F0BB
:10051000C0E0D0E00DC0D701ED91FC91D601AC0F49
:10052000BD1F0190F081E02DC7016C9109952196C6
:10053000C017D10780F304C0CB01642F0E94AB0326
:10054000C801DF91CF911F910F91FF90EF90DF9045
:10055000CF900895DF93CF930F92CDB7DEB7FC0114
:1005600069838091F9048823C9F08091F80480326E
:1005700038F081E090E09383828320E030E015C082
:100580008091F704E82FF0E0E952FB4F99819083C6
:100590008F5F8093F7048093F80405C0CE01019625
:1005A00061E00E94AB0321E030E0C9010F90CF91E0
:1005B000DF9108950F93062F8091D60467ED74E0C4
:1005C0004091F80421E00E9456031092F704109223
:1005D000F8041092F9040F91089561E00E94DA0284
:1005E0000895413208F040E2862F64EB74E00E94E7
:1005F0000D031092D4048093D504089521E00E9445
:10060000F10208951092D4041092D5041092F704C8
:100610001092F8040E9457050895382F413210F0C7
:1006200040E042C0809106058823E1F791E0909375
:100630000605209308058FEF8093730510922E0511
:10064000415040932F054F5F909307058091070518
:10065000330F832B8093070580910905813041F486
:1006600010920905809107058093BB0085EC01C0BD
:1006700085EE8093BC00809106058130E1F3809186
:100680002E05841710F440912E0520E030E00AC0BA
:10069000FB01E20FF31FD901A25FBA4F8C91808357
:1006A0002F5F3F4F2417A0F3842F08950F931F93BC
:1006B000582F122F413210F081E04AC08091060578
:1006C0008823E1F782E080930605009308058FEF09
:1006D0008093730510922E0540932F05AEE0B5E090
:1006E000FB0102C081918D938E2F861B8417D0F35E
:1006F0001092070580910705550F852B80930705FC
:1007000080910905813041F4109209058091070517
:100710008093BB0085EC01C085EE8093BC00112363
:1007200021F0809106058230E1F3809173058F3FBF
:1007300011F480E00DC080917305803211F482E0E5
:1007400007C080917305803311F084E001C083E01D
:100750001F910F910895482F613210F081E00895A4
:1007600080910605843011F082E008956093510570
:10077000A0E3B5E0842F9C01F90102C081918D9323
:100780008E2F841B8617D0F380E008951F920F925E
:100790000FB60F9211242F933F934F935F936F9354
:1007A0007F938F939F93AF93BF93EF93FF9380912A
:1007B000B90090E0887F90708036910509F4F2C00E
:1007C00081369105CCF58832910509F47BC08932D8
:1007D0009105B4F48031910509F46FC08131910520
:1007E0003CF4009709F447C1089709F04FC165C070
:1007F0008831910509F466C0809709F047C182C02D
:100800008034910509F4A4C08134910544F4803307
:10081000910509F482C0C89709F038C189C08035B4
:10082000910509F489C08835910509F496C088348A
:10083000910509F02BC1AEC08839910509F413C1A7
:1008400089399105ECF48837910509F4ABC08937F3
:1008500091054CF48836910509F4A4C080379105C0
:1008600009F014C19FC08838910509F4FCC0803993
:10087000910509F49DC08038910509F007C198C021
:10088000803B910509F4C6C0813B91054CF4803A48
:10089000910509F49FC0883A910509F0F7C0BAC0E4
:1008A000803C910509F4E3C0883C910509F4DFC060
:1008B000883B910509F0EAC0C2C08091070580938A
:1008C000BB00CFC090912E0580912F05981768F43A
:1008D00090912E05E92FF0E0E25FFA4F808180933E
:1008E000BB009F5F90932E05BCC0809108058823B4
:1008F00009F44BC085ED8093BC008091BC0084FD61
:10090000FCCFC2C080E28093730585ED8093BC006C
:100910008091BC0084FDFCCFB7C080E38093730559
:1009200085ED8093BC008091BC0084FDFCCFACC001
:1009300088E3809373059BC080912E059091BB0046
:10094000E82FF0E0E25FFA4F90838F5F80932E05EF
:1009500090912E0580912F0582C080912E05909157
:10096000BB00E82FF0E0E25FFA4F90838F5F809347
:100970002E0580910805882341F085ED8093BC0009
:100980008091BC0084FDFCCF7FC081E0809309058D
:1009900084EA6EC085ED8093BC008091BC0084FD2C
:1009A000FCCF72C083E0809306051092720559C097
:1009B00080917205803208F056C080917205909146
:1009C000BB00E82FF0E0EE5AFA4F90838F5F8093E0
:1009D000720547C080917205803230F4E091720553
:1009E000F0E0EE5AFA4F108285ED8093BC008091C2
:1009F000BC0084FDFCCF1092060560917205E09169
:100A00000C05F0910D0582E595E070E009951092D6
:100A100072052DC084E08093060510925005109257
:100A20005105E0910A05F0910B050995809151055A
:100A3000882329F481E0809351051092300590912C
:100A40005005E92FF0E0E05DFA4F80818093BB0014
:100A50009F5F909350059091500580915105981794
:100A600010F485EC01C085E88093BC000FC085ECD4
:100A70008093BC0009C01092730585ED8093BC0083
:100A80008091BC0084FDFCCF10920605FF91EF9190
:100A9000BF91AF919F918F917F916F915F914F9196
:100AA0003F912F910F900FBE0F901F9018951092AD
:100AB000060581E0809308051092090582E061E057
:100AC0000E94BC1C83E061E00E94BC1CE9EBF0E0EA
:100AD00080818E7F808380818D7F808388E4809376
:100AE000B80085E48093BC000895F999FECF72BDEB
:100AF00061BDF89A80B50895CF93DF93EC01A8818A
:100B0000B981109751F0ED91FC9111970280F3811A
:100B1000E02DCD016B814A810995AF81B885109791
:100B200051F0ED91FC9111970280F381E02DCD0100
:100B30006A8549850995DF91CF9108952F923F925B
:100B40004F925F926F927F928F929F92AF92BF92DD
:100B5000CF92DF92EF92FF920F931F93CF93DF9389
:100B6000EC01FB0119012A01A080AD8E61816E8F1D
:100B7000E280EF8E70E0882777FD8095982F0E94A5
:100B800045252D893E894F89588D0E94412420E0BA
:100B900030E04FE753E40E94AA24A20191010E9491
:100BA000F9253B014C01FF240027F7FC0095102F8D
:100BB000C801B7010E944525298D3A8D4B8D5C8D6A
:100BC0000E94412420E030E04FE753E40E94AA2431
:100BD000A20191010E94F9257B018C01BB24CC2448
:100BE000B7FCC094DC2CC601B5010E9445252989BB
:100BF0003A894B895C890E94412420E030E04FE72C
:100C000053E40E94AA24A20191010E94F9255B01EC
:100C10006C016BA37CA38DA39EA3C301D4018FA3FE
:100C200098A7A9A7BAA7C701D8018BA79CA7ADA76A
:100C3000BEA7C601B50120E030E040E050E00E94D0
:100C4000A62488233CF4D601C501B0588BA39CA3ED
:100C5000ADA3BEA3EFA0F8A409A51AA5C801B701CA
:100C600020E030E040E050E00E94A62488233CF4DD
:100C7000D801C701B0588FA398A7A9A7BAA7EBA41A
:100C8000FCA40DA51EA5C801B70120E030E040E09E
:100C900050E00E94A62488233CF4D801C701B05834
:100CA0008BA79CA7ADA7BEA7DF91CF911F910F91F6
:100CB000FF90EF90DF90CF90BF90AF909F908F907C
:100CC0007F906F905F904F903F902F900895EF929C
:100CD000FF920F931F93CF93DF93EC0179018A0169
:100CE00070E080E090E00E9443256CAB7DAB8EAB62
:100CF0009FAB28A939A94AA95BA90E94412420E0F9
:100D000030E04FE753E40E94AA24A80197010E9413
:100D1000F9257B018C0168AF79AF8AAF9BAF20E0EA
:100D200030E040E050E00E94A62488233CF4D80143
:100D3000C701B05888AF99AFAAAFBBAFDF91CF91D1
:100D40001F910F91FF90EF900895CF92DF92EF9255
:100D5000FF920F931F93DF93CF9300D00F92CDB7E5
:100D6000DEB78C01FC01C4A8D5A8E6A8F7A8C70186
:100D7000B60120E030E04FE753E40E94A62487FD4F
:100D800043C0F801858D882331F4868D882319F4BA
:100D9000878D8823C9F1C80160E02DEC3CEC4CEC58
:100DA0005DE31BC0992339F4F801868D882319F47B
:100DB000878D882361F019821A821B82C801BE01C7
:100DC0006F5F7F4F20E030E040E05FE31AC0C80172
:100DD0006FEF2AE939E949E95EE30E94670621C01D
:100DE0009923F9F4F801868D8823D9F4878D882317
:100DF000C1F4C801005E1F4FB8012DEC3CEC4CEC77
:100E00005DE30E949E050DC0C701B60120E030E001
:100E10004FE753E40E94A624F801958D87FDC2CFC9
:100E2000DFCF0F900F900F90CF91DF911F910F9117
:100E3000FF90EF90DF90CF9008950F931F93CF9383
:100E4000DF93EC01CF59DF4F8881C156D04068173E
:100E500068F58E010E591F4FD8016C930E94951AA8
:100E6000CD59DF4F688379838A839B83C356D040F3
:100E7000FE01E959FF4FD8018C9190E0880F991F2E
:100E8000880F991FC80FD91FCE56DF4F88819981CF
:100E9000AA81BB812081318142815381820F931FBE
:100EA000A41FB51F80839183A283B383DF91CF9169
:100EB0001F910F9108958F929F92AF92BF92CF9200
:100EC000DF92EF92FF920F931F93CF93DF93EC018A
:100ED0004801C15ADF4F699379934883C156D04086
:100EE000DE01A259BF4F822F932FFC0120E030E09A
:100EF00050E00EC080818C93818111968C93119764
:100F0000828112968C9312972F5F3F4F13963396E0
:100F1000241735077CF38E010E591F4FD8011C9200
:100F20000E94951ACD59DF4F688379838A839B830A
:100F3000C356D040D801EC91F0E0EE0FFF1FEE0F4A
:100F4000FF1FEC0FFD1FEE56FF4F208131814281C4
:100F50005381260F371F481F591FC959DF4F288358
:100F600039834A835B83C756D0406D897E898F89D8
:100F7000988D0E9417255B016C01698D7A8D8B8D90
:100F80009C8D0E9417257B018C0169897A898B8948
:100F90009C890E941725C559DF4F68832196A99225
:100FA000E882CB5ADF4F99828882DF91CF911F91DF
:100FB0000F91FF90EF90DF90CF90BF90AF909F90F8
:100FC0008F9008959F92AF92BF92CF92DF92EF924F
:100FD000FF920F931F93CF93DF936C01942E5901CF
:100FE000EC01CE56DF4F20E030E050E0440F551FBB
:100FF000440F551F0DC0F801E20FF31F808191814E
:10100000A281B38189939993A993B9932C5F3F4FA0
:101010002417350781F7C601492D950187010E94E4
:101020005B07DF91CF911F910F91FF90EF90DF90C1
:10103000CF90BF90AF909F9008959F92AF92BF9234
:10104000CF92DF92EF92FF920F931F93CF93DF9394
:101050006C01942E5901EC01CE56DF4F20E030E0B8
:1010600050E0440F551F0DC0F801E20FF31F8081BF
:101070009181A0E0B0E089939993A993B9932E5FF1
:101080003F4F2417350781F7C601492D9501870188
:101090000E945B07DF91CF911F910F91FF90EF901E
:1010A000DF90CF90BF90AF909F9008959F92AF92A6
:1010B000BF92CF92DF92EF92FF920F931F93CF9345
:1010C000DF936C01942E5901EC01CE56DF4F20E0E6
:1010D00030E050E00DC0F801E20FF31F808190E096
:1010E000A0E0B0E089939993A993B9932F5F3F4F04
:1010F0002417350784F3C601492D950187010E9405
:101100005B07DF91CF911F910F91FF90EF90DF90E0
:10111000CF90BF90AF909F9008955F926F927F9213
:101120008F929F92AF92BF92CF92DF92EF92FF92F7
:101130000F931F93DF93CF93CDB7DEB76C017B0185
:10114000722EADB6BEB66DB65EB6440F4F5F4D3073
:1011500008F05EC0642F70E0CB01880F991F860FE6
:10116000971F2DB73EB7281B390B0FB6F8943EBF1B
:101170000FBE2DBF8DB79EB70196582FA92F982E61
:10118000892EFC0180E090E09B012F5F3F4F04C05F
:101190001082118212823396019682179307C1F74B
:1011A0008DB79EB7861B970B0FB6F8949EBF0FBEE8
:1011B0008DBF0DB71EB70F5F1F4F852F9A2F9C0154
:1011C000D90120E030E014C020FF0BC0F70180817E
:1011D0008C93818111968C931197828112968C93B6
:1011E0001297F801E20FF31F70822F5F3F4F1396A3
:1011F000261737074CF3C60161E070E0292D382D22
:10120000A2E0EA2EF12C0E945608862D952D02C0F0
:101210008DB79EB70FB6F8949EBF0FBE8DBF0FB6A9
:10122000F894BEBE0FBEADBECF91DF911F910F915E
:10123000FF90EF90DF90CF90BF90AF909F908F90F6
:101240007F906F905F9008950F931F938C01FC0126
:1012500060A971A982A993A90E9412259B01AC01E2
:10126000F80187A5B9010E948A1B1F910F9108956B
:101270000F931F938C0170E080E090E00E94432563
:10128000F80164AB75AB86AB97AB60AB71AB82AB6F
:1012900093ABC8010E9424091F910F9108952F92CA
:1012A0003F924F925F926F927F928F929F92AF92F6
:1012B000BF92CF92DF92EF92FF920F931F93CF9343
:1012C000DF93EC01ECA8FDA80EA91FA928A839A856
:1012D0004AA85BA8C801B701A20191010E94A624F7
:1012E000882309F441C0C801B701A20191010E94FD
:1012F00041247B018C0120E030E040E050E00E947E
:10130000A62487FD02C061E001C06FEF772767FD6B
:101310007095872F972F0E9445253B014C01A8AC63
:10132000B9ACCAACDBACC801B701A40193010E94FF
:10133000F925A60195010E94A62487FD08C0C601D3
:10134000B501A40193010E94F9257B018C01C20122
:10135000B101A80197010E94422468AB79AB8AAB26
:101360009BABCE010E942409DF91CF911F910F9179
:10137000FF90EF90DF90CF90BF90AF909F908F90B5
:101380007F906F905F904F903F902F9008950F93B4
:101390001F938C01FC01618972898389948922EEF3
:1013A00031EE41E65FE30E94F9250E9417259B017B
:1013B000AC01F8018685622F70E00E948A1BF8015B
:1013C000658976898789908D22EE31EE41E65FE36B
:1013D0000E94F9250E9417259B01AC01F801878521
:1013E000622F70E00E948A1BF801618D728D838DDF
:1013F000948D22EE31EE41E65FE30E94F9250E94D2
:1014000017259B01AC01F8018089622F70E00E94D2
:101410008A1B1F910F9108958F929F92AF92BF9256
:10142000CF92DF92EF92FF920F931F934C01FB013B
:101430006081DC015D966C935D97E1805E96EC9235
:101440005E97A2805F96AC9270E080E090E00E9490
:101450004325F401618B728B838B948BFF2400E016
:1014600010E0C801B7010E944325D40155966D9341
:101470007D938D939C935897BB24CC24DD24C60187
:10148000B5010E944325F401618F728F838F948F81
:10149000C4010E94C7091F910F91FF90EF90DF9048
:1014A000CF90BF90AF909F908F900895AF92BF92D2
:1014B000CF92DF92EF92FF920F931F93CF93DF9320
:1014C000EC01FC01EE59FF4F80818F5F8083CF5983
:1014D000DF4F2881C156D040821700F1CE53DF4F35
:1014E00088819981C25CD040892B11F4108216C08A
:1014F000C15ADF4F19821882CF55D040822F90E019
:101500000197BC01660F771F680F791F62597F4FE3
:101510006C0F7D1FCE010E940C0A46C0CD59DF4FD3
:10152000488359836A837B83C356D040BE0169597F
:101530007F4FCE59DF4FE881C256D040F0E0EE0F2A
:10154000FF1FEE0FFF1FEC0FFD1FEE56FF4F8081B8
:101550009181A281B381FB0120813181428153813C
:10156000820F931FA41FB51F80839183A283B3832F
:101570006D897E898F89988D0E9417255B016C018A
:10158000698D7A8D8B8D9C8D0E9417257B018C0136
:1015900069897A898B899C890E941725C559DF4FF3
:1015A00068832196A992E882DF91CF911F910F91D4
:1015B000FF90EF90DF90CF90BF90AF900895FC0127
:1015C000E959FF4F4083518362837383E756F040AC
:1015D000CF010E94560A08958F929F92AF92BF92B8
:1015E000CF92DF92EF92FF920F931F93CF93DF93EF
:1015F0005C017A018B0122E9C22ED12CC80ED91EC2
:10160000C0E0D0E091E6892E912C8A0C9B1C14C07E
:10161000F6016081718182819381A80197010E9406
:101620007B26F60121933193419351936F01EE0C88
:10163000FF1C001F111F2196F401808190E0C81744
:10164000D90734F30E94951AAB01BC01C5010E9471
:10165000DF0ADF91CF911F910F91FF90EF90DF9004
:10166000CF90BF90AF909F908F9008952F923F9210
:101670004F925F926F927F928F929F92AF92BF92A2
:10168000CF92DF92EF92FF920F931F93DF93CF934E
:1016900000D00F92CDB7DEB73C010E94951A7B01B6
:1016A0008C0127E630E0620E731EF3018081918188
:1016B000A281B38129E93FEF620E731E8E159F054B
:1016C000A007B10798F4C301B801A7010E94560A08
:1016D0008FE590E0680E791EF3018081918121EA07
:1016E0003FEF620E731E892B09F4D8C083E690E0A9
:1016F000680E791EF30121903190419051903F0185
:10170000608171818281938129E93FEF620E731EAE
:1017100062197309840995090E9443255B016C01D4
:1017200020E030E040E050E00E94A624882359F4F5
:101730000F2EF0E02F2EF0E03F2EF0E84F2EFFE3CB
:101740005F2EF02D0EC0E218F30804091509C80138
:10175000B7010E944325A60195010E94AA241B01FE
:101760002C0182E690E0680E791EF301008110E002
:1017700029E030E0620E731EF301E08025E93FEFBF
:10178000620E731EFF24B701882777FD8095982F7E
:101790000E9445254B015C016801CC0CDD1CC00E8C
:1017A000D11EC60CD71C8EE690E0C80ED91EF601DD
:1017B00061916F0170E06E197F09882777FD809530
:1017C000982F0E9445259B01AC01C201B1010E94E6
:1017D000F9259B01AC01C501B4010E9442240E947D
:1017E000172569832CE630E0620E731EF301019128
:1017F0003F0110E0B801882777FD8095982F0E945F
:1018000045254B015C01F60161916F0170E0601BA1
:10181000710B882777FD8095982F0E9445259B01A5
:10182000AC01C201B1010E94F9259B01AC01C501C7
:10183000B4010E9442240E9417256A83F3010081AB
:1018400023E93FEF620E731E10E0B801882777FD91
:101850008095982F0E9445254B015C01F60160811F
:1018600070E0601B710B882777FD8095982F0E9490
:1018700045259B01AC01C201B1010E94F9259B01E4
:10188000AC01C501B4010E9442240E9417256B835C
:10189000C301BE016F5F7F4F0E940C0A0F900F9033
:1018A0000F90CF91DF911F910F91FF90EF90DF90FC
:1018B000CF90BF90AF909F908F907F906F905F90F0
:1018C0004F903F902F9008950F931F93DF93CF93E6
:1018D00000D00F92CDB7DEB79C018C01015A1F4F8B
:1018E000F80180819181029741F4C90144E650E0FA
:1018F00060E070E00E94EC0A0CC019821A821B8220
:10190000C901BE016F5F7F4F0E940C0AF80111826E
:1019100010820F900F900F90CF91DF911F910F9138
:1019200008952F923F924F925F926F927F928F9283
:101930009F92AF92BF92CF92DF92EF92FF920F935E
:101940001F93CF93DF93EC01C15ADF4F88819981B8
:10195000CF55D040892B19F0CE010E94360B2BA019
:101960003CA04DA05EA06D8D70E0882777FD80952E
:10197000982F0E9445257B018C0169887A888B8885
:101980009C88A40193010E94A6248823D1F1C80158
:10199000B701A40193010E9441247B018C0120E046
:1019A00030E040E050E00E94A62487FD02C061E0E4
:1019B00001C06FEF772767FD7095872F972F0E94E3
:1019C00045255B016C01C801B701A60195010E9484
:1019D000F925A20191010E94A62487FD08C0C20139
:1019E000B101A60195010E94F9257B018C01C4017A
:1019F000B301A80197010E944224698B7A8B8B8BDB
:101A00009C8B2FA038A449A45AA46E8D70E088271F
:101A100077FD8095982F0E9445257B018C016D886C
:101A20007E888F88988CA40193010E94A624882325
:101A3000D1F1C801B701A40193010E9441247B01A7
:101A40008C0120E030E040E050E00E94A62487FDB9
:101A500002C061E001C06FEF772767FD7095872FA7
:101A6000972F0E9445255B016C01C801B701A601B3
:101A700095010E94F925A20191010E94A62487FDEB
:101A800008C0C201B101A60195010E94F9257B01A0
:101A90008C01C401B301A80197010E9442246D8BFF
:101AA0007E8B8F8B988F2BA43CA44DA45EA46F8D4E
:101AB00070E0882777FD8095982F0E9445257B014F
:101AC0008C01698C7A8C8B8C9C8CA40193010E9474
:101AD000A6248823D1F1C801B701A40193010E9473
:101AE00041247B018C0120E030E040E050E00E9486
:101AF000A62487FD02C061E001C06FEF772767FD74
:101B00007095872F972F0E9445255B016C01C801B6
:101B1000B701A60195010E94F925A20191010E9439
:101B2000A62487FD08C0C201B101A60195010E944B
:101B3000F9257B018C01C401B301A80197010E9422
:101B40004224698F7A8F8B8F9C8FCE010E94C709A8
:101B5000DF91CF911F910F91FF90EF90DF90CF9089
:101B6000BF90AF909F908F907F906F905F904F90BD
:101B70003F902F9008958F929F92AF92BF92CF92F5
:101B8000DF92EF92FF920F931F93DF93CF9300D0DA
:101B90000F92CDB7DEB78C015B01FC0187AD8823C6
:101BA00009F4B2C00E94951AEBE58E2E912C800E9E
:101BB000911EF401208131814281538162177307A4
:101BC0008407950708F4A0C0B0C0025B1F4FF8015E
:101BD000808191810E54104062E5E62EF12CE00EDA
:101BE000F11EA816B90608F449C00E94951AF7011B
:101BF00060837183828393830E94951A0A5A1F4FD0
:101C0000F8012081318142815381065510402854CA
:101C1000344F4F4F5F4F261737074807590708F0D3
:101C200073C0F60110820E94951A64527A4F8F4F4A
:101C30009F4FF40160837183828393830B5B1F4FFB
:101C4000F8016083718382839383055410408FEF82
:101C500089831A821B82C801BE016F5F7F4F43E0F8
:101C600028EC0E948D08C8016FEF0E9438098AE8AD
:101C700097E060E071E00E94641F46C00E94951AE0
:101C8000F701208131814281538128533F4F4F4FCB
:101C90005F4F33C0025B1F4FF801808191810E546A
:101CA000104052E5E52EF12CE00EF11EA816B90603
:101CB000C8F02F5FF60120830E94951A9B01AC01AA
:101CC000F7016083718382839383F601808188307A
:101CD000D9F40A5A1F4FF80120833183428353837A
:101CE00081E013C00E94951AF70120813181428161
:101CF00053812C503E4F4F4F5F4F261737074807F1
:101D0000590710F4F601108280E00F900F900F90A9
:101D1000CF91DF911F910F91FF90EF90DF90CF90C7
:101D2000BF90AF909F908F9008954AE5C42ED12C1C
:101D3000C00ED11EF6012081283009F0ABCF45CF6F
:101D4000CF92DF92EF92FF920F931F93DF93CF9387
:101D500000D00F92CDB7DEB78C016B010E94951AAF
:101D60000B5B1F4FF8012081318142815381055463
:101D70001040621773078407950708F439C1F8010A
:101D800086AD882309F040C00E94951A0F5B1F4F53
:101D9000F80120813181428153810154104026177E
:101DA00037074807590780F5F801E05CFF4F80814D
:101DB00091E089278083882311F46FEF01C060E0F0
:101DC000C8010E9438090F5B1F4FF8012081318143
:101DD0004281538182918F0100541040882319F46D
:101DE00088EB9BE002C084E690E00F5B1F4FA0E011
:101DF000B0E0820F931FA41FB51FF8018083918369
:101E0000A283B38301541040065A1F4FF80180810A
:101E10000A551040882309F0EBC0005B1F4FF80102
:101E200080819181005510408C159D0528F4960104
:101E3000281B390BC90102C08C199D09A0E0B0E034
:101E4000F801E75BFF4F9801265B3F4F8897A1059C
:101E5000B1051CF580818F5F8083F901408151813C
:101E6000C6016C2D892F4C155D0518F4CA01642F2D
:101E7000892FF90160838183F801E45BFF4F2081A2
:101E80003181C6014C2D892FC216D30618F4C90121
:101E9000422F892F4083818314C01082045B1F4F1F
:101EA000F801D182C0820C541040F901D182C08265
:101EB0008091390690913A06019690933A06809364
:101EC0003906A801475B5F4FFA0180818D3708F41E
:101ED0008AC0D801A45BBF4F2D913C9111978AE431
:101EE000E82EF12CE00EF11EF70160817181C9012D
:101EF000861B970B889730F0FA011082CD92DC9206
:101F0000F70174C07B01E20EF31EF694E794F1E250
:101F1000EF16F3E0FF0670F18FEF89831A821B82C0
:101F2000C801BE016F5F7F4F43E028EC0E948D081F
:101F3000C8016FEF0E943809F80117AE8AE897E0F0
:101F40006EE271E00E94611F8AE897E0B7014AE003
:101F500050E00E94211F8AE897E064E771E00E9448
:101F6000611F8AE897E060E273E04AE050E00E9477
:101F7000321F2CC0F80187AD882351F4B801605E90
:101F80007F4FC8012DEC3CEC4CEC5DE30E949E05BC
:101F900081E0F80187AF86AF025B1F4FB70180E099
:101FA00090E00E94432520E030E040E05FE30E94A3
:101FB000F92520E030E041EE53E40E9442240E94E3
:101FC0001725F801718360830E541040075B1F4F83
:101FD000F801119281E094E0819391938F01118235
:101FE00010820C541040005B1F4FF801D182C08258
:101FF0000F900F900F90CF91DF911F910F91FF9055
:10200000EF90DF90CF9008950F931F93CF93DF93BE
:10201000EC018DAD0E94521B182F092FCE01612FAC
:10202000702F0E94A00ECE01612F702F0E94BB0D59
:10203000882341F18AE897E061E871E00E94611F1E
:10204000C15ADF4F88819981CF55D040892B29F023
:102050008AE897E069E971E004C08AE897E069EAF4
:1020600071E00E94641FC15ADF4F88819981CF556A
:10207000D040892B21F0CE010E94640C03C0CE0118
:102080000E94A506DF91CF911F910F910895AF9205
:10209000BF92CF92DF92EF92FF920F931F93CF9355
:1020A000DF935C010E94951ACC24DD248AC0D801FC
:1020B00012968C9161E00E942F1CF801828161E0F0
:1020C0000E94BC1CD80113968C910E94521BEC01FB
:1020D000F801828160E00E942F1C80913D06909162
:1020E0003E06C817D90708F470C080913F0690914A
:1020F00040068C179D0708F468C0CBE3D6E00CC0FF
:102100008091A1069091A2068C179D0718F0CDE949
:10211000D6E002C0C0E0D0E0D80114968D919C9129
:102120001597C817D90749F081E016968C93169732
:102130001596DC93CE93149733C0F80186818830CE
:10214000B8F0883069F52097B1F0E881F981019005
:10215000F081E02DCE01D80113966C911397129661
:102160004C9109958823E1F0F801D183C0838681E1
:102170008F5F868315C0D80112968C9160E00E9413
:102180002F1CF801828160E00E94BC1CD8011196CE
:102190001C921E9216968C9116978F5F16968C93B2
:1021A0000894E11CF11C095F1F4FB2E0EB16F1042B
:1021B00009F07DCF0894C11CD11CE9E0CE16D104F2
:1021C00069F08501EE24FF2472CF80919F069091E3
:1021D000A006C817D90708F49DCF92CFDF91CF9101
:1021E0001F910F91FF90EF90DF90CF90BF90AF9035
:1021F00008950F931F93DF93CF9300D00F92CDB725
:10220000DEB78C01FC01828160E00E942F1CF80186
:10221000828160E00E94BC1CF801818560E00E9420
:102220002F1CF801818560E00E94BC1CF8018685A6
:1022300061E00E942F1CF801878561E00E942F1C3D
:10224000F801808961E00E942F1CF8016189728980
:10225000838994890E9412259B01AC01F80186852F
:10226000B9010E948A1BF801658976898789908D5A
:102270000E9412259B01AC01F8018785B9010E94DB
:102280008A1BF801618D728D838D948D0E941225B9
:102290009B01AC01F8018089B9010E948A1BF801F9
:1022A00087A561E00E942F1CF80160A971A982A98D
:1022B00093A90E9412259B01AC01F80187A5B901E1
:1022C0000E948A1BB801605E7F4FC801CC960E94B5
:1022D0004A14C8010E94471019821A821B82C80141
:1022E000BE016F5F7F4F0E940C0AC8016FEF0E9412
:1022F00038090F900F900F90CF91DF911F910F91A0
:102300000895CF92DF92EF92FF921F93DF93CF93C6
:1023100000D00F92CDB7DEB77C0180E090E0A0E066
:10232000B0E0F701818B928BA38BB48B858B968B5E
:10233000A78BB08F818F928FA38FB48F158E168E3F
:10234000178E10A211A212A283A394A3A5A3B6A3D1
:1023500087A390A7A1A7B2A783A794A7A5A7B6A76D
:102360008BE690E0E80EF91ED7011D92FD01119257
:102370007F01108283E99FEFE80EF91E9EE6C92EC9
:10238000D12CCE0CDF1CF60180E090E0108211828F
:1023900012820396339684329105C1F7D7011196C4
:1023A0001C921E9287E012968C93129711E013965E
:1023B0001C93139715961C921E92149716961C92B6
:1023C000169718961C921E92179788E019968C9370
:1023D000199782E01A968C931A971C961C921E925B
:1023E0001B971D961C921D9785E01E968C931E9739
:1023F00086E01F968C931F9789E050968C93509798
:1024000090961C92909791961C92919792961C92FE
:1024100080E090E0A0E0B0E0F70183A394A3A5A33F
:10242000B6A387A390A7A1A7B2A783A794A7A5A7A0
:10243000B6A719821A821B82C701BE016F5F7F4F48
:102440000E940C0A8BE0D7019F968C93C7016EEF18
:102450000E943809F70115AE16AE17AE80E490E081
:10246000E80EF91ED7011D937D0188EB9BE0A0E0EB
:10247000B0E0F70181939193A193B193DF011D9295
:102480001D921D921D92FD01119281E094E0DF01E9
:102490008D939D93FD0111921192DF011D921D926A
:1024A000FD0111921192DF011D921D921D921D924C
:1024B000FD011192119211921192DF011D92FD0105
:1024C0001192119211921192DF011D921D92FD0144
:1024D0001192DF011D92FD01119211921192119240
:1024E000DF011D921D921D921D92FD011192DF01CF
:1024F0001D927D011C92E3E9FFEFEE0EFF1E84E2C8
:10250000D6011D928A95E9F7C7018E569F4FFC01AF
:1025100080E3DF011D928A95E9F7E2ECF0E0EE0E30
:10252000FF1E82E090E0D7018D939C930F900F9057
:102530000F90CF91DF911F91FF90EF90DF90CF90A0
:10254000089585E795E00E9481110895FC0184EFCC
:1025500093E09383828387EF93E0958384838AE774
:1025600094E091838083DF011D9680E090E01C92CF
:1025700011961C92119712961C921297039613961D
:1025800084329105A1F71682178210861186138670
:1025900012861486EF59FF4F108208958BE396E060
:1025A0000E94A6120895EF92FF920F931F93CF936C
:1025B000DF93EC018AE897E06CEB71E00E94641F06
:1025C0008091D4059091D505029791F09E01235FEB
:1025D0003F4F8E010F5C1F4F85E795E062E070E092
:1025E000CF59DF4F488152E0E52EF12C0E94E207DF
:1025F000DF91CF911F910F91FF90EF900895CF93AE
:10260000DF93EC01693C710518F58A859B85893C4F
:10261000910558F00E94951A66507F4F8F4F9F4F3B
:102620006E837F838887998721C08C858823F1F00A
:102630000E94951A2E813F814885598526173707B4
:102640004807590798F4CE010E94D3121C860EC089
:102650008C85882359F46059714040F081E08C8763
:102660008AE897E060EF71E00E94641FDF91CF91EC
:1026700008950F931F93CF93DF93EC01162F609172
:10268000A9057091AA058091AB059091AC0520E059
:1026900030E04FE753E40E94A62487FD0CC0812F51
:1026A0000E94521B182F092FCE01612F702F0E94FC
:1026B000FF121A870B87DF91CF911F910F91089519
:1026C0001F93BC01142FAC01435F5F4F9C012F5C33
:1026D0003F4F81EB95E06F597F4F0E948A1388230B
:1026E00041F48AE897E067E272E00E94641F80E0AC
:1026F0000FC0812F60E00E942F1C812F60E00E949C
:10270000BC1C8AE897E06BE872E00E94641F81E0DD
:102710001F9108958F929F92AF92BF92CF92DF92B6
:10272000EF92FF920F931F93CF93DF934B01142FE0
:10273000052FD22EC32E84E795E06BE070E00E9457
:1027400075058D3010F080E098C0F4018083812FF2
:10275000902F9C018901EE24FF24CCE0D0E01DC025
:1027600084E795E0BE010E947505F80180832196FB
:1027700084E795E0BE010E947505F80181832196EA
:1027800084E795E0BE010E947505F80182830894F4
:10279000E11CF11C21960D5F1F4FF401808190E038
:1027A000E816F906ECF2EC01CC0FDD1FC80FD91FBB
:1027B0002C968D2D9C2D9C016901AA24BB2455C00B
:1027C00084E795E0BE010E947505E82EFF2400E035
:1027D00010E0F601E082F18202831383219684E700
:1027E00095E0BE010E947505102F0F2DFE2CEE24E2
:1027F00090E0A0E0B0E0E82AF92A0A2B1B2BF601B2
:10280000E082F18202831383219684E795E0BE0182
:102810000E947505102F0F2DFE2CEE2490E0A0E0F5
:10282000B0E0E82AF92A0A2B1B2BF601E082F1829C
:1028300002831383219684E795E0BE010E9475050B
:10284000102F0F2DFE2CEE2490E0A0E0B0E0E82A3F
:10285000F92A0A2B1B2BF601E192F19201931193B5
:102860006F010894A11CB11C2196F401808190E0B5
:10287000A816B9060CF4A4CF81E0DF91CF911F9187
:102880000F91FF90EF90DF90CF90BF90AF909F900F
:102890008F900895CF92DF92EF92FF920F931F9344
:1028A0007B0104E715E0C80168E070E00E9475054F
:1028B000C82EC80169E070E00E947505D82EC801D5
:1028C0006AE070E00E947505F701C082D1828283C0
:1028D0001F910F91FF90EF90DF90CF9008956F922E
:1028E0007F928F929F92AF92BF92CF92DF92EF92A0
:1028F000FF920F931F938C018AE897E063EE72E0DA
:102900000E94641F085B1F4F8091D705F8018083E8
:102910001092D5051092D405E0908605F0908705B9
:102920000091880510918905A0908A05B0908B05CB
:10293000C0908C05D0908D0560908E0570908F05AD
:102940008090900590909105C801B701A60195016E
:102950000E944224A40193010E94422420E030E01E
:1029600040E251E40E94F525181694F4C801B7011D
:102970000E94172560939505C601B5010E94172591
:1029800060939605C401B3010E94172560939705D3
:102990001F910F91FF90EF90DF90CF90BF90AF907D
:1029A0009F908F907F906F900895AF92BF92CF923B
:1029B000DF92EF92FF920F931F936C018AE897E0EA
:1029C00065E173E00E94641F95E7A92E95E0B92E9A
:1029D000C50163E070E047E028E237E00EE714E06D
:1029E000EE24FF240E941D0888E490E0C80ED91E42
:1029F000C501F60160810E941D071F910F91FF9094
:102A0000EF90DF90CF90BF90AF9008959F92AF92DC
:102A1000BF92CF92DF92EF92FF920F931F93CF93CB
:102A2000DF93EC018AE897E067E473E00E94641F9B
:102A300063E070E080E090E026E030E040E050E0CD
:102A40000E94E022962E990CAA2483C0CA2CDD2471
:102A50006CE370E080E090E024E630E040E050E09D
:102A60000E94E022F62E68EC70E080E090E02FEF0C
:102A700030E040E050E00E94E0228601000F111F8C
:102A8000F801EC0DFD1DEC0FFD1FE15BFF4FF19216
:102A90001192608364E670E080E090E028EC30E022
:102AA00040E050E00E94E0220C0F1D1F0D581F4F08
:102AB000F801718360830894C11CD11C6AE070E046
:102AC00080E090E028E230E040E050E00E94E02228
:102AD000B62E6DE270E080E090E02FE330E040E061
:102AE00050E00E94E0227601EE0CFF1C87010C0DE5
:102AF0001D1D0C0F1D1F2FE4C22ED12CC00ED11E88
:102B0000F601208130E040E050E00E945C262AE09F
:102B100030E040E050E00E949D26F601B082005B6C
:102B20001F4FF8011192208362E370E080E090E093
:102B300024E630E040E050E00E94E022EC0EFD1E72
:102B400023E730E0E20EF31EF70171836083F2E0C9
:102B5000AF0EA91408F47ACF60E070E080E090E056
:102B600022E030E040E050E00E94E022660F771F54
:102B7000881F991F960E83C0CA2CDD2464EB70E079
:102B800080E090E02FEF30E040E050E00E94E02253
:102B9000F62E60E570E080E090E022E830E040E072
:102BA00050E00E94E0228601000F111FF801EC0D99
:102BB000FD1DEC0FFD1FE15BFF4FF1926193108251
:102BC0006CE271E080E090E02EE531E040E050E022
:102BD0000E94E0220C0F1D1F0D581F4FF80171833A
:102BE00060830894C11CD11C6AE070E080E090E032
:102BF00028E230E040E050E00E94E022B62E6DE294
:102C000070E080E090E02FE330E040E050E00E9490
:102C1000E0227601EE0CFF1C87010C0D1D1D0C0F30
:102C20001D1FEFE4CE2ED12CC00ED11EF601208147
:102C300030E040E050E00E945C262AE030E040E0D6
:102C400050E00E949D26F601B082005B1F4FF80104
:102C50001192208366E970E080E090E028EC30E09B
:102C600040E050E00E94E022EC0EFD1E23E730E041
:102C7000E20EF31EF70171836083F2E0AF0EA91438
:102C800008F47ACF2BE0291508F09394892D90E071
:102C900001978C01000F111FF801E80FF91FEC0FCD
:102CA000FD1FE15BFF4F11921192108266E970E007
:102CB00080E090E028EC30E040E050E00E94E0222C
:102CC0000C0F1D1F0D581F4FF801718360838E017B
:102CD0000D581F4F85E795E064E070E0492DC15B1A
:102CE000DF4F9E0152E0E52EF12C0E941D08DF917E
:102CF000CF911F910F91FF90EF90DF90CF90BF90F9
:102D0000AF909F900895EF92FF920F931F93CF93F0
:102D1000DF938C01EC01CD5BDF4F88818F5F88836F
:102D200054E4E52EF12CE00EF11E813041F40E94B6
:102D3000951AF701608371838283938331C00E9467
:102D4000951AF70120813181428153812C53364FEE
:102D50004F4F5F4F621773078407950700F588810F
:102D6000843048F0C8010E940615F70110821182D4
:102D70001282138215C08AE897E065E573E00E942D
:102D8000611F8AE897E068814AE050E00E944F1F87
:102D90008AE897E06AE773E00E94641F01C0188226
:102DA000DF91CF911F910F91FF90EF9008951F93A6
:102DB000CF93DF93EC01142F80919205882309F0C3
:102DC00092C080919305882309F08DC0809194056D
:102DD000882309F088C07CC08091D4059091D505E6
:102DE0000397B1F00E94951AC55BDF4F28813981A6
:102DF0004A815B81CB54D040621B730B840B950BD3
:102E0000653671058105910518F0CE010E94D51433
:102E1000812F0E94EF1C892B09F065C0CE01069618
:102E20000E942919C75BDF4F99838883C954D0401A
:102E30002091D4053091D5059F702430310509F4D7
:102E400041C0892BF9F00E94951AAB01BC018AE8B8
:102E500097E02AE030E00E94121F8AE897E065E8D8
:102E600073E00E94611F8AE897E067E873E00E94C0
:102E7000641F0E94951AC55BDF4F688379838A833C
:102E80009B8331C00E94951AAB01BC018AE897E090
:102E90002AE030E00E94121F8AE897E065E873E0BC
:102EA0000E94611F8AE897E06DEA73E00E94641F48
:102EB0008091D4059091D505039731F4CE010E94FD
:102EC0006F1402C0892B79F4CE010E9483160BC0C7
:102ED000C75BDF4F88819981C954D0409F70892B8F
:102EE00009F496CF79CFDF91CF911F9108951F9369
:102EF000CF93DF93142FEC012696CE010E94611927
:102F0000882341F48AE897E065ED73E00E94641F2E
:102F100080E013C0CE0161E00E947F19812F60E044
:102F20000E942F1C812F60E00E94BC1C8AE897E061
:102F300068E274E00E94641F81E0DF91CF911F91ED
:102F400008950F931F938C0189EE93E0F80193830A
:102F500082838FEE93E09583848380E994E091836C
:102F60008083C80106966AE50E941B190D5B1F4FFE
:102F7000F801119211921192119211928F01108207
:102F80000D5F1F4FF801119211921192119280E082
:102F900090E010821182128203963396843291055A
:102FA000C1F71F910F9108958DE996E00E94A11736
:102FB000E8E2F7E08FEF809328071092290710923C
:102FC0002A07DF01139680932B0711968C93119794
:102FD00012961C92DF01169610922E0711968C9372
:102FE000119712961C92DF011996109231071196D3
:102FF0008C93119712968C93DF011C9610923407D4
:1030000011961C92119712968C93DF011F96809354
:10301000370711961C92119712968C937296809393
:103020003A07818382830895EF92FF920F931F9353
:10303000CF93DF93582F162FE42E022FF32E8AEF13
:1030400094E0652F0E9428028AEF94E0612F0E948D
:10305000AA02202F3F2DC901EC0110E006C08AEF23
:1030600094E069910E94AA021F5F1E15C0F38AEFC7
:1030700094E00E94ED0290E0882309F491E0892F0A
:10308000DF91CF911F910F91FF90EF900895DF9303
:10309000CF930F92CDB7DEB7498341E09E012F5FFA
:1030A0003F4F0E9414180F90CF91DF9108952F92F7
:1030B0003F924F925F926F927F928F929F92AF92C8
:1030C000BF92CF92DF92EF92FF920F931F93DF9305
:1030D000CF9300D000D000D0CDB7DEB7882E698363
:1030E000942E3B832A83EC820E94951A5B016C012B
:1030F000FF24EE24292C33242801662477244CC095
:103100008AEF94E0682D0E9428028AEF94E069819A
:103110000E94AA028AEF94E06C810E94DA028AEF90
:1031200094E0682D0E942802A1014E1951094132F4
:10313000510514F040E250E08AEF94E0682D0E94BF
:10314000FE022F2D332727FD30958A819B81280F82
:10315000391F3E832D838AEF94E00E943202892B2F
:1031600009F453C00115110561F00E94951A6A19FE
:103170007B098C099D09641575058605970508F07E
:1031800044C08AEF94E00E943B02ED81FE8181936E
:10319000FE83ED83F394DFCFE91408F4B1CF01157A
:1031A0001105C9F00E94951A6A197B098C099D09BD
:1031B000980140E050E0621773078407950758F0C4
:1031C0002F2D332727FD3095892D90E028173907BB
:1031D00014F4FF24FA948F2D26960FB6F894DEBFD0
:1031E0000FBECDBFCF91DF911F910F91FF90EF9058
:1031F000DF90CF90BF90AF909F908F907F906F9017
:103200005F904F903F902F900895892DF0E2F9152F
:1032100008F480E2E80EC0CFEF920F931F93FA01FB
:10322000D901E02E41E09F018D010E9457181F91A6
:103230000F91EF900895FC01608380E090E012828E
:10324000118214821382019634968C309105B9F75D
:103250000895AF92BF92CF92DF92EF92FF920F93B9
:10326000DF93CF930F92CDB7DEB75C012091590465
:1032700030915A04FC01808160E06E010894C11C09
:10328000D11CA60100E00E940C19E980FF242091C6
:10329000590430915A04F501808161E0A6010E9431
:1032A0000C19398120E02E0D3F1DC9010F90CF91DF
:1032B000DF910F91FF90EF90DF90CF90BF90AF9094
:1032C00008950F93DF93CF930F92CDB7DEB7FC0134
:1032D00019822091590430915A04808160E0AE0136
:1032E0004F5F5F4F00E00E940C1990E0813009F4BD
:1032F00091E0892F0F90CF91DF910F9108951F9347
:10330000CF93DF93EC01162F88816BE241E00E949E
:10331000471888816CE241E00E94471888816DE27D
:1033200040E00E94471888816EE240E00E94471802
:1033300088816FE241E00E944718888160E341E0A4
:103340000E944718888161E34FEF0E9447188881E7
:1033500062E342E00E944718888161E44FE00E94E6
:103360004718888162E44AE00E944718888163E434
:103370004FE00E944718888164E44AE00E944718A1
:10338000888165E44FE00E944718888166E44AE03E
:103390000E944718888167E44FE00E94471888819F
:1033A00068E44AE00E944718888169E44FE00E947F
:1033B000471888816AE44AE00E94471888816BE4D4
:1033C0004FE00E94471888816CE44AE00E94471849
:1033D00088816DE44FE00E94471888816EE44AE0DE
:1033E0000E94471888816FE44FE00E944718888147
:1033F00060E54AE00E944718888161E54FE00E943D
:103400004718888162E54AE00E944718888163E591
:103410004FE00E944718888164E54AE00E944718FF
:10342000888165E54FE00E944718888166E54AE09B
:103430000E944718888167E54FE00E9447188881FD
:1034400068E54AE00E94471888816DE544E20E94E1
:1034500047181123A1F088816BE74BE00E944718C1
:1034600088816DE74CE90E94471888816EE745E640
:103470000E94471888816FE74CE80E9447188881AE
:103480006EE54CE00E94471888816BE542E70E9498
:103490004718DF91CF911F9108951F920F920FB699
:1034A0000F9211242F933F938F939F93AF93BF93CA
:1034B0008091410790914207A0914307B091440742
:1034C000309145070196A11DB11D232F2D5F2D378A
:1034D00020F02D570196A11DB11D20934507809323
:1034E000410790934207A0934307B093440780910C
:1034F0003D0790913E07A0913F07B091400701968C
:10350000A11DB11D80933D0790933E07A0933F07F7
:10351000B0934007BF91AF919F918F913F912F91B1
:103520000F900FBE0F901F9018958FB7F8942091B1
:1035300041073091420740914307509144078FBFA4
:10354000B901CA0108959B01AC017FB7F89480913D
:103550003D0790913E07A0913F07B091400766B5A7
:10356000A89B05C06F3F19F00196A11DB11D7FBF3B
:10357000BA2FA92F982F8827860F911DA11DB11D45
:1035800062E0880F991FAA1FBB1F6A95D1F7BC0183
:103590002DC0FFB7F89480913D0790913E07A09110
:1035A0003F07B0914007E6B5A89B05C0EF3F19F073
:1035B0000196A11DB11DFFBFBA2FA92F982F8827F3
:1035C0008E0F911DA11DB11DE2E0880F991FAA1F4A
:1035D000BB1FEA95D1F7861B970B885E9340C8F214
:1035E000215030404040504068517C4F21153105FA
:1035F0004105510571F60895789484B5826084BDC3
:1036000084B5816084BD85B5826085BD85B58160E6
:1036100085BDEEE6F0E0808181608083E1E8F0E046
:103620001082808182608083808181608083E0E875
:10363000F0E0808181608083E1E9F0E08081826058
:103640008083808181608083E0E9F0E08081816017
:103650008083E1ECF0E080818460808380818260FF
:103660008083808181608083E3ECF0E080818160F1
:103670008083E0ECF0E0808182608083E2ECF0E027
:10368000808181608083EAE7F0E0808184608083CC
:103690008081826080838081816080838081806876
:1036A00080830895823108F08251E82FF0E0E05DD8
:1036B000FE4FE49120917B008E2F8695869586950E
:1036C00090E08170907035E0880F991F3A95E1F78E
:1036D0002F7D282B20937B00E77080915B048295DF
:1036E000880F880F807C8E2B80937C0080917A00DD
:1036F000806480937A0080917A0086FDFCCF2091CF
:10370000780040917900942F80E030E0282B392B0D
:10371000C90108951F93CF93DF93182FEB0161E048
:103720000E942F1C209709F48FC0CF3FD10509F4C8
:103730008EC0E12FF0E0EE5EFE4F8491883009F4F8
:1037400040C0893070F4823019F1833020F4813028
:1037500009F077C018C0833001F1843009F071C0DE
:1037600026C08B3009F44BC08C3030F4893099F18D
:103770008A3009F066C039C08C3009F44DC08E30F3
:1037800009F05FC051C084B5806884BDC7BD63C007
:1037900084B5806284BDC8BD5EC0809180008068B1
:1037A00080938000D0938900C093880054C080919A
:1037B0008000806280938000D0938B00C0938A0049
:1037C0004AC080919000806880939000D0939900C7
:1037D000C093980040C080919000806280939000D8
:1037E000D0939B00C0939A0036C08091900088606F
:1037F00080939000D0939D00C0939C002CC080913A
:10380000C00080688093C0008091C0008F7B80934F
:10381000C000C093CF001FC08091C0008062809321
:10382000C000C093D00017C08091C2008860809310
:10383000C2008091C2008B7F8093C200C093D200EF
:103840000AC0C038D1051CF4812F60E002C0812F6E
:1038500061E00E94BC1CDF91CF911F910895CF932E
:10386000DF93482F50E0CA018C509F4FFC013491E8
:103870004A525F4FFA018491882369F190E0880FE2
:10388000991FFC01E455FF4FA591B491FC01E6544A
:10389000FF4FC591D491662351F42FB7F8948C91C2
:1038A000932F909589238C93888189230BC0623054
:1038B00061F42FB7F8948C91932F909589238C9372
:1038C0008881832B88832FBF06C09FB7F8948C9183
:1038D000832B8C939FBFDF91CF910895883071F136
:1038E000893068F4823031F1833020F4813009F07E
:1038F00042C01DC0833089F08430E9F512C08B309E
:1039000059F18C3028F48930E9F08A30A1F51EC0D5
:103910008C3031F18E3079F529C0809180008F771D
:1039200003C0809180008F7D80938000089584B5CE
:103930008F7702C084B58F7D84BD089580919000FB
:103940008F7707C0809190008F7D03C08091900099
:10395000877F8093900008958091C0008F7703C087
:103960008091C0008F7D8093C00008958091C20037
:10397000877F8093C2000895FF920F931F93F62EC6
:10398000482F50E0CA018E5E9E4FFC012491CA016F
:103990008C509F4FFC0114914A525F4FFA010491E1
:1039A0000023C9F0222319F0822F0E946E1CE02F01
:1039B000F0E0EE0FFF1FE654FF4FA591B4919FB7C3
:1039C000F894FF2021F48C911095812302C08C91F2
:1039D000812B8C939FBF1F910F91FF9008950F93A0
:1039E0001F93482F50E0CA018E5E9E4FFC01249128
:1039F000CA018C509F4FFC0104914A525F4FFA015B
:103A00001491112319F420E030E015C0222319F09D
:103A1000822F0E946E1C812F90E0880F991F88537F
:103A20009F4FFC01A591B4918C9120E030E0802360
:103A300011F021E030E0C9011F910F910895089520
:103A40002091860730918707809188079091890798
:103A5000281B390B2F733070C901089520918607F8
:103A60003091870780918807909189072817390737
:103A700019F42FEF3FEF09C0E0918807F091890713
:103A8000EA5BF84F8081282F30E0C901089520912A
:103A900086073091870780918807909189072817BA
:103AA000390719F42FEF3FEF13C0E0918807F09129
:103AB0008907EA5BF84F20818091880790918907F8
:103AC00001968F739070909389078093880730E0F8
:103AD000C901089510928D0710928C0788EE93E02B
:103AE000A0E0B0E080938E0790938F07A09390079B
:103AF000B093910788E994E090938B0780938A07AD
:103B000008950F931F93DF93CF930F92CDB7DEB736
:103B10008C01698380916304882369F083E0BE018E
:103B20006F5F7F4F41E050E00E9449201816190650
:103B300014F49C0107C081E090E0F8019383828334
:103B400020E030E0C9010F90CF91DF911F910F91DC
:103B5000089583E00E9420200895CF93DF9312C040
:103B600082E00E94AB1F2FEF8F3F9207C9F0E091D8
:103B70008607F0918707EA5BF84F8083D093870729
:103B8000C0938607C0918607D09187072196CF738F
:103B9000D0708091880790918907C817D90701F7DD
:103BA000DF91CF910895FC0180818E5F808380E852
:103BB0006CE371E042E450E00E94C41F0895FC01F0
:103BC00081819081913A59F4813209F04CC080E0B2
:103BD0006CE574E047E050E00E94C41F42C091329F
:103BE00009F041C0803239F48CE594E067E070E080
:103BF0000E94082036C0823209F035C0828180934D
:103C0000630480915C0490915D04A0915E04B09186
:103C10005F04805B9440A040B04019F5809163043C
:103C200080FD12C087E797E7909301088093000812
:103C30002BE088E190E00FB6F894A895809360009F
:103C40000FBE209360000DC088E10FB6F8948093FA
:103C50006000109260000FBEA895109201081092AB
:103C6000000881E0089580E00895CF93DF930E94DB
:103C7000FC1A80EA97E00E942B200E941902C0E003
:103C8000D0E00E9404022097E1F30E940000F9CFE7
:103C9000CF92DF92EF92FF920F931F93CF93DF9318
:103CA0007C016B018A01C0E0D0E00FC0D6016D91AC
:103CB0006D01D701ED91FC910190F081E02DC701DC
:103CC0000995C80FD91F015010400115110571F752
:103CD000CE01DF91CF911F910F91FF90EF90DF9078
:103CE000CF900895EF92FF920F931F938C01DC0108
:103CF000ED91FC910190F081E02D6DE009957C0142
:103D0000D801ED91FC910190F081E02DC8016AE0AD
:103D100009959C012E0D3F1DC9011F910F91FF9028
:103D2000EF900895CF93DF93EC016115710519F4BD
:103D300020E030E00FC0DB010D900020E9F7119783
:103D4000A61BB70BE881F9810280F381E02DAD015C
:103D500009959C01C901DF91CF9108954F925F921F
:103D60007F928F929F92AF92BF92CF92DF92EF920B
:103D7000FF920F931F93DF93CF93CDB7DEB7A19739
:103D80000FB6F894DEBF0FBECDBF2C01742ECB0151
:103D9000223008F42AE019A231E2C32ED12CCC0E35
:103DA000DD1E822E9924AA24BB24672D752FA50120
:103DB00094010E947B2679018A01C801B701A501FF
:103DC00094010E945C26472D461B0894C108D10827
:103DD0004A3014F4405D01C0495CF6014083E114AF
:103DE000F1040105110521F07E2C5F2DC801DDCF06
:103DF000C201B6010E94921EA1960FB6F894DEBFD2
:103E00000FBECDBFCF91DF911F910F91FF90EF902B
:103E1000DF90CF90BF90AF909F908F907F905F90FA
:103E20004F900895DC012115310541F4ED91FC918D
:103E30000190F081E02D642F099508950E94AE1E37
:103E40000895EF92FF920F931F939A017B0100E078
:103E500010E0B801A7010E94121F1F910F91FF905F
:103E6000EF900895CF92DF92EF92FF920F931F93FE
:103E70006C017B019A0100E010E0B801A7010E94EB
:103E8000121F8C01C6010E94721E080F191FC80163
:103E90001F910F91FF90EF90DF90CF900895EF92D8
:103EA000FF920F931F939A01E62EFF2400E010E08B
:103EB000B801A7010E94121F1F910F91FF90EF9070
:103EC00008950E94921E0895EF92FF920F931F9300
:103ED0007C010E94921E8C01C7010E94721E080F75
:103EE000191FC8011F910F91FF90EF900895282F7F
:103EF00080919A078823C1F057FF1AC015C02898EF
:103F0000909399078091F1008193E217F307B9F735
:103F10004115510539F08091F200882319F48BE6A0
:103F20008093E800AFBF02C04FEF5FEFCA01089572
:103F3000AFB7F89427702093E9008091F200282F02
:103F400030E0241735070CF4A901FB019B01240F75
:103F5000311D94E6DACFDF93CF930F92CDB7DEB762
:103F6000BE016F5F7F4F41E050E00E94771F0197D5
:103F700019F02FEF3FEF03C08981282F30E0C901EE
:103F80000F90CF91DF910895FF920F931F93F82E1A
:103F9000142F052F40919D0750919E07212F302F00
:103FA000C901DC01FB016EEF29C0F7FE02C094914C
:103FB00001C0908120919B0730919C072417350701
:103FC000ACF48091E8008570E1F38091E80082FF15
:103FD00003C02FEF3FEF17C09093F100C901019686
:103FE0008F739070892B11F46093E8002F5F3F4F1F
:103FF00030939C0720939B07119731961097A9F651
:10400000812F902F9C01C9011F910F91FF9008955E
:104010009C018091E80082FFFCCFF901260F311D41
:1040200003C08091F1008193E217F307D1F728983C
:1040300084E6809399078BEF8093E800CB01089585
:104040008093E9008091F200882319F08AE380933D
:10405000E8000895089510929A0781E08093D700B0
:1040600080EA8093D80082E189BD09B400FEFDCFCB
:1040700061E070E080E090E00E94A31A80E9809304
:10408000D8008CE08093E2001092E000559A209ACC
:1040900008955F926F927F928F929F92AF92BF929C
:1040A000CF92DF92EF92FF920F931F93CF93DF9304
:1040B000E82E842E752E80919A07882371F18B014A
:1040C000242F352FC901EC017AEFF72E67E0962EE9
:1040D0009E2050E4552E8E2D90E040E2A42EB12C6F
:1040E000A822B9223AE3632E20E4C22ED12CC822A2
:1040F000D92258C09FB7F8949092E9008091E800C7
:1041000085FD02C020E004C08091F200252D281B0F
:104110009FBF222361F4FA9419F42FEF3FEF4DC0B3
:1041200061E070E080E090E00E94A31A3BC0822F23
:1041300090E0C817D9070CF42C2FC21BD1094FB738
:10414000F8949092E900A114B10421F406C01092F1
:10415000F10021502223D9F719C0E7FC03C0F80170
:10416000922F10C0C801322F06C0FC010196E491C5
:10417000E093F10031503323C1F706C08191809361
:10418000F10091509923D1F7020F111D8091E800A1
:1041900085FF05C0209729F4C114D10411F0609265
:1041A000E8004FBF209709F0A5CF5D9884E6809383
:1041B0009807282D372DC9019C01C901DF91CF91A6
:1041C0001F910F91FF90EF90DF90CF90BF90AF9035
:1041D0009F908F907F906F905F9008951F920F92A5
:1041E0000FB60F9211242F933F934F935F936F93CA
:1041F0007F938F939F93AF93BF93EF93FF938091A0
:10420000E1001092E100982F83FF0FC01092E900A7
:1042100081E08093EB001092EC0082E38093ED004C
:1042200010929A0788E08093F00092FF34C083E0F8
:104230008093E9008091F200882319F08AE380934B
:10424000E8008FB7F89492E09093E9009091F20023
:104250008FBF992321F08AE897E00E94AD1D8091DD
:104260009807882351F08091980781508093980790
:1042700080919807882309F45D9A80919907882393
:1042800051F0809199078150809399078091990707
:10429000882309F4289AFF91EF91BF91AF919F91E4
:1042A0008F917F916F915F914F913F912F910F90DF
:1042B0000FBE0F901F9018950F931F93DF93CF930E
:1042C0000F92CDB7DEB719828E010F5F1F4FC80165
:1042D0000E94D31DC8010E943524898190E00F906F
:1042E000CF91DF911F910F9108951F920F920FB6FA
:1042F0000F921124EF92FF921F932F933F934F93AE
:104300005F936F937F938F939F93AF93BF93EF933D
:10431000FF93DF93CF93CDB7DEB76197DEBFCDBFFD
:104320001092E9008091E80083FF0FC1FE013196F1
:104330009E01275F3F4F03C08091F1008193E217F8
:10434000F307D1F7289884E68093990782EF80934A
:10435000E800998197FF05C08091E80080FFFCCFBD
:1043600003C08EEF8093E800292F30E0C9018076EA
:104370009070892B09F0C2C08A81882329F4109299
:10438000F1001092F100D6C0813009F4D3C083301F
:1043900009F4D0C0853049F48091E80080FFFCCF5B
:1043A0008B8180688093E300C5C0863009F07CC0B3
:1043B0001C81EF80F8841230C1F51092E900109250
:1043C0009C0710929B0710929E0710929D070E94D7
:1043D0005C2199E0FE013996DF01292F1D922A9573
:1043E000E9F799871A8791E09E8790E8988B9AEF72
:1043F000998B20919B0730919C07275F3F4F3C870B
:104400002B878D871092E90010929C0710929B07D2
:10441000F0929E07E0929D0780E0BF0149E050E0E6
:104420000E94C41F0E945C2185C01092E900109276
:104430009C0710929B07F0929E07E0929D07123214
:1044400041F482E290E00E942D24892B09F476C089
:1044500071C0113079F488E0E816F10419F481E0B4
:1044600080939F0780919F07882309F06BC0ECEB36
:10447000F1E013C0133009F061C08B81882319F477
:10448000EEE7F1E00AC0823019F4E2E8F1E005C09D
:10449000813009F053C0E4EAF1E0449180E8BF01C3
:1044A00050E00E94C41F46C0873009F447C08830DE
:1044B00021F481E08093F1003DC08930D9F523706B
:1044C0003070232BD9F5E1EEF1E091E031E026E305
:1044D0009093E9003093EB0084918093EC0020935B
:1044E000ED009F5F3196953099F78EE78093EA0053
:1044F0001092EA008B8180939A071CC08F81988567
:104500001092E90010929C0710929B0790939E07CF
:1045100080939D078D81882329F4CE0101960E9406
:10452000DF1D06C0823051F4CE0101960E94FE22AA
:10453000882321F08EEF8093E80007C081E280930A
:10454000EB0003C0EEECF1E0A8CF6196DEBFCDBF7B
:10455000CF91DF91FF91EF91BF91AF919F918F919B
:104560007F916F915F914F913F912F911F91FF909C
:10457000EF900F900FBE0F901F901895EF92FF9243
:104580000F931F937B018C016115710581059105C6
:1045900029F420E030E040E050E00BC00E94F6013A
:1045A000A80197010E949D26AC01CB01DA019C0174
:1045B000AD01B901CA011F910F91FF90EF900895CD
:1045C000EF92FF920F931F937B018C016217730789
:1045D0008407950764F4261B370B480B590BCA0157
:1045E000B9010E94BE22E60EF71E081F191FB7016F
:1045F000C8011F910F91FF90EF900895FC019181E8
:104600008081813A31F4913089F080E0933089F4EF
:104610000DC0813269F49B3021F48281809364045F
:1046200005C09A3029F482818093650481E0089561
:1046300080E00895EF92FF920F931F938C01E62E76
:10464000DC01ED91FC910480F581E02D0995F82EB7
:10465000D801ED91FC910680F781E02DC8016E2D07
:1046600009958F2D90E01F910F91FF90EF90089585
:104670001092A1071092A5071092A4078AEA94E06D
:104680009093A3078093A2070895EF92FF920F9350
:104690001F93DF93CF930F92CDB7DEB789838B0142
:1046A0007A0184E0BE016F5F7F4F41E050E00E94DD
:1046B000492084E4B801A7010E9449200F90CF91BE
:1046C000DF911F910F91FF90EF90089582E048E0F5
:1046D00050E00E9445230895FC011682178210863F
:1046E00011861286138614823496BF010E946623B7
:1046F0000895DC01683810F0685829C0E62FF0E012
:1047000067FF13C0E058F04081E090E002C0880FDE
:10471000991FEA95E2F7809514962C911497282317
:1047200014962C93149760E012C0ED59FD4F6491DC
:10473000662319F420E030E01DC067FF08C014961E
:104740008C9114978D7F14968C9314976F77FD013D
:1047500090E0662321F08681861709F416829F5F18
:1047600031969630B1F7CD011496BD010E946623B3
:1047700021E030E0C9010895CF93DF93DC01683870
:1047800010F0685825C0E62FF0E067FF12C0E0582F
:10479000F04081E090E002C0880F991FEA95E2F7AF
:1047A00014962C911497282B14962C93149760E050
:1047B0000FC0ED59FD4F64916623D9F167FF08C022
:1047C00014968C911497826014968C9314976F773B
:1047D00016968C9116978617A9F117968C911797B4
:1047E000861781F118968C911897861759F11996AA
:1047F0008C911997861731F11A968C911A97861712
:1048000009F11B968C911B978617E1F0ED01E0E012
:10481000F0E09E2F8E81882321F4EA0FFB1F668330
:1048200006C09F5F31962196E630F10591F79630EC
:1048300049F481E090E013969C938E93129720E0C8
:1048400030E007C0CD011496BD010E94662321E02F
:1048500030E0C901DF91CF91089580E865EE71E005
:1048600045E650E00E94C41F0895FC0180818F5FDF
:10487000808380E86AE472E049E150E00E94C41F4E
:1048800008955058BB27AA270ED075C166D130F0C5
:104890006BD120F031F49F3F11F41EF45BC10EF494
:1048A000E095E7FB51C1E92F77D180F3BA17620792
:1048B00073078407950718F071F49EF58FC10EF405
:1048C000E0950B2EBA2FA02D0B01B90190010C0120
:1048D000CA01A0011124FF27591B99F0593F50F438
:1048E000503E68F11A16F040A22F232F342F442790
:1048F000585FF3CF469537952795A795F040539588
:10490000C9F77EF41F16BA0B620B730B840BBAF057
:104910009150A1F0FF0FBB1F661F771F881FC2F7C2
:104920000EC0BA0F621F731F841F48F487957795D6
:104930006795B795F7959E3F08F0B3CF9395880F8D
:1049400008F09927EE0F979587950895D9D008F428
:1049500081E008950CD00FC107D140F0FED030F0B7
:1049600021F45F3F19F0F0C0511139C1F3C014D1E7
:1049700098F39923C9F35523B1F3951B550BBB2726
:10498000AA2762177307840738F09F5F5F4F220FD3
:10499000331F441FAA1FA9F333D00E2E3AF0E0E8CC
:1049A00030D091505040E695001CCAF729D0FE2F18
:1049B00027D0660F771F881FBB1F261737074807AA
:1049C000AB07B0E809F0BB0B802DBF01FF27935860
:1049D0005F4F2AF09E3F510568F0B6C000C15F3FAF
:1049E000ECF3983EDCF3869577956795B795F79548
:1049F0009F5FC9F7880F911D9695879597F9089540
:104A0000E1E0660F771F881FBB1F621773078407DB
:104A1000BA0720F0621B730B840BBA0BEE1F88F7EA
:104A2000E095089504D06894B111D9C00895BCD020
:104A300088F09F5790F0B92F9927B751A0F0D1F087
:104A4000660F771F881F991F1AF0BA95C9F712C011
:104A5000B13081F0C3D0B1E00895C0C0672F782F86
:104A60008827B85F39F0B93FCCF38695779567957D
:104A7000B395D9F73EF490958095709561957F4FE9
:104A80008F4F9F4F0895E89409C097FB3EF490958F
:104A90008095709561957F4F8F4F9F4F9923A9F017
:104AA000F92F96E9BB279395F695879577956795A6
:104AB000B795F111F8CFFAF4BB0F11F460FF1BC0EA
:104AC0006F5F7F4F8F4F9F4F16C0882311F096E97D
:104AD00011C0772321F09EE8872F762F05C066232B
:104AE00071F096E8862F70E060E02AF09A95660FE4
:104AF000771F881FDAF7880F9695879597F908959D
:104B0000990F0008550FAA0BE0E8FEEF16161706DE
:104B1000E807F907C0F012161306E407F50798F046
:104B2000621B730B840B950B39F40A2661F0232B5F
:104B3000242B252B21F408950A2609F4A140A695DB
:104B40008FEF811D811D089597F99F6780E870E0C0
:104B500060E008959FEF80EC089500240A941616F3
:104B6000170618060906089500240A94121613065B
