:100000000C9479010C94A1010C94A1010C94A10110
:100010000C94A1010C94A1010C94A1010C94A101D8
:100020000C94A1010C94A1010C94BC200C944321CC
:100030000C94A1010C94A1010C94A1010C94A101B8
:100040000C94A1010C94A1010C94A1010C94A101A8
:100050000C94A1010C94A1010C94A1010C941B1A05
:100060000C94A1010C94A1010C94A1010C94A10188
:100070000C94A1010C94A1010C94A1010C94A10178
:100080000C94A1010C94A1010C94A1010C94A10168
:100090000C94C6030C94A1010C94A1010C94A10131
:1000A0000C94A1010C94A1010C94A101000000008A
:1000B000240027002A002D00300000000000250049
:1000C00028002B002E003100000000002300260035
:1000D00029002C002F000404040404030405020278
:1000E00002020403020202020606060606060404D1
:1000F00002020204040802011040804010204080E7
:10010000408008020401804020100201108010206D
:1001100040400000000200080E0000030401000B34
:1001200000000000000000000000000000000000CF
:10013000070605040100080A0B0C0D09080B000254
:10014000020201000904000001020200000524006F
:100150001001052401010104240206052406000102
:100160000705810310004009040100020A00000095
:100170000705020240000007058302400000040357
:100180000904220343006C0079006400650020002C
:10019000200020002000200020002000200020005F
:1001A00020002000180346006100620075006C000A
:1001B0006500200020002000200020001201000225
:1001C00000000040501D9F6000010102000112016B
:1001D000000202000040501D9F600001010200016A
:1001E00000C18081C105010902A1010901A10085A9
:1001F00001050919012903150025019503750181E0
:100200000295017505810305010930093109381589
:1002100081257F750895038106C0C005010906A1E7
:10022000018502050719E029E715002501750195EB
:10023000088102950175088103950675081500254A
:10024000650507190029658100C009040200010342
:100250000000000921010100012265000705840357
:1002600040000100000000000000002A2B280000D0
:10027000000000000000000000000000000000007E
:100280000000002C9EB4A0A1A2A434A6A7A5AE365F
:100290002D3738271E1F20212223242526B333B6CD
:1002A0002EB7B89F8485868788898A8B8C8D8E8FA0
:1002B000909192939495969798999A9B9C9D2F31A3
:1002C00030A3AD350405060708090A0B0C0D0E0F07
:1002D000101112131415161718191A1B1C1DAFB183
:1002E000B0B500006202A112CE12A217381DF81F8D
:1002F000062311241FBECFEFDAE0DEBFCDBF14E02E
:10030000A0E0B1E0EAE8FDE402C005900D92A43B54
:10031000B107D9F717E0A4EBB4E001C01D92A83AE9
:10032000B107E1F712E0C2EFD2E004C02297FE016C
:100330000E948826C43ED107C9F70E94031E0C9470
:10034000C3260C940000A0E0B0E0E9EAF1E00C94D0
:100350009426EC01A880B980CA80DB80A114B10486
:10036000C104D10441F484E2A82E89EDB82E8BE5B6
:10037000C82E87E0D82EC601B5012DE133EF41E04C
:1003800050E00E946B2627EA31E440E050E00E94F2
:100390002A267B018C01C601B5012DE133EF41E036
:1003A00050E00E946B26CA01B9012CEE34EF4FEFEA
:1003B0005FEF0E942A266E0D7F1D801F911F97FF01
:1003C00004C06150704080409048688379838A837C
:1003D0009B839B01AC015F77B901CA01CDB7DEB742
:1003E000EAE00C94B0260E94A301089585E594E00C
:1003F0000E94A3010895609355047093560480935E
:10040000570490935804089585E795E00E940410DE
:1004100085E795E00E94910C85E795E00E944F09E1
:100420008091B305882321F085E795E00E947C0543
:1004300008958AEF94E00E94020384E897E060E860
:1004400075E20E94ED1C85E795E00E94F910089581
:1004500081E08093F9046093D6041092F70410921F
:10046000F80408952091D50430E08091D404281B2D
:100470003109C90108954091D4048091D5044817E9
:1004800018F02FEF3FEF0AC0E42FF0E0EC54FB4FE1
:100490008081282F30E04F5F4093D404C901089534
:1004A000E091D4048091D504E81718F0EFEFFFEF46
:1004B00006C0F0E0EC54FB4F8081E82FF0E0CF0164
:1004C000089508951092FD041092FC0488EE93E0C4
:1004D000A0E0B0E08093FE049093FF04A093000599
:1004E000B09301058AE694E09093FB048093FA04AC
:1004F0000895CF92DF92EF92FF920F931F93CF93C5
:10050000DF937C016B018A018091F9048823A1F0BB
:10051000C0E0D0E00DC0D701ED91FC91D601AC0F49
:10052000BD1F0190F081E02DC7016C9109952196C6
:10053000C017D10780F304C0CB01642F0E94AB0326
:10054000C801DF91CF911F910F91FF90EF90DF9045
:10055000CF900895DF93CF930F92CDB7DEB7FC0114
:1005600069838091F9048823C9F08091F80480326E
:1005700038F081E090E09383828320E030E015C082
:100580008091F704E82FF0E0E952FB4F99819083C6
:100590008F5F8093F7048093F80405C0CE01019625
:1005A00061E00E94AB0321E030E0C9010F90CF91E0
:1005B000DF9108950F93062F8091D60467ED74E0C4
:1005C0004091F80421E00E9456031092F704109223
:1005D000F8041092F9040F91089561E00E94DA0284
:1005E0000895413208F040E2862F64EB74E00E94E7
:1005F0000D031092D4048093D504089521E00E9445
:10060000F10208951092D4041092D5041092F704C8
:100610001092F8040E9457050895382F413210F0C7
:1006200040E042C0809106058823E1F791E0909375
:100630000605209308058FEF8093730510922E0511
:10064000415040932F054F5F909307058091070518
:10065000330F832B8093070580910905813041F486
:1006600010920905809107058093BB0085EC01C0BD
:1006700085EE8093BC00809106058130E1F3809186
:100680002E05841710F440912E0520E030E00AC0BA
:10069000FB01E20FF31FD901A25FBA4F8C91808357
:1006A0002F5F3F4F2417A0F3842F08950F931F93BC
:1006B000582F122F413210F081E04AC08091060578
:1006C0008823E1F782E080930605009308058FEF09
:1006D0008093730510922E0540932F05AEE0B5E090
:1006E000FB0102C081918D938E2F861B8417D0F35E
:1006F0001092070580910705550F852B80930705FC
:1007000080910905813041F4109209058091070517
:100710008093BB0085EC01C085EE8093BC00112363
:1007200021F0809106058230E1F3809173058F3FBF
:1007300011F480E00DC080917305803211F482E0E5
:1007400007C080917305803311F084E001C083E01D
:100750001F910F910895482F613210F081E00895A4
:1007600080910605843011F082E008956093510570
:10077000A0E3B5E0842F9C01F90102C081918D9323
:100780008E2F841B8617D0F380E008951F920F925E
:100790000FB60F9211242F933F934F935F936F9354
:1007A0007F938F939F93AF93BF93EF93FF9380912A
:1007B000B90090E0887F90708036910509F4F2C00E
:1007C00081369105CCF58832910509F47BC08932D8
:1007D0009105B4F48031910509F46FC08131910520
:1007E0003CF4009709F447C1089709F04FC165C070
:1007F0008831910509F466C0809709F047C182C02D
:100800008034910509F4A4C08134910544F4803307
:10081000910509F482C0C89709F038C189C08035B4
:10082000910509F489C08835910509F496C088348A
:10083000910509F02BC1AEC08839910509F413C1A7
:1008400089399105ECF48837910509F4ABC08937F3
:1008500091054CF48836910509F4A4C080379105C0
:1008600009F014C19FC08838910509F4FCC0803993
:10087000910509F49DC08038910509F007C198C021
:10088000803B910509F4C6C0813B91054CF4803A48
:10089000910509F49FC0883A910509F0F7C0BAC0E4
:1008A000803C910509F4E3C0883C910509F4DFC060
:1008B000883B910509F0EAC0C2C08091070580938A
:1008C000BB00CFC090912E0580912F05981768F43A
:1008D00090912E05E92FF0E0E25FFA4F808180933E
:1008E000BB009F5F90932E05BCC0809108058823B4
:1008F00009F44BC085ED8093BC008091BC0084FD61
:10090000FCCFC2C080E28093730585ED8093BC006C
:100910008091BC0084FDFCCFB7C080E38093730559
:1009200085ED8093BC008091BC0084FDFCCFACC001
:1009300088E3809373059BC080912E059091BB0046
:10094000E82FF0E0E25FFA4F90838F5F80932E05EF
:1009500090912E0580912F0582C080912E05909157
:10096000BB00E82FF0E0E25FFA4F90838F5F809347
:100970002E0580910805882341F085ED8093BC0009
:100980008091BC0084FDFCCF7FC081E0809309058D
:1009900084EA6EC085ED8093BC008091BC0084FD2C
:1009A000FCCF72C083E0809306051092720559C097
:1009B00080917205803208F056C080917205909146
:1009C000BB00E82FF0E0EE5AFA4F90838F5F8093E0
:1009D000720547C080917205803230F4E091720553
:1009E000F0E0EE5AFA4F108285ED8093BC008091C2
:1009F000BC0084FDFCCF1092060560917205E09169
:100A00000C05F0910D0582E595E070E009951092D6
:100A100072052DC084E08093060510925005109257
:100A20005105E0910A05F0910B050995809151055A
:100A3000882329F481E0809351051092300590912C
:100A40005005E92FF0E0E05DFA4F80818093BB0014
:100A50009F5F909350059091500580915105981794
:100A600010F485EC01C085E88093BC000FC085ECD4
:100A70008093BC0009C01092730585ED8093BC0083
:100A80008091BC0084FDFCCF10920605FF91EF9190
:100A9000BF91AF919F918F917F916F915F914F9196
:100AA0003F912F910F900FBE0F901F9018951092AD
:100AB000060581E0809308051092090582E061E057
:100AC0000E948A1C83E061E00E948A1CE9EBF0E04E
:100AD00080818E7F808380818D7F808388E4809376
:100AE000B80085E48093BC000895F999FECF72BDEB
:100AF00061BDF89A80B50895CF93DF93EC01A8818A
:100B0000B981109751F0ED91FC9111970280F3811A
:100B1000E02DCD016B814A810995AF81B885109791
:100B200051F0ED91FC9111970280F381E02DCD0100
:100B30006A8549850995DF91CF9108952F923F925B
:100B40004F925F926F927F928F929F92AF92BF92DD
:100B5000CF92DF92EF92FF920F931F93CF93DF9389
:100B6000EC01FB0119012A01A080AD8E61816E8F1D
:100B7000E280EF8E70E0882777FD8095982F0E94A5
:100B800013252D893E894F89588D0E940F2420E01E
:100B900030E04FE753E40E947824A20191010E94C3
:100BA000C7253B014C01FF240027F7FC0095102FBF
:100BB000C801B7010E941325298D3A8D4B8D5C8D9C
:100BC0000E940F2420E030E04FE753E40E94782495
:100BD000A20191010E94C7257B018C01BB24CC247A
:100BE000B7FCC094DC2CC601B5010E9413252989ED
:100BF0003A894B895C890E940F2420E030E04FE75E
:100C000053E40E947824A20191010E94C7255B0150
:100C10006C016BA37CA38DA39EA3C301D4018FA3FE
:100C200098A7A9A7BAA7C701D8018BA79CA7ADA76A
:100C3000BEA7C601B50120E030E040E050E00E94D0
:100C4000742488233CF4D601C501B0588BA39CA31F
:100C5000ADA3BEA3EFA0F8A409A51AA5C801B701CA
:100C600020E030E040E050E00E94742488233CF40F
:100C7000D801C701B0588FA398A7A9A7BAA7EBA41A
:100C8000FCA40DA51EA5C801B70120E030E040E09E
:100C900050E00E94742488233CF4D801C701B05866
:100CA0008BA79CA7ADA7BEA7DF91CF911F910F91F6
:100CB000FF90EF90DF90CF90BF90AF909F908F907C
:100CC0007F906F905F904F903F902F900895EF929C
:100CD000FF920F931F93CF93DF93EC0179018A0169
:100CE00070E080E090E00E9411256CAB7DAB8EAB94
:100CF0009FAB28A939A94AA95BA90E940F2420E02B
:100D000030E04FE753E40E947824A80197010E9445
:100D1000C7257B018C0168AF79AF8AAF9BAF20E01C
:100D200030E040E050E00E94742488233CF4D80175
:100D3000C701B05888AF99AFAAAFBBAFDF91CF91D1
:100D40001F910F91FF90EF900895CF92DF92EF9255
:100D5000FF920F931F93DF93CF9300D00F92CDB7E5
:100D6000DEB78C01FC01C4A8D5A8E6A8F7A8C70186
:100D7000B60120E030E04FE753E40E94742487FD81
:100D800043C0F801858D882331F4868D882319F4BA
:100D9000878D8823C9F1C80160E02DEC3CEC4CEC58
:100DA0005DE31BC0992339F4F801868D882319F47B
:100DB000878D882361F019821A821B82C801BE01C7
:100DC0006F5F7F4F20E030E040E05FE31AC0C80172
:100DD0006FEF2AE939E949E95EE30E94670621C01D
:100DE0009923F9F4F801868D8823D9F4878D882317
:100DF000C1F4C801005E1F4FB8012DEC3CEC4CEC77
:100E00005DE30E949E050DC0C701B60120E030E001
:100E10004FE753E40E947424F801958D87FDC2CFFB
:100E2000DFCF0F900F900F90CF91DF911F910F9117
:100E3000FF90EF90DF90CF9008950F931F93CF9383
:100E4000DF93EC01CF59DF4F8881C156D04068173E
:100E500068F58E010E591F4FD8016C930E94631ADA
:100E6000CD59DF4F688379838A839B83C356D040F3
:100E7000FE01E959FF4FD8018C9190E0880F991F2E
:100E8000880F991FC80FD91FCE56DF4F88819981CF
:100E9000AA81BB812081318142815381820F931FBE
:100EA000A41FB51F80839183A283B383DF91CF9169
:100EB0001F910F9108958F929F92AF92BF92CF9200
:100EC000DF92EF92FF920F931F93CF93DF93EC018A
:100ED0004801C15ADF4F699379934883C156D04086
:100EE000DE01A259BF4F822F932FFC0120E030E09A
:100EF00050E00EC080818C93818111968C93119764
:100F0000828112968C9312972F5F3F4F13963396E0
:100F1000241735077CF38E010E591F4FD8011C9200
:100F20000E94631ACD59DF4F688379838A839B833C
:100F3000C356D040D801EC91F0E0EE0FFF1FEE0F4A
:100F4000FF1FEC0FFD1FEE56FF4F208131814281C4
:100F50005381260F371F481F591FC959DF4F288358
:100F600039834A835B83C756D0406D897E898F89D8
:100F7000988D0E94E5245B016C01698D7A8D8B8DC3
:100F80009C8D0E94E5247B018C0169897A898B897B
:100F90009C890E94E524C559DF4F68832196A99258
:100FA000E882CB5ADF4F99828882DF91CF911F91DF
:100FB0000F91FF90EF90DF90CF90BF90AF909F90F8
:100FC0008F9008959F92AF92BF92CF92DF92EF924F
:100FD000FF920F931F93CF93DF936C01942E5901CF
:100FE000EC01CE56DF4F20E030E050E0440F551FBB
:100FF000440F551F0DC0F801E20FF31F808191814E
:10100000A281B38189939993A993B9932C5F3F4FA0
:101010002417350781F7C601492D950187010E94E4
:101020005B07DF91CF911F910F91FF90EF90DF90C1
:10103000CF90BF90AF909F9008959F92AF92BF9234
:10104000CF92DF92EF92FF920F931F93CF93DF9394
:101050006C01942E5901EC01CE56DF4F20E030E0B8
:1010600050E0440F551F0DC0F801E20FF31F8081BF
:101070009181A0E0B0E089939993A993B9932E5FF1
:101080003F4F2417350781F7C601492D9501870188
:101090000E945B07DF91CF911F910F91FF90EF901E
:1010A000DF90CF90BF90AF909F9008959F92AF92A6
:1010B000BF92CF92DF92EF92FF920F931F93CF9345
:1010C000DF936C01942E5901EC01CE56DF4F20E0E6
:1010D00030E050E00DC0F801E20FF31F808190E096
:1010E000A0E0B0E089939993A993B9932F5F3F4F04
:1010F0002417350784F3C601492D950187010E9405
:101100005B07DF91CF911F910F91FF90EF90DF90E0
:10111000CF90BF90AF909F9008955F926F927F9213
:101120008F929F92AF92BF92CF92DF92EF92FF92F7
:101130000F931F93DF93CF93CDB7DEB76C017B0185
:10114000722EADB6BEB66DB65EB6440F4F5F4D3073
:1011500008F05EC0642F70E0CB01880F991F860FE6
:10116000971F2DB73EB7281B390B0FB6F8943EBF1B
:101170000FBE2DBF8DB79EB70196582FA92F982E61
:10118000892EFC0180E090E09B012F5F3F4F04C05F
:101190001082118212823396019682179307C1F74B
:1011A0008DB79EB7861B970B0FB6F8949EBF0FBEE8
:1011B0008DBF0DB71EB70F5F1F4F852F9A2F9C0154
:1011C000D90120E030E014C020FF0BC0F70180817E
:1011D0008C93818111968C931197828112968C93B6
:1011E0001297F801E20FF31F70822F5F3F4F1396A3
:1011F000261737074CF3C60161E070E0292D382D22
:10120000A2E0EA2EF12C0E945608862D952D02C0F0
:101210008DB79EB70FB6F8949EBF0FBE8DBF0FB6A9
:10122000F894BEBE0FBEADBECF91DF911F910F915E
:10123000FF90EF90DF90CF90BF90AF909F908F90F6
:101240007F906F905F9008950F931F938C01FC0126
:1012500060A971A982A993A90E94E0249B01AC0115
:10126000F80187A5B9010E94581B1F910F9108959D
:101270000F931F938C0170E080E090E00E94112595
:10128000F80164AB75AB86AB97AB60AB71AB82AB6F
:1012900093ABC8010E9424091F910F9108952F92CA
:1012A0003F924F925F926F927F928F929F92AF92F6
:1012B000BF92CF92DF92EF92FF920F931F93CF9343
:1012C000DF93EC01ECA8FDA80EA91FA928A839A856
:1012D0004AA85BA8C801B701A20191010E94742429
:1012E000882309F441C0C801B701A20191010E94FD
:1012F0000F247B018C0120E030E040E050E00E94B0
:10130000742487FD02C061E001C06FEF772767FD9D
:101310007095872F972F0E9413253B014C01A8AC95
:10132000B9ACCAACDBACC801B701A40193010E94FF
:10133000C725A60195010E94742487FD08C0C60137
:10134000B501A40193010E94C7257B018C01C20154
:10135000B101A80197010E94102468AB79AB8AAB58
:101360009BABCE010E942409DF91CF911F910F9179
:10137000FF90EF90DF90CF90BF90AF909F908F90B5
:101380007F906F905F904F903F902F9008950F93B4
:101390001F938C01FC01618972898389948922EEF3
:1013A00031EE41E65FE30E94C7250E94E5249B01E0
:1013B000AC01F8018685622F70E00E94581BF8018D
:1013C000658976898789908D22EE31EE41E65FE36B
:1013D0000E94C7250E94E5249B01AC01F801878586
:1013E000622F70E00E94581BF801618D728D838D11
:1013F000948D22EE31EE41E65FE30E94C7250E9404
:10140000E5249B01AC01F8018089622F70E00E9405
:10141000581B1F910F9108958F929F92AF92BF9288
:10142000CF92DF92EF92FF920F931F934C01FB013B
:101430006081DC015D966C935D97E1805E96EC9235
:101440005E97A2805F96AC9270E080E090E00E9490
:101450001125F401618B728B838B948BFF2400E048
:1014600010E0C801B7010E941125D40155966D9373
:101470007D938D939C935897BB24CC24DD24C60187
:10148000B5010E941125F401618F728F838F948FB3
:10149000C4010E94C7091F910F91FF90EF90DF9048
:1014A000CF90BF90AF909F908F900895AF92BF92D2
:1014B000CF92DF92EF92FF920F931F93CF93DF9320
:1014C000EC01FC01EE59FF4F80818F5F8083CF5983
:1014D000DF4F2881C156D040821700F1CE53DF4F35
:1014E00088819981C25CD040892B11F4108216C08A
:1014F000C15ADF4F19821882CF55D040822F90E019
:101500000197BC01660F771F680F791F62597F4FE3
:101510006C0F7D1FCE010E940C0A46C0CD59DF4FD3
:10152000488359836A837B83C356D040BE0169597F
:101530007F4FCE59DF4FE881C256D040F0E0EE0F2A
:10154000FF1FEE0FFF1FEC0FFD1FEE56FF4F8081B8
:101550009181A281B381FB0120813181428153813C
:10156000820F931FA41FB51F80839183A283B3832F
:101570006D897E898F89988D0E94E5245B016C01BD
:10158000698D7A8D8B8D9C8D0E94E5247B018C0169
:1015900069897A898B899C890E94E524C559DF4F26
:1015A00068832196A992E882DF91CF911F910F91D4
:1015B000FF90EF90DF90CF90BF90AF900895FC0127
:1015C000E959FF4F4083518362837383E756F040AC
:1015D000CF010E94560A08958F929F92AF92BF92B8
:1015E000CF92DF92EF92FF920F931F93CF93DF93EF
:1015F0005C017A018B0122E9C22ED12CC80ED91EC2
:10160000C0E0D0E091E6892E912C8A0C9B1C14C07E
:10161000F6016081718182819381A80197010E9406
:101620004926F60121933193419351936F01EE0CBA
:10163000FF1C001F111F2196F401808190E0C81744
:10164000D90734F30E94631AAB01BC01C5010E94A3
:10165000DF0ADF91CF911F910F91FF90EF90DF9004
:10166000CF90BF90AF909F908F9008952F923F9210
:101670004F925F926F927F928F929F92AF92BF92A2
:10168000CF92DF92EF92FF920F931F93DF93CF934E
:1016900000D00F92CDB7DEB73C010E94631A7B01E8
:1016A0008C0127E630E0620E731EF3018081918188
:1016B000A281B38129E93FEF620E731E8E159F054B
:1016C000A007B10798F4C301B801A7010E94560A08
:1016D0008FE590E0680E791EF3018081918121EA07
:1016E0003FEF620E731E892B09F4D8C083E690E0A9
:1016F000680E791EF30121903190419051903F0185
:10170000608171818281938129E93FEF620E731EAE
:1017100062197309840995090E9411255B016C0106
:1017200020E030E040E050E00E947424882359F427
:101730000F2EF0E02F2EF0E03F2EF0E84F2EFFE3CB
:101740005F2EF02D0EC0E218F30804091509C80138
:10175000B7010E941125A60195010E9478241B0162
:101760002C0182E690E0680E791EF301008110E002
:1017700029E030E0620E731EF301E08025E93FEFBF
:10178000620E731EFF24B701882777FD8095982F7E
:101790000E9413254B015C016801CC0CDD1CC00EBE
:1017A000D11EC60CD71C8EE690E0C80ED91EF601DD
:1017B00061916F0170E06E197F09882777FD809530
:1017C000982F0E9413259B01AC01C201B1010E9418
:1017D000C7259B01AC01C501B4010E9410240E94E1
:1017E000E52469832CE630E0620E731EF30101915B
:1017F0003F0110E0B801882777FD8095982F0E945F
:1018000013254B015C01F60161916F0170E0601BD3
:10181000710B882777FD8095982F0E9413259B01D7
:10182000AC01C201B1010E94C7259B01AC01C501F9
:10183000B4010E9410240E94E5246A83F301008110
:1018400023E93FEF620E731E10E0B801882777FD91
:101850008095982F0E9413254B015C01F601608151
:1018600070E0601B710B882777FD8095982F0E9490
:1018700013259B01AC01C201B1010E94C7259B0148
:10188000AC01C501B4010E9410240E94E5246B83C1
:10189000C301BE016F5F7F4F0E940C0A0F900F9033
:1018A0000F90CF91DF911F910F91FF90EF90DF90FC
:1018B000CF90BF90AF909F908F907F906F905F90F0
:1018C0004F903F902F9008950F931F93DF93CF93E6
:1018D00000D00F92CDB7DEB79C018C01015A1F4F8B
:1018E000F80180819181029741F4C90144E650E0FA
:1018F00060E070E00E94EC0A0CC019821A821B8220
:10190000C901BE016F5F7F4F0E940C0AF80111826E
:1019100010820F900F900F90CF91DF911F910F9138
:1019200008952F923F924F925F926F927F928F9283
:101930009F92AF92BF92CF92DF92EF92FF920F935E
:101940001F93CF93DF93EC01C15ADF4F88819981B8
:10195000CF55D040892B19F0CE010E94360B2BA019
:101960003CA04DA05EA06D8D70E0882777FD80952E
:10197000982F0E9413257B018C0169887A888B88B7
:101980009C88A40193010E9474248823D1F1C8018A
:10199000B701A40193010E940F247B018C0120E078
:1019A00030E040E050E00E94742487FD02C061E016
:1019B00001C06FEF772767FD7095872F972F0E94E3
:1019C00013255B016C01C801B701A60195010E94B6
:1019D000C725A20191010E94742487FD08C0C2019D
:1019E000B101A60195010E94C7257B018C01C401AC
:1019F000B301A80197010E941024698B7A8B8B8B0D
:101A00009C8B2FA038A449A45AA46E8D70E088271F
:101A100077FD8095982F0E9413257B018C016D889E
:101A20007E888F88988CA40193010E947424882357
:101A3000D1F1C801B701A40193010E940F247B01D9
:101A40008C0120E030E040E050E00E94742487FDEB
:101A500002C061E001C06FEF772767FD7095872FA7
:101A6000972F0E9413255B016C01C801B701A601E5
:101A700095010E94C725A20191010E94742487FD4F
:101A800008C0C201B101A60195010E94C7257B01D2
:101A90008C01C401B301A80197010E9410246D8B31
:101AA0007E8B8F8B988F2BA43CA44DA45EA46F8D4E
:101AB00070E0882777FD8095982F0E9413257B0181
:101AC0008C01698C7A8C8B8C9C8CA40193010E9474
:101AD00074248823D1F1C801B701A40193010E94A5
:101AE0000F247B018C0120E030E040E050E00E94B8
:101AF000742487FD02C061E001C06FEF772767FDA6
:101B00007095872F972F0E9413255B016C01C801E8
:101B1000B701A60195010E94C725A20191010E946B
:101B2000742487FD08C0C201B101A60195010E947D
:101B3000C7257B018C01C401B301A80197010E9454
:101B40001024698F7A8F8B8F9C8FCE010E94C709DA
:101B5000DF91CF911F910F91FF90EF90DF90CF9089
:101B6000BF90AF909F908F907F906F905F904F90BD
:101B70003F902F9008958F929F92AF92BF92CF92F5
:101B8000DF92EF92FF920F931F93DF93CF9300D0DA
:101B90000F92CDB7DEB78C015B01FC0187AD8823C6
:101BA00009F4B2C00E94631AEBE58E2E912C800ED0
:101BB000911EF401208131814281538162177307A4
:101BC0008407950708F4A0C0B0C0025B1F4FF8015E
:101BD000808191810E54104062E5E62EF12CE00EDA
:101BE000F11EA816B90608F449C00E94631AF7014D
:101BF00060837183828393830E94631A0A5A1F4F02
:101C0000F8012081318142815381065510402854CA
:101C1000344F4F4F5F4F261737074807590708F0D3
:101C200073C0F60110820E94631A64527A4F8F4F7C
:101C30009F4FF40160837183828393830B5B1F4FFB
:101C4000F8016083718382839383055410408FEF82
:101C500089831A821B82C801BE016F5F7F4F43E0F8
:101C600028EC0E948D08C8016FEF0E94380984E8B3
:101C700097E060E071E00E94321F46C00E94631A44
:101C8000F701208131814281538128533F4F4F4FCB
:101C90005F4F33C0025B1F4FF801808191810E546A
:101CA000104052E5E52EF12CE00EF11EA816B90603
:101CB000C8F02F5FF60120830E94631A9B01AC01DC
:101CC000F7016083718382839383F601808188307A
:101CD000D9F40A5A1F4FF80120833183428353837A
:101CE00081E013C00E94631AF70120813181428193
:101CF00053812C503E4F4F4F5F4F261737074807F1
:101D0000590710F4F601108280E00F900F900F90A9
:101D1000CF91DF911F910F91FF90EF90DF90CF90C7
:101D2000BF90AF909F908F9008954AE5C42ED12C1C
:101D3000C00ED11EF6012081283009F0ABCF45CF6F
:101D4000CF92DF92EF92FF920F931F93DF93CF9387
:101D500000D00F92CDB7DEB78C016B010E94631AE1
:101D60000B5B1F4FF8012081318142815381055463
:101D70001040621773078407950708F439C1F8010A
:101D800086AD882309F040C00E94631A0F5B1F4F85
:101D9000F80120813181428153810154104026177E
:101DA00037074807590780F5F801E05CFF4F80814D
:101DB00091E089278083882311F46FEF01C060E0F0
:101DC000C8010E9438090F5B1F4FF8012081318143
:101DD0004281538182918F0100541040882319F46D
:101DE00088EB9BE002C084E690E00F5B1F4FA0E011
:101DF000B0E0820F931FA41FB51FF8018083918369
:101E0000A283B38301541040065A1F4FF80180810A
:101E10000A551040882309F0EBC0005B1F4FF80102
:101E200080819181005510408C159D0528F4960104
:101E3000281B390BC90102C08C199D09A0E0B0E034
:101E4000F801E75BFF4F9801265B3F4F8897A1059C
:101E5000B1051CF580818F5F8083F901408151813C
:101E6000C6016C2D892F4C155D0518F4CA01642F2D
:101E7000892FF90160838183F801E45BFF4F2081A2
:101E80003181C6014C2D892FC216D30618F4C90121
:101E9000422F892F4083818314C01082045B1F4F1F
:101EA000F801D182C0820C541040F901D182C08265
:101EB0008091390690913A06019690933A06809364
:101EC0003906A801475B5F4FFA0180818D3708F41E
:101ED0008AC0D801A45BBF4F2D913C9111978AE431
:101EE000E82EF12CE00EF11EF70160817181C9012D
:101EF000861B970B889730F0FA011082CD92DC9206
:101F0000F70174C07B01E20EF31EF694E794F1E250
:101F1000EF16F3E0FF0670F18FEF89831A821B82C0
:101F2000C801BE016F5F7F4F43E028EC0E948D081F
:101F3000C8016FEF0E943809F80117AE84E897E0F6
:101F40006EE271E00E942F1F84E897E0B7014AE03B
:101F500050E00E94EF1E84E897E064E771E00E9481
:101F60002F1F84E897E060E273E04AE050E00E94AF
:101F7000001F2CC0F80187AD882351F4B801605EC2
:101F80007F4FC8012DEC3CEC4CEC5DE30E949E05BC
:101F900081E0F80187AF86AF025B1F4FB70180E099
:101FA00090E00E94112520E030E040E05FE30E94D5
:101FB000C72520E030E041EE53E40E9410240E9447
:101FC000E524F801718360830E541040075B1F4FB6
:101FD000F801119281E094E0819391938F01118235
:101FE00010820C541040005B1F4FF801D182C08258
:101FF0000F900F900F90CF91DF911F910F91FF9055
:10200000EF90DF90CF9008950F931F93CF93DF93BE
:10201000EC018DAD0E94201B182F092FCE01612FDE
:10202000702F0E94A00ECE01612F702F0E94BB0D59
:10203000882341F184E897E061E871E00E942F1F56
:10204000C15ADF4F88819981CF55D040892B29F023
:1020500084E897E069E971E004C084E897E069EA00
:1020600071E00E94321FC15ADF4F88819981CF559C
:10207000D040892B21F0CE010E94640C03C0CE0118
:102080000E94A506DF91CF911F910F910895AF9205
:10209000BF92CF92DF92EF92FF920F931F93CF9355
:1020A000DF935C010E94631ACC24DD248AC0D8012E
:1020B00012968C9161E00E94FD1BF801828161E023
:1020C0000E948A1CD80113968C910E94201BEC015F
:1020D000F801828160E00E94FD1B80913D06909195
:1020E0003E06C817D90708F470C080913F0690914A
:1020F00040068C179D0708F468C0CBE3D6E00CC0FF
:102100008091A1069091A2068C179D0718F0CDE949
:10211000D6E002C0C0E0D0E0D80114968D919C9129
:102120001597C817D90749F081E016968C93169732
:102130001596DC93CE93149733C0F80186818830CE
:10214000B8F0883069F52097B1F0E881F981019005
:10215000F081E02DCE01D80113966C911397129661
:102160004C9109958823E1F0F801D183C0838681E1
:102170008F5F868315C0D80112968C9160E00E9413
:10218000FD1BF801828160E00E948A1CD801119633
:102190001C921E9216968C9116978F5F16968C93B2
:1021A0000894E11CF11C095F1F4FB2E0EB16F1042B
:1021B00009F07DCF0894C11CD11CE9E0CE16D104F2
:1021C00069F08501EE24FF2472CF80919F069091E3
:1021D000A006C817D90708F49DCF92CFDF91CF9101
:1021E0001F910F91FF90EF90DF90CF90BF90AF9035
:1021F00008950F931F93DF93CF9300D00F92CDB725
:10220000DEB78C01FC01828160E00E94FD1BF801B9
:10221000828160E00E948A1CF801818560E00E9452
:10222000FD1BF801818560E00E948A1CF80186850B
:1022300061E00E94FD1BF801878561E00E94FD1BA3
:10224000F801808961E00E94FD1BF80161897289B3
:10225000838994890E94E0249B01AC01F801868562
:10226000B9010E94581BF801658976898789908D8C
:102270000E94E0249B01AC01F8018785B9010E940E
:10228000581BF801618D728D838D948D0E94E0241E
:102290009B01AC01F8018089B9010E94581BF8012B
:1022A00087A561E00E94FD1BF80160A971A982A9C0
:1022B00093A90E94E0249B01AC01F80187A5B90114
:1022C0000E94581BB801605E7F4FC801CC960E94E7
:1022D0006D14C8010E94471019821A821B82C8011E
:1022E000BE016F5F7F4F0E940C0AC8016FEF0E9412
:1022F00038090F900F900F90CF91DF911F910F91A0
:102300000895CF92DF92EF92FF921F93DF93CF93C6
:1023100000D00F92CDB7DEB77C0180E090E0A0E066
:10232000B0E0F701818B928BA38BB48B858B968B5E
:10233000A78BB08F818F928FA38FB48F158E168E3F
:10234000178E10A211A212A283A394A3A5A3B6A3D1
:1023500087A390A7A1A7B2A783A794A7A5A7B6A76D
:102360008BE690E0E80EF91ED7011D92FD01119257
:102370007F01108283E99FEFE80EF91E9EE6C92EC9
:10238000D12CCE0CDF1CF60180E090E0108211828F
:1023900012820396339684329105C1F7D7011196C4
:1023A0001C921E9287E012968C93129711E013965E
:1023B0001C93139715961C921E92149716961C92B6
:1023C000169718961C921E92179788E019968C9370
:1023D000199782E01A968C931A971C961C921E925B
:1023E0001B971D961C921D9785E01E968C931E9739
:1023F00086E01F968C931F9789E050968C93509798
:1024000090961C92909791961C92919792961C92FE
:1024100080E090E0A0E0B0E0F70183A394A3A5A33F
:10242000B6A387A390A7A1A7B2A783A794A7A5A7A0
:10243000B6A719821A821B82C701BE016F5F7F4F48
:102440000E940C0A8BE0D7019F968C93C7016EEF18
:102450000E943809F70115AE16AE17AE80E490E081
:10246000E80EF91ED7011D937D0188EB9BE0A0E0EB
:10247000B0E0F70181939193A193B193DF011D9295
:102480001D921D921D92FD01119281E094E0DF01E9
:102490008D939D93FD0111921192DF011D921D926A
:1024A000FD0111921192DF011D921D921D921D924C
:1024B000FD011192119211921192DF011D92FD0105
:1024C0001192119211921192DF011D921D92FD0144
:1024D0001192DF011D92FD01119211921192119240
:1024E000DF011D921D921D921D92FD011192DF01CF
:1024F0001D927D011C92E3E9FFEFEE0EFF1E84E2C8
:10250000D6011D928A95E9F7C7018E569F4FFC01AF
:1025100080E3DF011D928A95E9F7E2ECF0E0EE0E30
:10252000FF1E82E090E0D7018D939C930F900F9057
:102530000F90CF91DF911F91FF90EF90DF90CF90A0
:10254000089585E795E00E9481110895FC0184EFCC
:1025500093E09383828387EF93E0958384838AE774
:1025600094E091838083DF011D9680E090E01C92CF
:1025700011961C92119712961C921297039613961D
:1025800084329105A1F71682178210861186138670
:1025900012861486EF59FF4F108208958BE396E060
:1025A0000E94A6120895EF92FF920F931F93CF936C
:1025B000DF93EC0184E897E06CEB71E00E94321F3E
:1025C0008091D4059091D505029791F09E01235FEB
:1025D0003F4F8E010F5C1F4F85E795E062E070E092
:1025E000CF59DF4F488152E0E52EF12C0E94E207DF
:1025F000DF91CF911F910F91FF90EF900895CF93AE
:10260000DF93EC01693C710518F58A859B85893C4F
:10261000910558F00E94631A66507F4F8F4F9F4F6D
:102620006E837F838887998721C08C858823F1F00A
:102630000E94631A2E813F814885598526173707E6
:102640004807590798F4CE010E94D3121C860EC089
:102650008C85882359F46059714040F081E08C8763
:1026600084E897E060EF71E00E94321FDF91CF9124
:1026700008950F931F93CF93DF93EC01162F609172
:10268000A9057091AA058091AB059091AC0520E059
:1026900030E04FE753E40E94742487FD0CC0812F83
:1026A0000E94201B182F092FCE01612F702F0E942E
:1026B000FF121A870B87DF91CF911F910F91089519
:1026C0001F93BC01142FAC01435F5F4F9C012F5C33
:1026D0003F4F81EB95E06F597F4F0E948A1388230B
:1026E00041F484E897E067E272E00E94321F80E0E4
:1026F0000FC0812F60E00E94FD1B812F60E00E94CF
:102700008A1C84E897E06BE872E00E94321F81E047
:102710001F9108958F929F92AF92BF92CF92DF92B6
:10272000EF92FF920F931F93CF93DF934B01042FF0
:10273000F52EB22EA32E84E795E06EE070E00E94A5
:102740007505182F84E795E06FE070E00E9475052D
:10275000312F20E0C82EDD24C22AD32A84E795E059
:10276000B6010E947505282F87E0289FC00111241B
:102770008C0D9D1D8050944008F0A1C02D3008F0B4
:102780009EC0F4012083802F9F2D9C018901E601CA
:10279000EE24FF241EC0BE016250704084E795E025
:1027A0000E947505F8018083BE016150704084E786
:1027B00095E00E947505F801818384E795E0BE01EC
:1027C0000E947505F80182830894E11CF11C0D5FDD
:1027D0001F4FF4018081282F30E02396E216F30684
:1027E000D4F2E6012196C901880F991F820F931F29
:1027F000C80FD91F2B2D3A2DC9016C01AA24BB2467
:1028000055C084E795E0BE010E947505E82EFF24BF
:1028100000E010E0F601E082F1820283138321964A
:1028200084E795E0BE010E947505102F0F2DFE2C48
:10283000EE2490E0A0E0B0E0E82AF92A0A2B1B2B56
:10284000F601E082F18202831383219684E795E00A
:10285000BE010E947505102F0F2DFE2CEE2490E076
:10286000A0E0B0E0E82AF92A0A2B1B2BF601E0824F
:10287000F18202831383219684E795E0BE010E94D2
:102880007505102F0F2DFE2CEE2490E0A0E0B0E097
:10289000E82AF92A0A2B1B2BF601E192F192019307
:1028A00011936F010894A11CB11C2196F401808141
:1028B00090E0A816B9060CF4A4CF81E001C080E036
:1028C000DF91CF911F910F91FF90EF90DF90CF900C
:1028D000BF90AF909F908F900895CF92DF92EF922C
:1028E000FF920F931F937B0104E715E0C80167E097
:1028F00070E00E947505C82EC80168E070E00E9473
:102900007505D82EC80169E070E00E947505F701D1
:10291000C082D18282831F910F91FF90EF90DF9050
:10292000CF9008956F927F928F929F92AF92BF92B5
:10293000CF92DF92EF92FF920F931F938C0184E866
:1029400097E063EE72E00E94321F085B1F4F809198
:10295000D705F80180831092D5051092D405E09038
:102960008605F09087050091880510918905A09053
:102970008A05B0908B05C0908C05D0908D05609035
:102980008E0570908F058090900590909105C801FC
:10299000B701A60195010E941024A40193010E9491
:1029A000102420E030E040E251E40E94C3251816D4
:1029B00094F4C801B7010E94E52460939505C6010F
:1029C000B5010E94E52460939605C401B3010E94FD
:1029D000E524609397051F910F91FF90EF90DF9092
:1029E000CF90BF90AF909F908F907F906F90089501
:1029F000AF92BF92CF92DF92EF92FF920F931F930D
:102A00006C0184E897E065E173E00E94321F95E76E
:102A1000A92E95E0B92EC50163E070E047E022E2FF
:102A200037E00EE714E0EE24FF240E941D0888E43E
:102A300090E0C80ED91EC501F60160810E941D07F5
:102A40001F910F91FF90EF90DF90CF90BF90AF90CC
:102A500008959F92AF92BF92CF92DF92EF92FF9232
:102A60000F931F93CF93DF93EC0184E897E067E423
:102A700073E00E94321F63E070E080E090E026E0A7
:102A800030E040E050E00E94AE22962E990CAA243D
:102A900083C0CA2CDD246CE370E080E090E024E683
:102AA00030E040E050E00E94AE22F62E68EC70E08C
:102AB00080E090E02FEF30E040E050E00E94AE2256
:102AC0008601000F111FF801EC0DFD1DEC0FFD1F1D
:102AD000E75BFF4FF1921192608364E670E080E063
:102AE00090E028EC30E040E050E00E94AE220C0F75
:102AF0001D1F03591F4FF801718360830894C11C87
:102B0000D11C6AE070E080E090E028E230E040E034
:102B100050E00E94AE22B62E6DE270E080E090E0C0
:102B20002FE330E040E050E00E94AE227601EE0C50
:102B3000FF1C87010C0D1D1D0C0F1D1F29E4C22E4B
:102B4000D12CC00ED11EF601208130E040E050E0D3
:102B50000E942A262AE030E040E050E00E946B26E6
:102B6000F601B082065B1F4FF8011192208362E3E9
:102B700070E080E090E024E630E040E050E00E9429
:102B8000AE22EC0EFD1E2DE630E0E20EF31EF70144
:102B900071836083F2E0AF0EA91408F47ACF60E08D
:102BA00070E080E090E022E030E040E050E00E9401
:102BB000AE22660F771F881F991F960E83C0CA2CFE
:102BC000DD2464EB70E080E090E02FEF30E040E047
:102BD00050E00E94AE22F62E60E570E080E090E0CA
:102BE00022E830E040E050E00E94AE228601000F73
:102BF000111FF801EC0DFD1DEC0FFD1FE75BFF4FF2
:102C0000F192619310826CE271E080E090E02EE539
:102C100031E040E050E00E94AE220C0F1D1F03592E
:102C20001F4FF801718360830894C11CD11C6AE0B6
:102C300070E080E090E028E230E040E050E00E9468
:102C4000AE22B62E6DE270E080E090E02FE330E03F
:102C500040E050E00E94AE227601EE0CFF1C87019E
:102C60000C0D1D1D0C0F1D1FE9E4CE2ED12CC00E26
:102C7000D11EF601208130E040E050E00E942A267B
:102C80002AE030E040E050E00E946B26F601B0827E
:102C9000065B1F4FF8011192208366E970E080E027
:102CA00090E028EC30E040E050E00E94AE22EC0ED4
:102CB000FD1E2DE630E0E20EF31EF7017183608306
:102CC000F2E0AF0EA91408F47ACF2BE0291508F032
:102CD0009394892D90E001978C01000F111FF8014A
:102CE000E80FF91FEC0FFD1FE75BFF4F11921192E8
:102CF000108266E970E080E090E028EC30E040E08F
:102D000050E00E94AE220C0F1D1F03591F4FF80107
:102D1000718360838E0103591F4F85E795E064E05E
:102D200070E0492DC75BDF4F9E0152E0E52EF12C8C
:102D30000E941D08DF91CF911F910F91FF90EF909E
:102D4000DF90CF90BF90AF909F900895EF92FF9249
:102D50000F931F93CF93DF938C01EC01CD5BDF4F7B
:102D600088818F5F888354E4E52EF12CE00EF11EFC
:102D7000813041F40E94631AF7016083718382837A
:102D8000938331C00E94631AF7012081318142810F
:102D900053812C53364F4F4F5F4F62177307840791
:102DA000950700F58881843048F0C8010E942915F4
:102DB000F701108211821282138215C084E897E015
:102DC00065E573E00E942F1F84E897E068814AE080
:102DD00050E00E941D1F84E897E06AE773E00E94BC
:102DE000321F01C01882DF91CF911F910F91FF9088
:102DF000EF900895CF93DF93EC01842F0E94BD1CC8
:102E0000892B09F047C0CE0106960E94F718209141
:102E1000D4053091D5059F7024303105B1F1892B4F
:102E2000D1F00E94631AAB01BC0184E897E02AE06C
:102E300030E00E94E01E84E897E065E873E00E94BD
:102E40002F1F84E897E067E873E00E94321FCE01ED
:102E50000E94F8141FC00E94631AAB01BC0184E8F1
:102E600097E02AE030E00E94E01E84E897E065E801
:102E700073E00E942F1F84E897E06DEA73E00E94E0
:102E8000321FCE010E94921402C0892B19F4CE0188
:102E90000E94A616DF91CF9108951F93CF93DF93E1
:102EA000142FEC012696CE010E942F19882341F49D
:102EB00084E897E065ED73E00E94321F80E013C064
:102EC000CE0161E00E944D19812F60E00E94FD1B40
:102ED000812F60E00E948A1C84E897E068E274E039
:102EE0000E94321F81E0DF91CF911F9108950F93CF
:102EF0001F938C0189EE93E0F801938382838FEE18
:102F000093E09583848380E994E091838083C80172
:102F100006966AE50E94E9180D5B1F4FF8011192B1
:102F20001192119211921192119280E090E0108210
:102F3000118212820396339684329105C1F71F9154
:102F40000F9108958DE996E00E947717E2E2F7E08D
:102F50008FEF809322071092230710922407DF013E
:102F600013968093250711968C93119712961C92B5
:102F7000DF0116961092280711968C9311971296DE
:102F80001C92DF01199610922B0711968C931197C2
:102F900012968C93DF011C9610922E0711961C92AC
:102FA000119712968C93DF011F968093310711962B
:102FB0001C92119712968C9372968093340781839A
:102FC00082830895EF92FF920F931F93CF93DF9325
:102FD000582F162FE42E022FF32E8AEF94E0652F40
:102FE0000E9428028AEF94E0612F0E94AA02202FFB
:102FF0003F2DC901EC0110E006C08AEF94E0699111
:103000000E94AA021F5F1E15C0F38AEF94E00E947F
:10301000ED0290E0882309F491E0892FDF91CF91B0
:103020001F910F91FF90EF900895DF93CF930F9230
:10303000CDB7DEB7498341E09E012F5F3F4F0E942D
:10304000E2170F90CF91DF9108952F923F924F9208
:103050005F926F927F928F929F92AF92BF92CF9228
:10306000DF92EF92FF920F931F93DF93CF9300D0E5
:1030700000D000D0CDB7DEB7882E6983942E3B8375
:103080002A83EC820E94631A5B016C01FF24EE2408
:10309000292C33242801662477244CC08AEF94E03D
:1030A000682D0E9428028AEF94E069810E94AA029A
:1030B0008AEF94E06C810E94DA028AEF94E0682D36
:1030C0000E942802A1014E1951094132510514F004
:1030D00040E250E08AEF94E0682D0E94FE022F2D1E
:1030E000332727FD30958A819B81280F391F3E8326
:1030F0002D838AEF94E00E943202892B09F453C099
:103100000115110561F00E94631A6A197B098C0987
:103110009D09641575058605970508F044C08AEF7A
:1031200094E00E943B02ED81FE818193FE83ED835A
:10313000F394DFCFE91408F4B1CF01151105C9F0FC
:103140000E94631A6A197B098C099D09980140E065
:1031500050E0621773078407950758F02F2D332727
:1031600027FD3095892D90E02817390714F4FF24A6
:10317000FA948F2D26960FB6F894DEBF0FBECDBF02
:10318000CF91DF911F910F91FF90EF90DF90CF9043
:10319000BF90AF909F908F907F906F905F904F9077
:1031A0003F902F900895892DF0E2F91508F480E200
:1031B000E80EC0CFEF920F931F93FA01D901E02ED2
:1031C00041E09F018D010E9425181F910F91EF9002
:1031D0000895FC01608380E090E0128211821482E5
:1031E0001382019634968C309105B9F70895AF9209
:1031F000BF92CF92DF92EF92FF920F93DF93CF9324
:103200000F92CDB7DEB75C012091590430915A047A
:10321000FC01808160E06E010894C11CD11CA601F4
:1032200000E00E94DA18E980FF24209159043091CF
:103230005A04F501808161E0A6010E94DA18398103
:1032400020E02E0D3F1DC9010F90CF91DF910F910E
:10325000FF90EF90DF90CF90BF90AF9008950F93C5
:10326000DF93CF930F92CDB7DEB7FC011982209187
:10327000590430915A04808160E0AE014F5F5F4F86
:1032800000E00E94DA1890E0813009F491E0892F83
:103290000F90CF91DF910F9108951F93CF93DF93FC
:1032A000EC01162F88816BE241E00E94151888819D
:1032B0006CE241E00E94151888816DE240E00E94B6
:1032C000151888816EE240E00E94151888816FE22F
:1032D00041E00E941518888160E341E00E941518C2
:1032E000888161E34FEF0E941518888162E342E014
:1032F0000E941518888161E44FE00E9415188881AA
:1033000062E44AE00E941518888163E44FE00E945D
:103310001518888164E44AE00E941518888165E4E4
:103320004FE00E941518888166E44AE00E94151853
:10333000888167E44FE00E941518888168E44AE0BC
:103340000E941518888169E44FE00E941518888151
:103350006AE44AE00E94151888816BE44FE00E94FD
:10336000151888816CE44AE00E94151888816DE484
:103370004FE00E94151888816EE44AE00E941518FB
:1033800088816FE44FE00E941518888160E54AE06B
:103390000E941518888161E54FE00E941518888108
:1033A00062E54AE00E941518888163E54FE00E94BB
:1033B0001518888164E54AE00E941518888165E542
:1033C0004FE00E941518888166E54AE00E941518B2
:1033D000888167E54FE00E941518888168E54AE01A
:1033E0000E94151888816DE544E20E94151811238A
:1033F000A1F088816BE74BE00E94151888816DE78A
:103400004CE90E94151888816EE745E60E94151860
:1034100088816FE74CE80E94151888816EE54CE0C2
:103420000E94151888816BE542E70E941518DF910C
:10343000CF911F9108951F920F920FB60F921124F2
:103440002F933F938F939F93AF93BF9380913B07AD
:1034500090913C07A0913D07B0913E0730913F0706
:103460000196A11DB11D232F2D5F2D3720F02D5763
:103470000196A11DB11D20933F0780933B079093B8
:103480003C07A0933D07B0933E078091370790918A
:103490003807A0913907B0913A070196A11DB11DD7
:1034A0008093370790933807A0933907B0933A0772
:1034B000BF91AF919F918F913F912F910F900FBE30
:1034C0000F901F9018958FB7F89420913B0730917B
:1034D0003C0740913D0750913E078FBFB901CA019B
:1034E00008959B01AC017FB7F894809137079091C4
:1034F0003807A0913907B0913A0766B5A89B05C077
:103500006F3F19F00196A11DB11D7FBFBA2FA92FE2
:10351000982F8827860F911DA11DB11D62E0880F8D
:10352000991FAA1FBB1F6A95D1F7BC012DC0FFB719
:10353000F8948091370790913807A0913907B0919E
:103540003A07E6B5A89B05C0EF3F19F00196A11D0B
:10355000B11DFFBFBA2FA92F982F88278E0F911D5D
:10356000A11DB11DE2E0880F991FAA1FBB1FEA959C
:10357000D1F7861B970B885E9340C8F221503040EC
:103580004040504068517C4F21153105410551059F
:1035900071F60895789484B5826084BD84B58160A5
:1035A00084BD85B5826085BD85B5816085BDEEE64B
:1035B000F0E0808181608083E1E8F0E0108280812A
:1035C00082608083808181608083E0E8F0E0808198
:1035D00081608083E1E9F0E0808182608083808186
:1035E00081608083E0E9F0E0808181608083E1ECAC
:1035F000F0E080818460808380818260808380812C
:1036000081608083E3ECF0E0808181608083E0EC86
:10361000F0E0808182608083E2ECF0E08081816074
:103620008083EAE7F0E0808184608083808182602B
:103630008083808181608083808180688083089519
:10364000823108F08251E82FF0E0E05DFE4FE49116
:1036500020917B008E2F86958695869590E08170CF
:10366000907035E0880F991F3A95E1F72F7D282B50
:1036700020937B00E77080915B048295880F880F10
:10368000807C8E2B80937C0080917A008064809374
:103690007A0080917A0086FDFCCF209178004091DD
:1036A0007900942F80E030E0282B392BC901089550
:1036B0001F93CF93DF93182FEB0161E00E94FD1B56
:1036C000209709F48FC0CF3FD10509F48EC0E12FB8
:1036D000F0E0EE5EFE4F8491883009F440C08930FE
:1036E00070F4823019F1833020F4813009F077C012
:1036F00018C0833001F1843009F071C026C08B30CE
:1037000009F44BC08C3030F4893099F18A3009F0DB
:1037100066C039C08C3009F44DC08E3009F05FC0EE
:1037200051C084B5806884BDC7BD63C084B5806264
:1037300084BDC8BD5EC08091800080688093800099
:10374000D0938900C093880054C08091800080622B
:1037500080938000D0938B00C0938A004AC08091F0
:103760009000806880939000D0939900C093980057
:1037700040C080919000806280939000D0939B0025
:10378000C0939A0036C0809190008860809390002A
:10379000D0939D00C0939C002CC08091C000806895
:1037A0008093C0008091C0008F7B8093C000C09345
:1037B000CF001FC08091C00080628093C000C09382
:1037C000D00017C08091C20088608093C2008091B1
:1037D000C2008B7F8093C200C093D2000AC0C03861
:1037E000D1051CF4812F60E002C0812F61E00E94AE
:1037F0008A1CDF91CF911F910895CF93DF93482FBB
:1038000050E0CA018C509F4FFC0134914A525F4FE7
:10381000FA018491882369F190E0880F991FFC01D7
:10382000E455FF4FA591B491FC01E654FF4FC591BB
:10383000D491662351F42FB7F8948C91932F9095DF
:1038400089238C93888189230BC0623061F42FB760
:10385000F8948C91932F909589238C938881832B56
:1038600088832FBF06C09FB7F8948C91832B8C93CD
:103870009FBFDF91CF910895883071F1893068F44E
:10388000823031F1833020F4813009F042C01DC014
:10389000833089F08430E9F512C08B3059F18C30D7
:1038A00028F48930E9F08A30A1F51EC08C3031F15E
:1038B0008E3079F529C0809180008F7703C0809188
:1038C00080008F7D80938000089584B58F7702C03B
:1038D00084B58F7D84BD0895809190008F7707C057
:1038E000809190008F7D03C080919000877F8093AE
:1038F000900008958091C0008F7703C08091C00030
:103900008F7D8093C00008958091C200877F80934F
:10391000C2000895FF920F931F93F62E482F50E098
:10392000CA018E5E9E4FFC012491CA018C509F4FAC
:10393000FC0114914A525F4FFA0104910023C9F02F
:10394000222319F0822F0E943C1CE02FF0E0EE0FA2
:10395000FF1FE654FF4FA591B4919FB7F894FF2045
:1039600021F48C911095812302C08C91812B8C9332
:103970009FBF1F910F91FF9008950F931F93482FA2
:1039800050E0CA018E5E9E4FFC012491CA018C500A
:103990009F4FFC0104914A525F4FFA011491112389
:1039A00019F420E030E015C0222319F0822F0E9484
:1039B0003C1C812F90E0880F991F88539F4FFC017A
:1039C000A591B4918C9120E030E0802311F021E0AA
:1039D00030E0C9011F910F9108950895209180074B
:1039E000309181078091820790918307281B390BC2
:1039F0002F733070C901089520918007309181079D
:103A000080918207909183072817390719F42FEFC7
:103A10003FEF09C0E0918207F0918307E05CF84F27
:103A20008081282F30E0C9010895209180073091CE
:103A3000810780918207909183072817390719F42D
:103A40002FEF3FEF13C0E0918207F0918307E05C16
:103A5000F84F2081809182079091830701968F73A0
:103A60009070909383078093820730E0C901089596
:103A7000109287071092860788EE93E0A0E0B0E0EE
:103A80008093880790938907A0938A07B0938B0748
:103A900088E994E0909385078093840708950F93B5
:103AA0001F93DF93CF930F92CDB7DEB78C0169835D
:103AB00080916304882369F083E0BE016F5F7F4FCC
:103AC00041E050E00E9417201816190614F49C01DA
:103AD00007C081E090E0F8019383828320E030E02A
:103AE000C9010F90CF91DF911F910F91089583E04D
:103AF0000E94EE1F0895CF93DF9312C082E00E94D0
:103B0000791F2FEF8F3F9207C9F0E0918007F09166
:103B10008107E05CF84F8083D0938107C0938007D2
:103B2000C0918007D09181072196CF73D07080918A
:103B3000820790918307C817D90701F7DF91CF91CA
:103B40000895FC0180818E5F808380E86CE371E0E2
:103B500042E450E00E94921F0895FC01818190810F
:103B6000913A59F4813209F04CC080E06CE574E080
:103B700047E050E00E94921F42C0913209F041C0DC
:103B8000803239F48CE594E067E070E00E94D61F43
:103B900036C0823209F035C08281809363048091FF
:103BA0005C0490915D04A0915E04B0915F04805B21
:103BB0009440A040B04019F58091630480FD12C08C
:103BC00087E797E790930108809300082BE088E14E
:103BD00090E00FB6F894A895809360000FBE2093F4
:103BE00060000DC088E10FB6F894809360001092D9
:103BF00060000FBEA895109201081092000881E0A5
:103C0000089580E00895CF93DF930E94CA1A8AE94D
:103C100097E00E94F91F0E941902C0E0D0E00E94C4
:103C200004022097E1F30E940000F9CFCF92DF92C7
:103C3000EF92FF920F931F93CF93DF937C016B0161
:103C40008A01C0E0D0E00FC0D6016D916D01D701AF
:103C5000ED91FC910190F081E02DC7010995C80F0D
:103C6000D91F015010400115110571F7CE01DF91E8
:103C7000CF911F910F91FF90EF90DF90CF9008951B
:103C8000EF92FF920F931F938C01DC01ED91FC9159
:103C90000190F081E02D6DE009957C01D801ED9156
:103CA000FC910190F081E02DC8016AE009959C012A
:103CB0002E0D3F1DC9011F910F91FF90EF900895A8
:103CC000CF93DF93EC016115710519F420E030E02A
:103CD0000FC0DB010D900020E9F71197A61BB70B71
:103CE000E881F9810280F381E02DAD0109959C0105
:103CF000C901DF91CF9108954F925F927F928F9289
:103D00009F92AF92BF92CF92DF92EF92FF920F936A
:103D10001F93DF93CF93CDB7DEB7A1970FB6F8947B
:103D2000DEBF0FBECDBF2C01742ECB01223008F4B4
:103D30002AE019A231E2C32ED12CCC0EDD1E822E38
:103D40009924AA24BB24672D752FA50194010E94F4
:103D5000492679018A01C801B701A50194010E9491
:103D60002A26472D461B0894C108D1084A3014F46E
:103D7000405D01C0495CF6014083E114F104010596
:103D8000110521F07E2C5F2DC801DDCFC201B601E7
:103D90000E94601EA1960FB6F894DEBF0FBECDBF85
:103DA000CF91DF911F910F91FF90EF90DF90CF9017
:103DB000BF90AF909F908F907F905F904F900895AD
:103DC000DC012115310541F4ED91FC910190F08168
:103DD000E02D642F099508950E947C1E0895EF92AE
:103DE000FF920F931F939A017B0100E010E0B8014E
:103DF000A7010E94E01E1F910F91FF90EF90089580
:103E0000CF92DF92EF92FF920F931F936C017B0191
:103E10009A0100E010E0B801A7010E94E01E8C01A9
:103E2000C6010E94401E080F191FC8011F910F9163
:103E3000FF90EF90DF90CF900895EF92FF920F9355
:103E40001F939A01E62EFF2400E010E0B801A701BD
:103E50000E94E01E1F910F91FF90EF9008950E9425
:103E6000601E0895EF92FF920F931F937C010E94B2
:103E7000601E8C01C7010E94401E080F191FC80157
:103E80001F910F91FF90EF900895282F8091940734
:103E90008823C1F057FF1AC015C028989093930744
:103EA0008091F1008193E217F307B9F741155105AD
:103EB00039F08091F200882319F48BE68093E800B2
:103EC000AFBF02C04FEF5FEFCA010895AFB7F894DC
:103ED00027702093E9008091F200282F30E024170A
:103EE00035070CF4A901FB019B01240F311D94E659
:103EF000DACFDF93CF930F92CDB7DEB7BE016F5FFE
:103F00007F4F41E050E00E94451F019719F02FEFCD
:103F10003FEF03C08981282F30E0C9010F90CF9176
:103F2000DF910895FF920F931F93F82E142F052F02
:103F30004091970750919807212F302FC901DC013C
:103F4000FB016EEF29C0F7FE02C0949101C0908181
:103F5000209195073091960724173507ACF480918E
:103F6000E8008570E1F38091E80082FF03C02FEF45
:103F70003FEF17C09093F100C90101968F739070C5
:103F8000892B11F46093E8002F5F3F4F3093960721
:103F900020939507119731961097A9F6812F902FAE
:103FA0009C01C9011F910F91FF9008959C01809180
:103FB000E80082FFFCCFF901260F311D03C080917C
:103FC000F1008193E217F307D1F7289884E68093F4
:103FD00093078BEF8093E800CB0108958093E9006D
:103FE0008091F200882319F08AE38093E800089515
:103FF00008951092940781E08093D70080EA80931F
:10400000D80082E189BD09B400FEFDCF61E070E017
:1040100080E090E00E94711A80E98093D8008CE0E3
:104020008093E2001092E000559A209A08955F92E2
:104030006F927F928F929F92AF92BF92CF92DF92B8
:10404000EF92FF920F931F93CF93DF93E82E842E6E
:10405000752E80919407882371F18B01242F352FC1
:10406000C901EC017AEFF72E67E0962E9E2050E40E
:10407000552E8E2D90E040E2A42EB12CA822B9221C
:104080003AE3632E20E4C22ED12CC822D92258C094
:104090009FB7F8949092E9008091E80085FD02C0F6
:1040A00020E004C08091F200252D281B9FBF222311
:1040B00061F4FA9419F42FEF3FEF4DC061E070E026
:1040C00080E090E00E94711A3BC0822F90E0C817F8
:1040D000D9070CF42C2FC21BD1094FB7F89490923A
:1040E000E900A114B10421F406C01092F10021509E
:1040F0002223D9F719C0E7FC03C0F801922F10C0A2
:10410000C801322F06C0FC010196E491E093F10052
:1041100031503323C1F706C081918093F100915053
:104120009923D1F7020F111D8091E80085FF05C08A
:10413000209729F4C114D10411F06092E8004FBF18
:10414000209709F0A5CF5D9884E680939207282DEB
:10415000372DC9019C01C901DF91CF911F910F91AA
:10416000FF90EF90DF90CF90BF90AF909F908F9097
:104170007F906F905F9008951F920F920FB60F92ED
:1041800011242F933F934F935F936F937F938F935C
:104190009F93AF93BF93EF93FF938091E1001092B1
:1041A000E100982F83FF0FC01092E90081E0809317
:1041B000EB001092EC0082E38093ED0010929407E4
:1041C00088E08093F00092FF34C083E08093E900A0
:1041D0008091F200882319F08AE38093E8008FB77A
:1041E000F89492E09093E9009091F2008FBF9923A8
:1041F00021F084E897E00E947B1D8091920788233C
:1042000051F080919207815080939207809192079C
:10421000882309F45D9A80919307882351F0809157
:10422000930781508093930780919307882309F423
:10423000289AFF91EF91BF91AF919F918F917F91BC
:104240006F915F914F913F912F910F900FBE0F9003
:104250001F9018950F931F93DF93CF930F92CDB7B5
:10426000DEB719828E010F5F1F4FC8010E94A11D8A
:10427000C8010E940324898190E00F90CF91DF91C3
:104280001F910F9108951F920F920FB60F92112454
:10429000EF92FF921F932F933F934F935F936F93F0
:1042A0007F938F939F93AF93BF93EF93FF93DF938E
:1042B000CF93CDB7DEB76197DEBFCDBF1092E900D7
:1042C0008091E80083FF0FC1FE0131969E01275FB8
:1042D0003F4F03C08091F1008193E217F307D1F7BC
:1042E000289884E68093930782EF8093E800998171
:1042F00097FF05C08091E80080FFFCCF03C08EEFE0
:104300008093E800292F30E0C90180769070892BD6
:1043100009F0C2C08A81882329F41092F10010921A
:10432000F100D6C0813009F4D3C0833009F4D0C085
:10433000853049F48091E80080FFFCCF8B81806854
:104340008093E300C5C0863009F07CC01C81EF80FB
:10435000F8841230C1F51092E9001092960710927D
:10436000950710929807109297070E942A2199E0CA
:10437000FE013996DF01292F1D922A95E9F79987C9
:104380001A8791E09E8790E8988B9AEF998B2091FD
:10439000950730919607275F3F4F3C872B878D8786
:1043A0001092E9001092960710929507F0929807E4
:1043B000E092970780E0BF0149E050E00E94921F21
:1043C0000E942A2185C01092E9001092960710924F
:1043D0009507F0929807E0929707123241F482E233
:1043E00090E00E94FB23892B09F476C071C0113044
:1043F00079F488E0E816F10419F481E080939907D4
:1044000080919907882309F06BC0ECEBF1E013C0B1
:10441000133009F061C08B81882319F4EEE7F1E0D5
:104420000AC0823019F4E2E8F1E005C0813009F0F9
:1044300053C0E4EAF1E0449180E8BF0150E00E94FB
:10444000921F46C0873009F447C0883021F481E0CC
:104450008093F1003DC08930D9F523703070232B53
:10446000D9F5E1EEF1E091E031E026E39093E90047
:104470003093EB0084918093EC002093ED009F5FDC
:104480003196953099F78EE78093EA001092EA0012
:104490008B81809394071CC08F8198851092E900CE
:1044A000109296071092950790939807809397071C
:1044B0008D81882329F4CE0101960E94AD1D06C08E
:1044C000823051F4CE0101960E94CC22882321F043
:1044D0008EEF8093E80007C081E28093EB0003C079
:1044E000EEECF1E0A8CF6196DEBFCDBFCF91DF91BA
:1044F000FF91EF91BF91AF919F918F917F916F91BC
:104500005F914F913F912F911F91FF90EF900F90EE
:104510000FBE0F901F901895EF92FF920F931F936D
:104520007B018C01611571058105910529F420E05D
:1045300030E040E050E00BC00E94F601A801970176
:104540000E946B26AC01CB01DA019C01AD01B901DF
:10455000CA011F910F91FF90EF900895EF92FF9283
:104560000F931F937B018C016217730784079507D4
:1045700064F4261B370B480B590BCA01B9010E9482
:104580008C22E60EF71E081F191FB701C8011F91E4
:104590000F91FF90EF900895FC0191818081813A05
:1045A00031F4913089F080E0933089F40DC081328C
:1045B00069F49B3021F482818093640405C09A30B1
:1045C00029F482818093650481E0089580E0089554
:1045D000EF92FF920F931F938C01E62EDC01ED9179
:1045E000FC910480F581E02D0995F82ED801ED911C
:1045F000FC910680F781E02DC8016E2D09958F2D65
:1046000090E01F910F91FF90EF90089510929B07FB
:1046100010929F0710929E078AEA94E090939D075C
:1046200080939C070895EF92FF920F931F93DF935F
:10463000CF930F92CDB7DEB789838B017A0184E0E7
:10464000BE016F5F7F4F41E050E00E94172084E47D
:10465000B801A7010E9417200F90CF91DF911F9101
:104660000F91FF90EF90089582E048E050E00E94A3
:1046700013230895FC011682178210861186128674
:10468000138614823496BF010E9434230895DC01FE
:10469000683810F0685829C0E62FF0E067FF13C0B3
:1046A000E058F04081E090E002C0880F991FEA9541
:1046B000E2F7809514962C911497282314962C9346
:1046C000149760E012C0ED59FD4F6491662319F410
:1046D00020E030E01DC067FF08C014968C9114974D
:1046E0008D7F14968C9314976F77FD0190E066236D
:1046F00021F08681861709F416829F5F31969630E5
:10470000B1F7CD011496BD010E94342321E030E0C1
:10471000C9010895CF93DF93DC01683810F0685821
:1047200025C0E62FF0E067FF12C0E058F04081E0BE
:1047300090E002C0880F991FEA95E2F714962C9139
:104740001497282B14962C93149760E00FC0ED5902
:10475000FD4F64916623D9F167FF08C014968C91D0
:104760001497826014968C9314976F7716968C9199
:1047700016978617A9F117968C911797861781F1CE
:1047800018968C911897861759F119968C9119974C
:10479000861731F11A968C911A97861709F11B9694
:1047A0008C911B978617E1F0ED01E0E0F0E09E2F81
:1047B0008E81882321F4EA0FFB1F668306C09F5F6A
:1047C00031962196E630F10591F7963049F481E073
:1047D00090E013969C938E93129720E030E007C0F0
:1047E000CD011496BD010E94342321E030E0C901BF
:1047F000DF91CF91089580E865EE71E045E650E0E5
:104800000E94921F0895FC0180818F5F808380E861
:104810006AE472E049E150E00E94921F0895505806
:10482000BB27AA270ED075C166D130F06BD120F01E
:1048300031F49F3F11F41EF45BC10EF4E095E7FBE9
:1048400051C1E92F77D180F3BA1762077307840744
:10485000950718F071F49EF58FC10EF4E0950B2EBC
:10486000BA2FA02D0B01B90190010C01CA01A001C2
:104870001124FF27591B99F0593F50F4503E68F11D
:104880001A16F040A22F232F342F4427585FF3CF5E
:10489000469537952795A795F0405395C9F77EF42F
:1048A0001F16BA0B620B730B840BBAF09150A1F078
:1048B000FF0FBB1F661F771F881FC2F70EC0BA0FFE
:1048C000621F731F841F48F4879577956795B79586
:1048D000F7959E3F08F0B3CF9395880F08F099277E
:1048E000EE0F979587950895D9D008F481E0089543
:1048F0000CD00FC107D140F0FED030F021F45F3F63
:1049000019F0F0C0511139C1F3C014D198F39923B3
:10491000C9F35523B1F3951B550BBB27AA27621783
:104920007307840738F09F5F5F4F220F331F441FC8
:10493000AA1FA9F333D00E2E3AF0E0E830D0915000
:104940005040E695001CCAF729D0FE2F27D0660FED
:10495000771F881FBB1F261737074807AB07B0E82C
:1049600009F0BB0B802DBF01FF2793585F4F2AF042
:104970009E3F510568F0B6C000C15F3FECF3983E22
:10498000DCF3869577956795B795F7959F5FC9F79F
:10499000880F911D9695879597F90895E1E0660F28
:1049A000771F881FBB1F621773078407BA0720F0A1
:1049B000621B730B840BBA0BEE1F88F7E09508950A
:1049C00004D06894B111D9C00895BCD088F09F5725
:1049D00090F0B92F9927B751A0F0D1F0660F771F4B
:1049E000881F991F1AF0BA95C9F712C0B13081F02B
:1049F000C3D0B1E00895C0C0672F782F8827B85F73
:104A000039F0B93FCCF3869577956795B395D9F78B
:104A10003EF490958095709561957F4F8F4F9F4F95
:104A20000895E89409C097FB3EF4909580957095A1
:104A300061957F4F8F4F9F4F9923A9F0F92F96E9EA
:104A4000BB279395F695879577956795B795F1115F
:104A5000F8CFFAF4BB0F11F460FF1BC06F5F7F4FFC
:104A60008F4F9F4F16C0882311F096E911C077230E
:104A700021F09EE8872F762F05C0662371F096E817
:104A8000862F70E060E02AF09A95660F771F881FE6
:104A9000DAF7880F9695879597F90895990F00088A
:104AA000550FAA0BE0E8FEEF16161706E807F90700
:104AB000C0F012161306E407F50798F0621B730B9B
:104AC000840B950B39F40A2661F0232B242B252B1C
:104AD00021F408950A2609F4A140A6958FEF811DBF
:104AE000811D089597F99F6780E870E060E0089560
:104AF0009FEF80EC089500240A94161617061806F6
:104B00000906089500240A941216130614060506D1
:104B10000895092E0394000C11F4882352F0BB0F62
:104B200040F4BF2B11F460FF04C06F5F7F4F8F4FC5
:104B30009F4F089557FD9058440F551F59F05F3F00
:104B400071F04795880F97FB991F61F09F3F79F0AF
:104B500087950895121613061406551FF2CF469531
:104B6000F1DF08C0161617061806991FF1CF8695B3
:104B70007105610508940895E894BB276627772797
:104B8000CB0197F908958ADF08F48FEF08950BD0D1
:104B9000C0CFB1DF28F0B6DF18F0952309F0A2CF1F
:104BA000A7CF1124EACFC6DFA0F3959FD1F3950FCD
:104BB00050E0551F629FF001729FBB27F00DB11DA1
:104BC000639FAA27F00DB11DAA1F649F6627B00D31
:104BD000A11D661F829F2227B00DA11D621F739F1A
:104BE000B00DA11D621F839FA00D611D221F749F28
:104BF0003327A00D611D231F849F600D211D822F6F
:104C0000762F6A2F11249F5750408AF0E1F08823B5
:104C10004AF0EE0FFF1FBB1F661F771F881F9150C2
:104C20005040A9F79E3F510570F05CCFA6CF5F3F83
:104C3000ECF3983EDCF3869577956795B795F795F5
:104C4000E7959F5FC1F7FE2B880F911D969587957D
:104C500097F90895629FD001739FF001829FE00D44
:104C6000F11D649FE00DF11D929FF00D839FF00DEB
:104C7000749FF00D659FF00D9927729FB00DE11D97
:104C8000F91F639FB00DE11DF91FBD01CF01112474
:104C90000895A1E21A2EAA1BBB1BFD010DC0AA1F7D
:104CA000BB1FEE1FFF1FA217B307E407F50720F095
:104CB000A21BB30BE40BF50B661F771F881F991F10
:104CC0001A9469F760957095809590959B01AC0159
:104CD000BD01CF01089597FB092E05260ED057FD83
:104CE00004D0D7DF0AD0001C38F450954095309599
:104CF00021953F4F4F4F5F4F0895F6F79095809560
:104D0000709561957F4F8F4F9F4F0895EE0FFF1F56
:104D10000590F491E02D09942F923F924F925F926B
:104D20006F927F928F929F92AF92BF92CF92DF92BB
:104D3000EF92FF920F931F93CF93DF93CDB7DEB720
:104D4000CA1BDB0B0FB6F894DEBF0FBECDBF0994B4
:104D50002A88398848885F846E847D848C849B840B
:104D6000AA84B984C884DF80EE80FD800C811B8119
:104D7000AA81B981CE0FD11D0FB6F894DEBF0FBE48
:0A4D8000CDBFED010895F894FFCFB8
:104D8A00436C7964653A20657965206C6F6E67209B
:104D9A0070726573732064657465637465642E202C
:104DAA006175746F2072656C656173652E00436C62
:104DBA007964653A2065796520756E63616C69620C
:104DCA0072617465642E206E6F7420656E6F7567EC
:104DDA00682049522064657465637465642C206395
:104DEA006865636B20636972637569742E206972E2
:104DFA00203D20002C206D696E696D756D203D2067
:104E0A0000436C7964653A2065796520776173207F
:104E1A00707265737365642E002073746F707065A9
:104E2A0064206379636C652E002073776974636804
:104E3A006564206C69676874732E2000436C79641A
:104E4A00653A20416672616964206F6620746865FC
:104E5A00204461726B20706572736F6E616C697445
:104E6A00792073746172742073756E7365742E0081
:104E7A00436C7964653A20416672616964206F66A1
:104E8A0020746865204461726B20706572736F6E5E
:104E9A00616C697479207468726573686F6C6420D8
:104EAA0072657365742E00436C7964653A204661B5
:104EBA00696C656420746F20696E697469616C69D4
:104ECA007A6520416672616964206F66207468653C
:104EDA00204461726B20706572736F6E616C6974C5
:104EEA00792E204572726F722072656164696E67ED
:104EFA002073756E736574206379636C65206672BE
:104F0A006F6D20454550524F4D2E00436C796465B4
:104F1A003A20416672616964206F66207468652070
:104F2A004461726B20706572736F6E616C6974791B
:104F3A0020696E697469616C697A65642E004F4FE5
:104F4A005220302D373A20202020004F4F5220384F
:104F5A002D50524F583A2000434443003A20004310
:104F6A00445400436C7964653A20746F75636879B8
:104F7A002D6665656C7920636F6C6F722073656C42
:104F8A00656374696F6E206379636C652053544F4F
:104F9A005050454400436C7964653A20746F7563D8
:104FAA0068792D6665656C7920636F6C6F72207302
:104FBA00656C656374696F6E206379636C652053F1
:104FCA0054415254454400436C7964653A206C61FB
:104FDA007567687300436C7964653A20746F75630A
:104FEA0068792D6665656C79206D6F64756C6520CE
:104FFA0064657465637465642000207469636B6C0E
:10500A0065287329002000436C7964653A20546F3F
:10501A00756368792D4665656C7920646574656386
:10502A00746564206120746F7563682E00436C791F
:10503A0064653A20546F756368792D4665656C79A5
:10504A0020646574656374656420612072656C65AB
:10505A006173652E00436C7964653A204661696C18
:10506A00656420746F20696E697469616C697A6518
:10507A0020546F756368792D4665656C7920706573
:10508A0072736F6E616C6974792E204661696C6502
:10509A006420746F20636F6E6E65637420746F2072
:1050AA004D50523132312E00436C7964653A2054A6
:1050BA006F756368792D4665656C792070657273C2
:1050CA006F6E616C69747920696E697469616C6963
:1050DA007A65642E0001000000E8030100E1000087
:1050EA0000000000010100000000AA027902320259
:1050FA003B02500261020000000060133913E8030A
:10510A00E803E803E803E803E803E8030000000013
:10511A004D17FA16000000004F1D161EEE1C151D35
:10512A00FC1C771D7B1D00000000E822161E8A2346
:04513A0047233A23AA
:00000001FF
