:100000000C94C9010C94F1010C94F1010C94F101D0
:100010000C94F1010C94F1010C94F1010C94F10198
:100020000C94F1010C941A1C0C947A280C9401295C
:100030000C94F1010C94F1010C94F1010C94F10178
:100040000C94F1010C94F1010C94F1010C94F10168
:100050000C94F1010C94F1010C94F1010C94FC212D
:100060000C94F1010C94F1010C94F1010C94F10148
:100070000C94F1010C94F1010C94F1010C94F10138
:100080000C94F1010C94F1010C94F1010C94F10128
:100090000C94F0040C94F1010C94F1010C94F10116
:1000A0000C94F1010C94F1010C94F10100C20100D7
:1000B0000100110011000C0000E100000A00250001
:1000C0002500210000960000190039003900360093
:1000D000127A00001F0046004600440080700000B5
:1000E00022004D004D004A00004B00003600750014
:1000F00075007200403800004A009C009C00990086
:10010000802500007200EC00EC00E900C012000045
:10011000E900DA01DA01D70160090000D701B6036E
:10012000B603B303B0040000B3036E076E076B079A
:10013000580200006E07DC0EDC0ED80E2C01000009
:10014000DC0EC11DC11DBE1D0000000024002700E3
:100150002A002D00300000000000250028002B00A0
:100160002E003100000000002300260029002C0092
:100170002F00040404040403040502020202040321
:100180000202020206060606060604040202020431
:100190000408020110408040102040804080080286
:1001A0000401804020100201108010204040000017
:1001B000000200080E0000030401000B0000000014
:1001C0000000000000000000000000000706050419
:1001D0000100080A0B0C0D09080B000202020100C5
:1001E000090400000102020000052400100105249A
:1001F000010101042402060524060001070581030C
:1002000010004009040100020A0000000705020274
:100210004000000705830240000004030904220394
:1002200043006C007900640065002000200020007D
:1002300020002000200020002000200020002000BE
:10024000180346006100620075006C006500200024
:1002500020002000200020001201000200000040C9
:10026000501D9F6000010102000112010002020006
:100270000040501D9F6000010102000100C180810B
:10028000C105010902A1010901A1008501050919A2
:10029000012903150025019503750181029501755A
:1002A00005810305010930093109381581257F755C
:1002B0000895038106C0C005010906A10185020554
:1002C0000719E029E71500250175019508810295B8
:1002D0000175088103950675081500256505071940
:1002E0000029658100C00904020001030000000923
:1002F000210101000122650007058403400001007F
:10030000000000000000002A2B2800000000000070
:100310000000000000000000000000000000002CB1
:100320009EB4A0A1A2A434A6A7A5AE362D37382727
:100330001E1F20212223242526B333B62EB7B89FB3
:100340008485868788898A8B8C8D8E8F90919293F5
:100350009495969798999A9B9C9D2F3130A3AD3593
:100360000405060708090A0B0C0D0E0F10111213D5
:100370001415161718191A1B1C1DAFB1B0B50000C3
:10038000B3028C033E156D15671A1925B627F92B94
:10039000371511241FBECFEFDAE0DEBFCDBF11E06D
:1003A000A0E0B1E0EAEEFFE502C005900D92AA38A8
:1003B000B107D9F714E0AAE8B1E001C01D92AE3E42
:1003C000B107E1F713E0C0E9D3E004C02297FE01D2
:1003D0000E94A22FC038D107C9F70E94E4250C94CF
:1003E000E82F0C940000A0E0B0E0E9EFF1E00C94FD
:1003F000B92FEC01A880B980CA80DB80A114B104B8
:10040000C104D10441F484E2A82E89EDB82E8BE515
:10041000C82E87E0D82EC601B5012DE133EF41E0AB
:1004200050E00E94712F27EA31E440E050E00E9442
:100430001D2F7B018C01C601B5012DE133EF41E099
:1004400050E00E94712FCA01B9012CEE34EF4FEF3A
:100450005FEF0E941D2F6E0D7F1D801F911F97FF64
:1004600004C06150704080409048688379838A83DB
:100470009B839B01AC015F77B901CA01CDB7DEB7A1
:10048000EAE00C94D52F0E94F301089585E191E0F4
:100490000E94F301089560931501709316018093F3
:1004A0001701909318010895FB01DC0102C001902F
:1004B0000D9241505040D8F70895FB01DC010190A6
:1004C0000D920020E1F70895FB01DC0141505040FE
:1004D00030F08D910190801919F40020B9F7881B34
:1004E000990B0895FB01DC014150504048F0019008
:1004F0000D920020C9F701C01D9241505040E0F715
:100500000895009731F4DA018D919C91009709F4D8
:100510000EC0DC01FB013D912191222319F032171D
:10052000C9F3FACF332331F4DA011D921C928827E4
:10053000992708951197AF93BF93FB013D912191A6
:10054000321771F4332321F488279927119702C0B9
:100550001E921196FA01A193B0839F918F910895F5
:10056000222369F7EACF8AE891E00E94971B089559
:100570000F931F93DF93CF9300D0CDB7DEB71A82CE
:10058000198283EB92E0BE016F5F7F4F0E94F616E7
:1005900006EC14E0C80160E071E00E94ED2669817C
:1005A0007A81C8014AE050E00E94D0260F900F9057
:1005B000CF91DF911F910F910895EF92FF920F93CA
:1005C0001F93DF93CF93CDB7DEB727970FB6F8947D
:1005D000DEBF0FBECDBF8E010F5F1F4F87E0F8015A
:1005E00011928A95E9F783EB92E0B8010E94171700
:1005F00086ECE82E84E0F82EC70160E071E00E94EE
:10060000ED26C701B8010E94F02627960FB6F89490
:10061000DEBF0FBECDBFCF91DF911F910F91FF9035
:10062000EF9008958AE891E00E94A71A87E792E088
:100630000E946B1287E792E00E94221287E792E005
:100640000E946E0D87E792E00E94FA098091B50240
:10065000882321F087E792E00E94A60608950F9371
:100660001F938CEF91E00E942C0486EC94E060E8EC
:1006700075E20E94CE240AE811E0C80164E071E04E
:100680004DED52E00E94451BC8016BE071E048EB64
:1006900052E00E94451B87E792E00E944A131F9197
:1006A0000F91089581E08093FB016093D80110922F
:1006B000F9011092FA0108952091D70130E080915C
:1006C000D601281B3109C90108954091D6018091B6
:1006D000D701481718F02FEF3FEF0AC0E42FF0E0E2
:1006E000EA54FE4F8081282F30E04F5F4093D601BF
:1006F000C9010895E091D6018091D701E81718F05B
:10070000EFEFFFEF06C0F0E0EA54FE4F8081E82FE4
:10071000F0E0CF01089508951092FF011092FE01BC
:1007200088EE93E0A0E0B0E0809300029093010295
:10073000A0930202B093030280E391E09093FD0145
:100740008093FC010895CF92DF92EF92FF920F9376
:100750001F93CF93DF937C016B018A018091FB0192
:100760008823A1F0C0E0D0E00DC0D701ED91FC914D
:10077000D601AC0FBD1F0190F081E02DC7016C9137
:1007800009952196C017D10780F304C0CB01642FCF
:100790000E94D504C801DF91CF911F910F91FF9066
:1007A000EF90DF90CF900895DF93CF930F92CDB766
:1007B000DEB7FC0169838091FB018823C9F0809139
:1007C000FA01803238F081E090E09383828320E068
:1007D00030E015C08091F901E82FF0E0E752FE4FBC
:1007E000998190838F5F8093F9018093FA0105C00E
:1007F000CE01019661E00E94D50421E030E0C901FC
:100800000F90CF91DF9108950F93062F8091D8011B
:1008100069ED71E04091FA0121E00E94800410929C
:10082000F9011092FA011092FB010F91089561E015
:100830000E9404040895413208F040E2862F66EBDE
:1008400071E00E9437041092D6018093D701089579
:1008500021E00E941B0408951092D6011092D70146
:100860001092F9011092FA010E9481060895382F22
:10087000413210F040E042C0809108028823E1F745
:1008800091E09093080220930A028FEF8093750203
:10089000109230024150409331024F5F9093090211
:1008A00080910902330F832B8093090280910B0200
:1008B000813041F410920B02809109028093BB00B9
:1008C00085EC01C085EE8093BC00809108028130E8
:1008D000E1F380913002841710F44091300220E05F
:1008E00030E00AC0FB01E20FF31FD901A05FBD4F4A
:1008F0008C9180832F5F3F4F2417A0F3842F08959E
:100900000F931F93582F122F413210F081E04AC0ED
:10091000809108028823E1F782E080930802009327
:100920000A028FEF809375021092300240933102D9
:10093000A0E1B2E0FB0102C081918D938E2F861B56
:100940008417D0F31092090280910902550F852B6C
:100950008093090280910B02813041F410920B02C6
:10096000809109028093BB0085EC01C085EE8093E5
:10097000BC00112321F0809108028230E1F38091C4
:1009800075028F3F11F480E00DC0809175028032B6
:1009900011F482E007C080917502803311F084E089
:1009A00001C083E01F910F910895482F613210F02C
:1009B00081E0089580910802843011F082E008956A
:1009C00060935302A2E3B2E0842F9C01F90102C0BC
:1009D00081918D938E2F841B8617D0F380E008952C
:1009E0001F920F920FB60F9211242F933F934F93A4
:1009F0005F936F937F938F939F93AF93BF93EF9387
:100A0000FF938091B90090E0887F907080369105C7
:100A100009F4F2C081369105CCF58832910509F4CC
:100A20007BC089329105B4F48031910509F46FC01F
:100A3000813191053CF4009709F447C1089709F00A
:100A40004FC165C08831910509F466C0809709F0EF
:100A500047C182C08034910509F4A4C08134910556
:100A600044F48033910509F482C0C89709F038C175
:100A700089C08035910509F489C08835910509F44C
:100A800096C08834910509F02BC1AEC08839910514
:100A900009F413C189399105ECF48837910509F4FB
:100AA000ABC0893791054CF48836910509F4A4C090
:100AB0008037910509F014C19FC08838910509F469
:100AC000FCC08039910509F49DC08038910509F07A
:100AD00007C198C0803B910509F4C6C0813B9105D0
:100AE0004CF4803A910509F49FC0883A910509F0C9
:100AF000F7C0BAC0803C910509F4E3C0883C910579
:100B000009F4DFC0883B910509F0EAC0C2C08091BA
:100B100009028093BB00CFC09091300280913102D6
:100B2000981768F490913002E92FF0E0E05FFD4FF4
:100B300080818093BB009F5F90933002BCC0809106
:100B40000A02882309F44BC085ED8093BC00809194
:100B5000BC0084FDFCCFC2C080E28093750285EDAD
:100B60008093BC008091BC0084FDFCCFB7C080E3C3
:100B70008093750285ED8093BC008091BC0084FD5C
:100B8000FCCFACC088E3809375029BC0809130029B
:100B90009091BB00E82FF0E0E05FFD4F90838F5F06
:100BA00080933002909130028091310282C0809116
:100BB00030029091BB00E82FF0E0E05FFD4F9083A2
:100BC0008F5F8093300280910A02882341F085ED87
:100BD0008093BC008091BC0084FDFCCF7FC081E08D
:100BE00080930B0284EA6EC085ED8093BC008091F7
:100BF000BC0084FDFCCF72C083E080930802109299
:100C0000740259C080917402803208F056C08091FD
:100C100074029091BB00E82FF0E0EC5AFD4F9083F6
:100C20008F5F8093740247C080917402803230F4E9
:100C3000E0917402F0E0EC5AFD4F108285ED809354
:100C4000BC008091BC0084FDFCCF10920802609132
:100C50007402E0910E02F0910F0284E592E070E0E0
:100C60000995109274022DC084E0809308021092BE
:100C7000520210925302E0910C02F0910D0209957C
:100C800080915302882329F481E0809353021092CB
:100C9000320290915202E92FF0E0EE5CFD4F80812C
:100CA0008093BB009F5F909352029091520280917B
:100CB0005302981710F485EC01C085E88093BC00BE
:100CC0000FC085EC8093BC0009C01092750285EDC1
:100CD0008093BC008091BC0084FDFCCF1092080280
:100CE000FF91EF91BF91AF919F918F917F916F9104
:100CF0005F914F913F912F910F900FBE0F901F90DA
:100D000018951092080281E080930A0210920B025B
:100D100082E061E00E946B2483E061E00E946B242A
:100D2000E9EBF0E080818E7F808380818D7F8083FE
:100D300088E48093B80085E48093BC000895F99915
:100D4000FECF72BD61BDF89A80B50895CF93DF9351
:100D5000EC01A881B981109751F0ED91FC911197A8
:100D60000280F381E02DCD016B814A810995AF812D
:100D7000B885109751F0ED91FC9111970280F381A5
:100D8000E02DCD016A8549850995DF91CF910895C0
:100D90002F923F924F925F926F927F928F929F928B
:100DA000AF92BF92CF92DF92EF92FF920F931F9379
:100DB000CF93DF93EC01FB0119012A01A080AD8ED6
:100DC00061816E8FE280EF8E70E0882777FD8095DD
:100DD000982F0E94062E2D893E894F89588D0E949A
:100DE000022D20E030E04FE753E40E946B2DA2017A
:100DF00091010E94BA2E3B014C01FF240027F7FC11
:100E00000095102FC801B7010E94062E298D3A8D3A
:100E10004B8D5C8D0E94022D20E030E04FE753E4C3
:100E20000E946B2DA20191010E94BA2E7B018C01C0
:100E3000BB24CC24B7FCC094DC2CC601B5010E94B5
:100E4000062E29893A894B895C890E94022D20E06F
:100E500030E04FE753E40E946B2DA20191010E9404
:100E6000BA2E5B016C016BA37CA38DA39EA3C3016F
:100E7000D4018FA398A7A9A7BAA7C701D8018BA7A8
:100E80009CA7ADA7BEA7C601B50120E030E040E0B9
:100E900050E00E94672D88233CF4D601C501B0586C
:100EA0008BA39CA3ADA3BEA3EFA0F8A409A51AA58C
:100EB000C801B70120E030E040E050E00E94672D1B
:100EC00088233CF4D801C701B0588FA398A7A9A7DD
:100ED000BAA7EBA4FCA40DA51EA5C801B70120E08C
:100EE00030E040E050E00E94672D88233CF4D801B8
:100EF000C701B0588BA79CA7ADA7BEA7DF91CF9124
:100F00001F910F91FF90EF90DF90CF90BF90AF9027
:100F10009F908F907F906F905F904F903F902F9019
:100F20000895EF92FF920F931F93CF93DF93EC01FD
:100F300079018A0170E080E090E00E94042E6CABA1
:100F40007DAB8EAB9FAB28A939A94AA95BA90E94AA
:100F5000022D20E030E04FE753E40E946B2DA80102
:100F600097010E94BA2E7B018C0168AF79AF8AAFDE
:100F70009BAF20E030E040E050E00E94672D8823E6
:100F80003CF4D801C701B05888AF99AFAAAFBBAF46
:100F9000DF91CF911F910F91FF90EF9008950F93E4
:100FA0001F93CF93DF93EC01CF59DF4F8881C15658
:100FB000D040681768F58E010E591F4FD8016C9309
:100FC0000E944422CD59DF4F688379838A839B83B3
:100FD000C356D040FE01E959FF4FD8018C9190E0F3
:100FE000880F991F880F991FC80FD91FCE56DF4F42
:100FF00088819981AA81BB8120813181428153817D
:10100000820F931FA41FB51F80839183A283B38394
:10101000DF91CF911F910F9108958F929F92AF9280
:10102000BF92CF92DF92EF92FF920F931F93CF93D5
:10103000DF93EC014801C15ADF4F699379934883EC
:10104000C156D040DE01A259BF4F822F932FFC0121
:1010500020E030E050E00EC080818C9381811196B9
:101060008C931197828112968C9312972F5F3F4F2A
:1010700013963396241735077CF38E010E591F4FB4
:10108000D8011C920E944422CD59DF4F6883798396
:101090008A839B83C356D040D801EC91F0E0EE0FD9
:1010A000FF1FEE0FFF1FEC0FFD1FEE56FF4F2081BD
:1010B000318142815381260F371F481F591FC9595B
:1010C000DF4F288339834A835B83C756D0406D89BD
:1010D0007E898F89988D0E94D82D5B016C01698D66
:1010E0007A8D8B8D9C8D0E94D82D7B018C01698916
:1010F0007A898B899C890E94D82DC559DF4F6883D6
:101100002196A992E882CB5ADF4F99828882DF919B
:10111000CF911F910F91FF90EF90DF90CF90BF90F4
:10112000AF909F908F9008959F92AF92BF92CF9271
:10113000DF92EF92FF920F931F93CF93DF936C0197
:10114000942E5901EC01CE56DF4F20E030E050E004
:10115000440F551F440F551F0DC0F801E20FF31F38
:1011600080819181A281B38189939993A993B99345
:101170002C5F3F4F2417350781F7C601492D950194
:1011800087010E940D08DF91CF911F910F91FF9071
:10119000EF90DF90CF90BF90AF909F9008959F9277
:1011A000AF92BF92CF92DF92EF92FF920F931F9375
:1011B000CF93DF936C01942E5901EC01CE56DF4F93
:1011C00020E030E050E0440F551F0DC0F801E20F61
:1011D000F31F80819181A0E0B0E089939993A99356
:1011E000B9932E5F3F4F2417350781F7C601492D6C
:1011F000950187010E940D08DF91CF911F910F91FA
:10120000FF90EF90DF90CF90BF90AF909F900895A8
:101210002F923F924F925F926F927F928F929F9206
:10122000AF92BF92CF92DF92EF92FF920F931F93F4
:10123000DF93CF9300D000D000D0CDB7DEB79A8334
:1012400089835B0119012A01370148012DB73EB797
:101250003C832B833DB73D838EB78E831C2D110FAE
:101260001F5F113011F412E003C01D3008F070C090
:10127000612F70E0CB01880F991F860F971FEDB784
:10128000FEB7E81BF90B0FB6F894FEBF0FBEEDBF1B
:101290008DB79EB70196DC01E82ED92EFC0180E0C7
:1012A00090E09B012F5F3F4F04C010821182128299
:1012B0003396019682179307C1F7CB01880F991FC8
:1012C000880F991F2DB73EB7281B390B0FB6F8941E
:1012D0003EBF0FBE2DBF2F5F3F4F022FF32EA90140
:1012E00020E030E01DC020FF11C0F50180818C930B
:1012F000818111968C931197828112968C9312970B
:10130000FA01608271828282938205C0FA01208292
:101310003182428253822F5F3F4F13964C5F5F4F63
:101320002617370704F3CC2019F0E2E0F0E002C002
:10133000E0E0F0E089819A8161E070E0412F2E2D9C
:101340003D2D1F2D7F010E9494088D819E8102C03A
:101350008DB79EB70FB6F8949EBF0FBE8DBF2B8181
:101360003C810FB6F8943EBF0FBE2DBF26960FB638
:10137000F894DEBF0FBECDBFCF91DF911F910F91CB
:10138000FF90EF90DF90CF90BF90AF909F908F90A5
:101390007F906F905F904F903F902F9008950F93A4
:1013A0001F938C01FC0160A971A982A993A90E94D5
:1013B000D32D9B01AC01F80187A5B9010E94392307
:1013C0001F910F9108950F931F938C0170E080E09F
:1013D00090E00E94042EF80164AB75AB86AB97AB2E
:1013E00060AB71AB82AB93ABC8010E94CF091F9178
:1013F0000F9108952F923F924F925F926F927F923A
:101400008F929F92AF92BF92CF92DF92EF92FF9214
:101410000F931F93CF93DF93EC01ECA8FDA80EA9C7
:101420001FA928A839A84AA85BA8C801B701A2012A
:1014300091010E94672D882309F441C0C801B701BA
:10144000A20191010E94022D7B018C0120E030E07D
:1014500040E050E00E94672D87FD02C061E001C0BE
:101460006FEF772767FD7095872F972F0E94062EC5
:101470003B014C01A8ACB9ACCAACDBACC801B701AC
:10148000A40193010E94BA2EA60195010E94672D26
:1014900087FD08C0C601B501A40193010E94BA2EC0
:1014A0007B018C01C201B101A80197010E94032DAB
:1014B00068AB79AB8AAB9BABCE010E94CF09DF91C1
:1014C000CF911F910F91FF90EF90DF90CF90BF9041
:1014D000AF909F908F907F906F905F904F903F90D4
:1014E0002F9008950F931F938C01FC0161897289DD
:1014F0008389948922EE31EE41E65FE30E94BA2EA1
:101500000E94D82D9B01AC01F8018685622F70E006
:101510000E943923F801658976898789908D22EEAA
:1015200031EE41E65FE30E94BA2E0E94D82D9B0166
:10153000AC01F8018785622F70E00E943923F80121
:10154000618D728D838D948D22EE31EE41E65FE3E5
:101550000E94BA2E0E94D82D9B01AC01F80180890F
:10156000622F70E00E9439231F910F9108958F928E
:101570009F92AF92BF92CF92DF92EF92FF920F9322
:101580001F934C01FB016081DC015D966C935D97BC
:10159000E1805E96EC925E97A2805F96AC9270E0DE
:1015A00080E090E00E94042EF401618B728B838BAB
:1015B000948BFF2400E010E0C801B7010E94042EC4
:1015C000D40155966D937D938D939C935897BB242E
:1015D000CC24DD24C601B5010E94042EF401618FE4
:1015E000728F838F948FC4010E94720A1F910F9192
:1015F000FF90EF90DF90CF90BF90AF909F908F9033
:101600000895CF93DF93EC01CC53DF4F8881C45C06
:10161000D040882319F420E030E01EC082E493E03B
:101620006EE70E948B1D82E493E062E00E948B1DB6
:1016300082E493E064EA0E948B1D82E493E06EE70B
:101640000E948B1D0E944422C953DF4F6883798317
:101650008A839B8323EA30E0C901DF91CF9108950B
:10166000AF92BF92CF92DF92EF92FF920F931F93B0
:10167000CF93DF93EC01FC01EE59FF4F80818F5F28
:101680008083CF59DF4F2881C156D040821718F18F
:10169000CE53DF4F88819981C25CD040892B11F4F1
:1016A000108219C0C15ADF4F19821882CF55D0401D
:1016B000822F90E00197BC01660F771F680F791F9A
:1016C00062597F4F6C0F7D1FCE010E94B70ACE0179
:1016D0000E94010B46C0CD59DF4F488359836A836E
:1016E0007B83C356D040BE0169597F4FCE59DF4F2F
:1016F000E881C256D040F0E0EE0FFF1FEE0FFF1F53
:10170000EC0FFD1FEE56FF4F80819181A281B381C6
:10171000FB012081318142815381820F931FA41FDD
:10172000B51F80839183A283B3836D897E898F895E
:10173000988D0E94D82D5B016C01698D7A8D8B8DFF
:101740009C8D0E94D82D7B018C0169897A898B89B7
:101750009C890E94D82DC559DF4F68832196A99294
:10176000E882DF91CF911F910F91FF90EF90DF9072
:10177000CF90BF90AF900895FC01E959FF4F40838F
:10178000518362837383E756F040CF010E94300B90
:1017900008958F929F92AF92BF92CF92DF92EF9275
:1017A000FF920F931F93CF93DF935C017A018B011C
:1017B00072E9C72ED12CC80ED91EC0E0D0E061E678
:1017C000862E912C880E991E14C0F60160817181BD
:1017D00082819381A80197010E944F2FF6012193E6
:1017E0003193419351936F01EE0CFF1C001F111FA9
:1017F0002196F401808190E0C817D90734F30E9444
:101800004422AB01BC01C5010E94BC0BDF91CF910A
:101810001F910F91FF90EF90DF90CF90BF90AF900E
:101820009F908F9008950F931F93DF93CF9300D0D5
:101830000F92CDB7DEB79C018C01015A1F4FF80102
:1018400080819181029741F4C90144E650E060E053
:1018500070E00E94C90B0CC019821A821B82C90158
:10186000BE016F5F7F4F0E94B70AF801118210829C
:101870000F900F900F90CF91DF911F910F910895CE
:101880002F923F924F925F926F927F928F929F9290
:10189000AF92BF92CF92DF92EF92FF920F931F937E
:1018A000DF93CF9300D00F92CDB7DEB73C010E94FB
:1018B00044227B018C0127E630E0620E731EF301A7
:1018C00080819181A281B38129E93FEF620E731E6D
:1018D0008E159F05A007B10798F4C301B801A701B1
:1018E0000E94300B8FE590E0680E791EF301808135
:1018F000918121EA3FEF620E731E892B09F4D8C053
:1019000083E690E0680E791EF301219031904190BA
:1019100051903F01608171818281938129E93FEF7C
:10192000620E731E62197309840995090E94042EC0
:101930005B016C0120E030E040E050E00E94672D48
:10194000882359F40F2EF0E02F2EF0E03F2EF0E820
:101950004F2EFFE35F2EF02D0EC0E218F3080409AE
:101960001509C801B7010E94042EA60195010E9425
:101970006B2D1B012C0182E690E0680E791EF301AD
:10198000008110E029E030E0620E731EF301E08078
:1019900025E93FEF620E731EFF24B701882777FD0C
:1019A0008095982F0E94062E4B015C016801CC0C9B
:1019B000DD1CC00ED11EC60CD71C8EE690E0C80EF2
:1019C000D91EF60161916F0170E06E197F098827B9
:1019D00077FD8095982F0E94062E9B01AC01C201D5
:1019E000B1010E94BA2E9B01AC01C501B4010E9455
:1019F000032D0E94D82D69832CE630E0620E731E01
:101A0000F30101913F0110E0B801882777FD80952F
:101A1000982F0E94062E4B015C01F60161916F0127
:101A200070E0601B710B882777FD8095982F0E94CE
:101A3000062E9B01AC01C201B1010E94BA2E9B018E
:101A4000AC01C501B4010E94032D0E94D82D6A8308
:101A5000F301008123E93FEF620E731E10E0B8012D
:101A6000882777FD8095982F0E94062E4B015C01F8
:101A7000F601608170E0601B710B882777FD80950F
:101A8000982F0E94062E9B01AC01C201B1010E9459
:101A9000BA2E9B01AC01C501B4010E94032D0E9426
:101AA000D82D6B83C301BE016F5F7F4F0E94B70AC1
:101AB0000F900F900F90CF91DF911F910F91FF909A
:101AC000EF90DF90CF90BF90AF909F908F907F90DE
:101AD0006F905F904F903F902F9008952F923F927C
:101AE0004F925F926F927F928F929F92AF92BF922E
:101AF000CF92DF92EF92FF920F931F93CF93DF93DA
:101B0000EC01C15ADF4F88819981CF55D040892B94
:101B100019F0CE010E94400C2BA03CA04DA05EA06D
:101B20006D8D70E0882777FD8095982F0E94062E96
:101B30007B018C0169887A888B889C88A401930139
:101B40000E94672D8823D1F1C801B701A401930138
:101B50000E94022D7B018C0120E030E040E050E04B
:101B60000E94672D87FD02C061E001C06FEF7727FB
:101B700067FD7095872F972F0E94062E5B016C01E1
:101B8000C801B701A60195010E94BA2EA2019101D8
:101B90000E94672D87FD08C0C201B101A601950111
:101BA0000E94BA2E7B018C01C401B301A8019701E8
:101BB0000E94032D698B7A8B8B8B9C8B2FA038A472
:101BC00049A45AA46E8D70E0882777FD8095982FE0
:101BD0000E94062E7B018C016D887E888F88988CF0
:101BE000A40193010E94672D8823D1F1C801B70198
:101BF000A40193010E94022D7B018C0120E030E0C2
:101C000040E050E00E94672D87FD02C061E001C006
:101C10006FEF772767FD7095872F972F0E94062E0D
:101C20005B016C01C801B701A60195010E94BA2EA3
:101C3000A20191010E94672D87FD08C0C201B10178
:101C4000A60195010E94BA2E7B018C01C401B3014B
:101C5000A80197010E94032D6D8B7E8B8F8B988F2F
:101C60002BA43CA44DA45EA46F8D70E0882777FD63
:101C70008095982F0E94062E7B018C01698C7A8CAE
:101C80008B8C9C8CA40193010E94672D8823D1F139
:101C9000C801B701A40193010E94022D7B018C01B0
:101CA00020E030E040E050E00E94672D87FD02C058
:101CB00061E001C06FEF772767FD7095872F972F41
:101CC0000E94062E5B016C01C801B701A6019501B7
:101CD0000E94BA2EA20191010E94672D87FD08C0C3
:101CE000C201B101A60195010E94BA2E7B018C01AF
:101CF000C401B301A80197010E94032D698F7A8F57
:101D00008B8F9C8FCE010E94720ADF91CF911F9121
:101D10000F91FF90EF90DF90CF90BF90AF909F908A
:101D20008F907F906F905F904F903F902F9008958D
:101D30000F931F93CF93DF93EC018B01CC53DF4FB5
:101D40008881C45CD040882319F420E030E028C0AA
:101D500082E493E06EE70E948B1D82E493E064E0EE
:101D60000E948B1D82E493E060EA0E948B1D82E456
:101D700093E0612F0E948B1D82E493E0602F0E940C
:101D80008B1D82E493E06EE70E948B1D0E9444222B
:101D9000C953DF4F688379838A839B8320EA30E0CD
:101DA000C901DF91CF911F910F910895DF92EF92BA
:101DB000FF920F931F937C01D62E02E413E0C8011B
:101DC0006EE70E948B1DC80163E00E948B1DC80155
:101DD00069EA0E948B1DC8016D2D0E948B1DC801F0
:101DE0006EE70E948B1D0E94442227EC30E0E20E39
:101DF000F31EF701608371838283938389EA90E005
:101E00001F910F91FF90EF90DF900895CF92DF9296
:101E1000EF92FF920F931F93DF93CF9300D00F9217
:101E2000CDB7DEB78C01FC01C4A8D5A8E6A8F7A8F9
:101E3000C701B60120E030E04FE753E40E94672D70
:101E400087FD5AC0F801858D882339F4868D882353
:101E500021F4878D882309F44FC0C80160E02DEC80
:101E60003CEC4CEC5DE30E94910753C0992339F49C
:101E7000F801868D882319F4878D882371F01982E3
:101E80001A821B82C801BE016F5F7F4F20E030E0E5
:101E900040E05FE30E94C8063CC0C8016FEF2AE93A
:101EA00039E949E95EE30E949107C80160E070E00A
:101EB0000E94D60EC80162E070E01BC0992349F56C
:101EC000F801868D882329F5878D882311F5B801BF
:101ED000605E7F4FC8012DEC3CEC4CEC5DE30E9452
:101EE000C806C80160E070E00E94D60EC80161E03B
:101EF00070E00E94980E0DC0C701B60120E030E0EE
:101F00004FE753E40E94672DF801958D87FDAECF12
:101F1000D5CF0F900F900F90CF91DF911F910F9120
:101F2000FF90EF90DF90CF9008958F929F92AF92A5
:101F3000BF92CF92DF92EF92FF920F931F93DF93A6
:101F4000CF9300D00F92CDB7DEB75C016B01FC01DF
:101F500087AD882309F4CDC00E9444221BE5812E61
:101F6000912C8A0C9B1CF401208131814281538188
:101F7000621773078407950708F4BBC0CBC02EE433
:101F800030E0A20EB31EF5018081918122EB3FEF7C
:101F9000A20EB31E85010E5A1F4FC816D90608F4AB
:101FA0005EC00E944422F801608371838283938320
:101FB0000E94442226E530E0A20EB31EF5012081E6
:101FC000318142815381EAEAFFEFAE0EBF1E2854F1
:101FD000344F4F4F5F4F261737074807590708F010
:101FE00088C0F70110820E94442264527A4F8F4FBA
:101FF0009F4FF401608371838283938325E430E0F3
:10200000A20EB31EF50160837183828393832BEB51
:102010003FEFA20EB31E8FEF89831A821B82C50188
:10202000BE016F5F7F4F28EC30E040E050E0B8EC3D
:10203000EB2EF12C012D112DA3E0CA2E0E940809D0
:10204000C5016FEF0E94E309C50160E070E00E94E6
:10205000D60EC50165E070E00E94980E4AC00E944D
:102060004422F801208131814281538128533F4F1E
:102070004F4F5F4F37C04EE450E0A40EB51EF50140
:102080008081918142EB5FEFA40EB51E85010E5A4F
:102090001F4FC816D906D8F02F5FF70120830E9482
:1020A00044229B01AC01F801608371838283938396
:1020B000F70180818830E9F486E590E0A80EB91E2A
:1020C000F501208331834283538381E013C00E9452
:1020D0004422F80120813181428153812C503E4FAE
:1020E0004F4F5F4F261737074807590710F4F7017E
:1020F000108280E00F900F900F90CF91DF911F9191
:102100000F91FF90EF90DF90CF90BF90AF909F9096
:102110008F900895FAE5EF2EF12CEA0CFB1CF701E5
:102120002081283009F0A7CF2ACF8F929F92AF92BB
:10213000BF92CF92EF92FF920F931F93DF93CF93B3
:1021400000D00F92CDB7DEB75C014B010E94442254
:1021500025E430E0A20EB31EF501208131814281D9
:102160005381EBEBFFEFAE0EBF1E621773078407C0
:10217000950708F447C1F50186AD882309F04CC0E6
:102180000E94442221E430E0A20EB31EF50120811A
:10219000318142815381EFEBFFEFAE0EBF1E261758
:1021A000370748075907C0F5F501E05CFF4F80810C
:1021B00091E089278083882311F46FEF01C060E0EC
:1021C000C5010E94E30921E430E0A20EB31EF5012F
:1021D000208131814281538182915F0160EC7FEFE8
:1021E000A60EB71E882319F488EB9BE002C084E694
:1021F00090E0E1E4F0E0AE0EBF1EA0E0B0E0820FA0
:10220000931FA41FB51FF50180839183A283B3831D
:102210002FEB3FEFA20EB31E6AE570E0A60EB71ECD
:10222000F501808126EA3FEFA20EB31E882309F054
:10223000E9C060E570E0A60EB71EF50180819181CE
:1022400020EB3FEFA20EB31E8815990528F4B401C8
:10225000681B790BCB0102C088199909A0E0B0E096
:10226000F501E75BFF4F9501265B3F4F8897A1057E
:10227000B1051CF580818F5F8083F9014081518118
:10228000C401682D892F4815590518F4CA01642F17
:10229000892FF90160838183F501E45BFF4F208181
:1022A0003181C401482D892F8216930618F4C90183
:1022B000422F892F408381830FC010826CE470E02D
:1022C000A60EB71EF5019182808264EB7FEFA60E09
:1022D000B71EF90191828082A501475B5F4FFA0129
:1022E00080818D3708F487C0D501A45BBF4F2D9145
:1022F0003C9111978501065B1F4FF8016081718148
:10230000C901861B970B889730F0FA0110828D92D5
:102310009C92F80175C08B01020F131F169507954B
:10232000F3E001321F0730F18FEF89831A821B829D
:10233000C501BE016F5F7F4F28EC30E040E050E008
:10234000F8ECEF2EF12C012D112DE3E0CE2E0E94A2
:102350000809C5016FEF0E94E309F50117AEC50139
:1023600060E070E00E94D60EC50165E070E00E945A
:10237000980E30C0F50187AD882351F4B501605E39
:102380007F4FC5012DEC3CEC4CEC5DE30E94C80690
:1023900081E0F50187AF86AF2EE430E0A20EB31ED8
:1023A000B80180E090E00E94042E20E030E040E0A0
:1023B0005FE30E94BA2E20E030E041EE53E40E9439
:1023C000032D0E94D82DF5017183608322EB3FEF2E
:1023D000A20EB31E69E470E0A60EB71EF5011192BD
:1023E00081E094E0819391935F011182108224EB4C
:1023F0003FEFA20EB31E60E570E0A60EB71EF5011A
:10240000918280820F900F900F90CF91DF911F915A
:102410000F91FF90EF90CF90BF90AF909F908F90D3
:1024200008950F931F938C0187E792E061E070E0BD
:102430000E94D60E0B531F4FF801918380831F918A
:102440000F910895EF92FF920F931F93CF93DF9315
:10245000EC018C010C531F4FF80180818823A1F5FA
:10246000CB53DF4F88819981C55CD040892B61F1C6
:1024700082E493E00E94711D892B79F082E493E05D
:102480000E94501D019749F481E0F80180831CC02F
:10249000CB53DF4F1982188217C0C953DF4FE88032
:1024A000F9800A811B81C75CD0400E944422E61A51
:1024B000F70A080B190BF9EEEF16F3E0FF06F0E050
:1024C0000F07F0E01F0720F7DF91CF911F910F91C9
:1024D000FF90EF9008950F931F93CF93DF93EC013C
:1024E0008DAD0E940123182F092FCE01612F702F6F
:1024F0000E949510CE01612F702F0E94950F8823A6
:1025000079F0C15ADF4F88819981CF55D040892B0E
:1025100021F0CE010E94130C03C0CE010E94060FD1
:10252000DF91CF911F910F9108958F929F92AF925B
:10253000BF92CF92DF92EF92FF920F931F93CF93B0
:10254000DF934C01AA24BB2494C0D80112968C912D
:1025500061E00E94DE23F801828161E00E946B2429
:10256000D80113968C910E940123EC01F80182811D
:1025700060E00E94DE238091600390916103C817A0
:10258000D90760F080916203909163038C179D07D7
:1025900028F08EE5E82E83E0F82E02C0EE24FF241A
:1025A0008091C2039091C303C817D90758F0809156
:1025B000C4039091C5038C179D0720F0B0ECEB2E5F
:1025C000B3E0FB2ED80114968D919C911597E816D7
:1025D000F90649F081E016968C9316971596FC92B1
:1025E000EE92149735C0F80186818830C8F08830A3
:1025F00079F5E114F104B9F0D701ED91FC91019066
:10260000F081E02DC701D80113966C9113971296B3
:102610004C9109958823E1F0F801F182E0828681EE
:102620008F5F868315C0D80112968C9160E00E945E
:10263000DE23F801828160E00E946B24D8011196AC
:102640001C921E9216968C9116978F5F16968C93FD
:102650000894C11CD11C095F1F4FB2E0CB16D104F6
:1026600009F073CF0894A11CB11CE9E0AE16B104C7
:1026700021F08401CC24DD2468CFDF91CF911F911C
:102680000F91FF90EF90DF90CF90BF90AF909F9011
:102690008F9008950F931F93DF93CF9300D00F92E5
:1026A000CDB7DEB78C01FC01828160E00E94DE23A1
:1026B000F801828160E00E946B24F801818560E06E
:1026C0000E94DE23F801818560E00E946B24F801FE
:1026D000868561E00E94DE23F801878561E00E9423
:1026E000DE23F801808961E00E94DE23F801618920
:1026F0007289838994890E94D32D9B01AC01F801D2
:102700008685B9010E943923F80165897689878910
:10271000908D0E94D32D9B01AC01F8018785B901F2
:102720000E943923F801618D728D838D948D0E94F2
:10273000D32D9B01AC01F8018089B9010E94392396
:10274000F80187A561E00E94DE23F80160A971A964
:1027500082A993A90E94D32D9B01AC01F80187A502
:10276000B9010E94392382E493E040E855E260E039
:1027700070E00E94441C84E061E00E94DE238FE050
:1027800060E00E94DE238EE060E00E94DE2380E1B4
:1027900061E00E94DE2384E061E00E946B24B801C6
:1027A000605E7F4FC801CC960E94D116C8010E947E
:1027B0009512C8010E94111219821A821B82C80147
:1027C000BE016F5F7F4F0E94B70AC8016FEF0E9482
:1027D000E3090F900F900F90CF91DF911F910F9110
:1027E0000895CF92DF92EF92FF921F93DF93CF93E2
:1027F00000D00F92CDB7DEB77C0180E090E0A0E082
:10280000B0E0F701818B928BA38BB48B858B968B79
:10281000A78BB08F818F928FA38FB48F158E168E5A
:10282000178E10A211A212A283A394A3A5A3B6A3EC
:1028300087A390A7A1A7B2A783A794A7A5A7B6A788
:102840008BE690E0E80EF91ED7011D92FD01119272
:102850007F01108283E99FEFE80EF91E9EE6C92EE4
:10286000D12CCE0CDF1CF60180E090E010821182AA
:1028700012820396339684329105C1F7D7011196DF
:102880001C921E9287E012968C93129711E0139679
:102890001C93139715961C921E92149716961C92D1
:1028A000169718961C921E92179788E019968C938B
:1028B000199782E01A968C931A971C961C921E9276
:1028C0001B971D961C921D9785E01E968C931E9754
:1028D00086E01F968C931F9789E050968C935097B3
:1028E00090961C92909791961C92919792961C921A
:1028F00080E090E0A0E0B0E0F70183A394A3A5A35B
:10290000B6A387A390A7A1A7B2A783A794A7A5A7BB
:10291000B6A719821A821B82C701BE016F5F7F4F63
:102920000E94B70A8BE0D7019F968C93C7016EEF88
:102930000E94E309F70115AE16AE17AE80E490E0F1
:10294000E80EF91ED7011D937D0188EB9BE0A0E006
:10295000B0E0F70181939193A193B193DF011D92B0
:102960001D921D921D92FD01119281E094E0DF0104
:102970008D939D93FD0111921192DF011D921D9285
:10298000FD0111921192DF011D921D921D921D9267
:10299000FD011192119211921192DF011D92FD0120
:1029A0001192119211921192DF011D921D92FD015F
:1029B0001192DF011D92FD0111921192119211925B
:1029C000DF011D921D921D921D92FD011192DF01EA
:1029D0001D927D011C92E3E9FFEFEE0EFF1E84E2E3
:1029E000D6011D928A95E9F7C7018E569F4FFC01CB
:1029F00080E3DF011D928A95E9F7E2ECF0E0EE0E4C
:102A0000FF1E82E090E0D7018D939D93FD0111920E
:102A1000DF011D921D92FD0110821182128213822C
:102A20000F900F900F90CF91DF911F91FF90EF903B
:102A3000DF90CF9008958130910579F46F5F7F4FDB
:102A4000A9F487E792E00E94F11382E493E06EE03C
:102A500040E120E00E94C01E0895892B39F46F5F89
:102A60007F4F21F482E493E00E94471D089580E0A7
:102A700090E06FEF7FEF0E941B15089581E090E0DA
:102A80006FEF7FEF0E941B150895FC0186E893E02D
:102A90009383828389E893E09583848380E491E043
:102AA00091838083DF011D9680E090E01C92119657
:102AB0001C92119712961C921297039613968432C9
:102AC0009105A1F716821782108611861386128649
:102AD0001486EF59FF4F108208958EE593E00E940F
:102AE00045150895EF92FF920F931F93FC0180917B
:102AF000D6029091D7020297F1F09F01235F3F4FDA
:102B00008F010F5C1F4F87E792E062E070E0EF59A2
:102B1000FF4F408152E0E52EF12C0E94940887E798
:102B200092E060E070E00E94D60E87E792E06CE0F1
:102B300070E00E94980E1F910F91FF90EF90089502
:102B40000F931F93CF93DF93EC01862F0E940123F5
:102B50008C016091AB027091AC028091AD029091BA
:102B6000AE0220E030E04FE753E40E94672D882357
:102B70003CF40E9444226053784F8F4F9F4F19C0FE
:102B80000E9444222E813F81488559856217730730
:102B90008407950728F105361105C0F48A859B85C1
:102BA0008536910558F00E94442266507F4F8F4F22
:102BB0009F4F6E837F838887998710C08C85882379
:102BC00069F0CE010E9472151C8608C08C8588238E
:102BD00029F4083C110510F081E08C871B870A87D7
:102BE000DF91CF911F910F9108951F93BC01142F76
:102BF000AC01435F5F4F9C012F5C3F4F83EB92E042
:102C00006F597F4F0E941116882349F0812F60E091
:102C10000E94DE23812F60E00E946B2481E01F91DF
:102C200008958F929F92AF92BF92CF92DF92EF92D0
:102C3000FF920F931F93CF93DF934B01142F052F18
:102C4000D22EC32E86E792E06BE070E00E949F06D2
:102C50008D3010F080E098C0F4018083812F902F98
:102C60009C018901EE24FF24CCE0D0E01DC086E762
:102C700092E0BE010E949F06F8018083219686E7BC
:102C800092E0BE010E949F06F8018183219686E7AB
:102C900092E0BE010E949F06F80182830894E11C25
:102CA000F11C21960D5F1F4FF401808190E0E81622
:102CB000F906ECF2EC01CC0FDD1FC80FD91F2C96E2
:102CC0008D2D9C2D9C016901AA24BB2455C086E74B
:102CD00092E0BE010E949F06E82EFF2400E010E073
:102CE000F601E082F18202831383219686E792E067
:102CF000BE010E949F06102F0F2DFE2CEE2490E0A7
:102D0000A0E0B0E0E82AF92A0A2B1B2BF601E082AA
:102D1000F18202831383219686E792E0BE010E942E
:102D20009F06102F0F2DFE2CEE2490E0A0E0B0E0C7
:102D3000E82AF92A0A2B1B2BF601E082F182028392
:102D40001383219686E792E0BE010E949F06102F12
:102D50000F2DFE2CEE2490E0A0E0B0E0E82AF92A46
:102D60000A2B1B2BF601E192F192019311936F0153
:102D70000894A11CB11C2196F401808190E0A81652
:102D8000B9060CF4A4CF81E0DF91CF911F910F9190
:102D9000FF90EF90DF90CF90BF90AF909F908F907B
:102DA0000895CF92DF92EF92FF920F931F937B01D2
:102DB00006E712E0C80168E070E00E949F06C82E96
:102DC000C80169E070E00E949F06D82EC8016AE041
:102DD00070E00E949F06F701C082D18282831F911A
:102DE0000F91FF90EF90DF90CF900895CF92DF92F8
:102DF000FF920F931F936B0106E712E0C80166E094
:102E000070E00E949F06F82EC80167E070E00E9403
:102E10009F063F2D20E090E0282B392BF6013183CF
:102E200020831F910F91FF90DF90CF9008950F9313
:102E30001F93CF93DF938B01C0E0D0E086E792E051
:102E4000BE010E949F06F801EC0FFD1F80832196B2
:102E5000C630D10599F7DF91CF911F910F91089559
:102E60006F927F928F929F92AF92BF92CF92DF929A
:102E7000EF92FF920F931F93FC018389882309F43B
:102E800047C08091D902818F1092D7021092D6024A
:102E9000E0908802F090890200918A0210918B02E2
:102EA000A0908C02B0908D02C0908E02D0908F02C4
:102EB00060909002709091028090920290909302A4
:102EC000C801B701A60195010E94032DA401930139
:102ED0000E94032D20E030E040E251E40E94B62E33
:102EE000181694F4C801B7010E94D82D6093970278
:102EF000C601B5010E94D82D60939802C401B301A8
:102F00000E94D82D6093990287E792E00E94010BFE
:102F10001F910F91FF90EF90DF90CF90BF90AF90F7
:102F20009F908F907F906F900895EF92FF920F93F4
:102F30001F93CF93DF93EC018B898823F1F087E710
:102F400092E063E070E047E020E234E004E411E066
:102F5000EE24FF240E94CF0887E792E0698D0E944B
:102F6000CF0787E792E061E070E00E94D60E87E726
:102F700092E063E070E00E94980EDF91CF911F9184
:102F80000F91FF90EF9008953F924F925F926F9252
:102F90007F928F929F92AF92BF92CF92DF92EF92E9
:102FA000FF920F931F93CF93DF93EC0163E070E0E8
:102FB00080E090E026E030E040E050E00E946C2AA3
:102FC000862E880CAA247BC0EA2CFF246CE370E0D8
:102FD00080E090E024E630E040E050E00E946C2A7F
:102FE000162F68EC70E080E090E02FEF30E040E0DA
:102FF00050E00E946C2AF701EE0FFF1FEE0DFF1D3F
:10300000EC0FFD1F10A311A262A364E670E080E044
:1030100090E028EC30E040E050E00E946C2AF7019C
:10302000B296EE0FFF1FEC0FFD1F718360836701E7
:103030000894C11CD11C6AE070E080E090E028E2B6
:1030400030E040E050E00E946C2AB62E6DE270E065
:1030500080E090E02FE330E040E050E00E946C2AF6
:103060008601000F111F0C0D1D1D0C0F1D1FF801F7
:1030700020A130E040E050E00E941D2F2AE030E027
:1030800040E050E00E94712FF801B0A211A222A3EB
:1030900062E370E080E090E024E630E040E050E061
:1030A0000E946C2A23E230E0E20EF31EEE0CFF1CBD
:1030B000EC0EFD1EF70171836083F2E0AF0EA814E1
:1030C00008F482CF60E070E080E090E022E030E041
:1030D00040E050E00E946C2A660F771F881F991FFE
:1030E000382C360E7BC0EA2CFF2464EB70E080E0C5
:1030F00090E02FEF30E040E050E00E946C2A162F65
:1031000060E570E080E090E022E830E040E050E0F0
:103110000E946C2AF701EE0FFF1FEE0DFF1DEC0F52
:10312000FD1F10A361A312A26CE271E080E090E0A9
:103130002EE531E040E050E00E946C2AF701B296A3
:10314000EE0FFF1FEC0FFD1F718360836701089472
:10315000C11CD11C6AE070E080E090E028E230E021
:1031600040E050E00E946C2AB62E6DE270E080E0F4
:1031700090E02FE330E040E050E00E946C2A8601AE
:10318000000F111F0C0D1D1D0C0F1D1FF80120A19C
:1031900030E040E050E00E941D2F2AE030E040E0A7
:1031A00050E00E94712FF801B0A211A222A366E99B
:1031B00070E080E090E028EC30E040E050E00E94D9
:1031C0006C2A23E230E0E20EF31EEE0CFF1CEC0E44
:1031D000FD1EF70171836083F2E0AF0EA31408F4C3
:1031E00082CF2BE0231508F03394E32CFF24470112
:1031F00008948108910860918C0270918D028091F1
:103200008E0290918F020E94D82D2B013C0160917B
:1032100090027091910280919202909193020E948B
:10322000D82D5B016C018401000F111F080D191DC1
:103230000C0F1D1F609188027091890280918A0293
:1032400090918B020E94D82DF80160A341A2A2A206
:1032500066E970E080E090E028EC30E040E050E08B
:103260000E946C2A21E230E0E20EF31EEE0CFF1CFD
:10327000EC0EFD1EF701718360838E010C5B1F4F06
:1032800087E792E064E070E0432DA0969E0152E053
:10329000E52EF12C0E94CF0887E792E061E070E014
:1032A0000E94D60E87E792E064E070E00E94980EDC
:1032B000DF91CF911F910F91FF90EF90DF90CF9012
:1032C000BF90AF909F908F907F906F905F904F9046
:1032D0003F900895CF93DF93EC018C898F5F8C8BA7
:1032E000813039F40E9444226D8B7E8B8F8B988FB6
:1032F0001BC00E9444222D893E894F89588D2C5332
:10330000364F4F4F5F4F621773078407950758F486
:103310008C89843048F0CE010E94C4171D8A1E8A11
:103320001F8A188E01C01C8ADF91CF9108951F93C8
:10333000CF93DF93EC01142F8B89882309F46AC0A3
:1033400080919402882309F065C0809195028823BA
:1033500009F060C080919602882309F05BC060C0CC
:103360000E9444222C8D3D8D4E8D5F8D621B730B10
:10337000840B950B6A31710581059105B8F0809138
:10338000D6029091D7028330910529F0049719F065
:10339000CE010E949517C45ADF4FE881F981CC55C0
:1033A000D040309709F009951B8E1A8E812F0E940C
:1033B0009E24892BA9F5CE0106960E94F81F9B8FAB
:1033C0008A8F2091D6023091D7029F702430310528
:1033D00069F0892B39F00E9444226C8F7D8F8E8F8B
:1033E0009F8F09C0CE010E94301702C0892B19F4AB
:1033F000CE010E946A19C25ADF4FE881F981CE5589
:10340000D040309769F08A8D9B8D9F70892B41F455
:10341000099506C08A8D9B8D9F70892B39F2A0CFAC
:10342000DF91CF911F9108951F93CF93DF93142FB6
:10343000EC012696CE010E942F20882369F0CE0150
:1034400060E00E944D20812F60E00E94DE23812FEA
:1034500060E00E946B2481E0DF91CF911F9108957D
:10346000CF93DF93EC0189EE93E09B838A838FEE09
:1034700093E09D838C8386E591E099838883CE01D8
:1034800006966AE50E94F51FFE01B09680E090E086
:103490001082118212820396339684329105C1F70D
:1034A000C45ADF4F1992199219821882CE55D04012
:1034B0001C8E1D8E1E8E1F8E198E81E08B8B1C8A9A
:1034C0001D8A1E8A1F8A188EDF91CF91089580EC85
:1034D00093E00E94301AE0E2F4E08FEF8093200442
:1034E0001092210410922204DF011396809323048A
:1034F00011968C93119712961C92DF0116961092DA
:10350000260411968C93119712961C92DF0119963E
:103510001092290411968C93119712968C93DF01C7
:103520001C9610922C0411961C92119712968C9353
:10353000DF011F9680932F0411961C92119712960B
:103540008C937296809332048183828308952F92A4
:103550003F924F925F926F927F928F929F92AF9223
:10356000BF92CF92DF92EF92FF920F931F93CF9370
:10357000DF938C0128E0222E312C280E391E95E095
:10358000492E512C400E511E8AE2682E712C600E7D
:10359000711E57C086EC94E00E94F624F82ED801E4
:1035A00017968C91F816B1F5C101B201A3010E94E2
:1035B00081025C01009739F1F8018281882E9924FB
:1035C000CC24DD24EE24FF2418C0D801CD91DC9159
:1035D000CE0DDF1DC501BE0148E050E00E9464022F
:1035E000EBE0F0E0EE0EFF1E009721F4E985FA858E
:1035F000099509C00894C11CD11CC814D9042CF326
:1036000029C0C5010995D80118961C92189799965A
:103610001C9217C08F2D992787FD90950E94A82F87
:10362000892B79F0F80181A5803258F4E80FF11D5B
:10363000F0868F5FD80199968C93F801E80FF11D01
:10364000108686EC94E00E94CF24181619060CF41C
:10365000A1CF08C0D8011396ED91FC911497309733
:1036600081F6D1CFDF91CF911F910F91FF90EF9015
:10367000DF90CF90BF90AF909F908F907F906F9092
:103680005F904F903F902F900895AF92BF92CF924E
:10369000DF92EF92FF920F931F938C016B015A01FF
:1036A000DC0112968C91129790E001963BE0E32E9C
:1036B000F12C8E9DB0018F9D700D9E9D700D11247B
:1036C0008D919C910E941B219C01F8019183808324
:1036D00082814BE0849FC0011124820F931FB601A9
:1036E00048E050E00E947202D80112968C91129725
:1036F00090E0FC01EE9DC001EF9D900DFE9D900DB0
:103700001124ED91FC911197E80FF91FB286A18663
:1037100012968C9112978F5F12968C931F910F9136
:10372000FF90EF90DF90CF90BF90AF9008950F93F0
:103730001F938C01FC011182108212821482138269
:103740008AE0878313A612A6C801059663E171E09B
:103750000E945D02F801108611A61F910F91089535
:103760000F931F93CF93DF93FC01738D7695717048
:10377000A685B7859585772329F08C91892309F44F
:1037800054C004C08C91892309F04FC08389948967
:1037900020E001972FEF8F3F9207D9F7C589D6898F
:1037A000A685B785158560E031E040E050E000E097
:1037B000CE01202F01972FEF8F3F9207D9F78C91E1
:1037C000812311F0632B03C0832F80956823330F6F
:1037D0004F5F5F4F4830510559F78789908D20E042
:1037E00001972FEF8F3F9207D9F771116095809164
:1037F00077042091780490E001968F73907030E008
:103800008217930779F0E0917704F0E0E95CFB4FD1
:1038100060838091770490E001968F73907080931D
:10382000770403C0838D8160838FDF91CF911F91D7
:103830000F9108951F920F920FB60F9211242F939C
:103840003F934F935F936F937F938F939F93AF9328
:10385000BF93EF93FF9380913504909136040097C6
:1038600011F00E94B01BFF91EF91BF91AF919F911A
:103870008F917F916F915F914F913F912F910F9019
:103880000FBE0F901F901895CF92DF92EF92FF928C
:103890000F931F93CF93DF93EC017A018B011A8E64
:1038A000198E188E1F8A1E8A1D8A1C8A1B8A20E088
:1038B00030E06901CC0CDD1CC20ED31EB601660FD0
:1038C000771F660F771FAB0144555F4FFA01859153
:1038D0009591A591B4918E159F05A007B107E9F4C4
:1038E000FB01E055FF4F859194919C8B8B8BFB01E5
:1038F000EE54FF4F859194919E8B8D8BFB01EC5480
:10390000FF4F85919491988F8F8BFB01EA54FF4F65
:10391000859194919A8F898F06C02F5F3F4F2D30EC
:10392000310509F0C6CF8F89988D892B09F457C0CE
:103930009C85892F8850843038F08650843020F060
:103940009A51933008F043C0809168008160809361
:1039500068002C85922F9850943090F0822F8E50D2
:10396000843070F08C50833008F451C0A0E0B0E097
:10397000833018F0E0E0F0E007C0EBE6F0E004C0D0
:10398000EBE6F0E0ABE6B0E04081943020F430E0CC
:103990002450304013C02E3011F488E016C02F3070
:1039A00011F482E012C0203111F484E00EC0213104
:1039B00011F481E00AC030E02651304081E090E00F
:1039C00002C0880F991F2A95E2F7842B8C93898D6A
:1039D0009A8D20E001972FEF8F3F9207D9F78091C2
:1039E0003504909136048C179D07A1F08B8D8E7F46
:1039F0008B8F9FB7F894109277048091770480930F
:103A00007804D0933604C09335049FBF03C0ABE65F
:103A1000B0E0AECFDF91CF911F910F91FF90EF906B
:103A2000DF90CF900895FC012485922F9850943018
:103A300038F0822F8E50843018F08C50833030F55F
:103A400040916B00943020F430E02450304013C09B
:103A50002E3011F487EF17C02F3011F48DEF13C003
:103A6000203111F48BEF0FC0213111F48EEF0BC018
:103A700030E02651304081E090E002C0880F991F6D
:103A80002A95E2F78095842380936B000895FC01CA
:103A90008EE591E091838083CF010E94131D0895EC
:103AA00020913504309136042817390731F490916C
:103AB000780480917704981719F42FEF3FEF0FC027
:103AC000E0917804F0E0E95CFB4F2081809178047C
:103AD00090E001968F7390708093780430E0C90174
:103AE000089520913504309136042817390719F0CC
:103AF00020E030E00EC0809177042091780490E0BF
:103B0000805C9F4F821B910960E470E00E943C2F13
:103B10009C01C90108950F931F93DC0159968D9163
:103B20009C915A97892B49F481E090E013969C93DD
:103B30008E93129720E030E097C00FB7F8945B9611
:103B40008C915B975196ED91FC91529750962C91E8
:103B5000509781FF8DC08081822B808359968D91F3
:103B60009C915A97059620E001972FEF8F3F92077F
:103B7000D9F75B968C915B9781FF35C031E040E0CF
:103B800050E070E010E0832F90E086239723519659
:103B9000ED91FC91529750962C915097892B29F0DA
:103BA000808120952823208303C08081822B8083FD
:103BB00059968D919C915A97212F01972FEF8F3F06
:103BC0009207D9F7330F4F5F5F4F48305105D9F651
:103BD0005196ED91FC915297908150968C9150970F
:103BE0008095892333C031E040E050E070E010E080
:103BF000832F90E0862397235196ED91FC91529765
:103C000050962C915097892B21F08081822B8083B4
:103C100004C0808120952823208359968D919C9102
:103C20005A97212F01972FEF8F3F9207D9F7330F24
:103C30004F5F5F4F48305105D9F65196ED91FC9199
:103C40005297808150969C915097892B80830FBF0B
:103C500059968D919C915A9720E001972FEF8F3FB5
:103C60009207D9F721E030E0C9011F910F91089523
:103C7000808120952823208371CF209135043091B5
:103C800036042817390749F49FB7F894109277043F
:103C900080917704809378049FBF08952091350424
:103CA000309136042817390731F4909178048091C7
:103CB0007704981719F42FEF3FEF0AC0E0917804CA
:103CC000F0E0E95CFB4F8081282F332727FD3095FA
:103CD000C90108951F93CF93DF93EC01162F862F10
:103CE00060E00E94DE238B8D81FD04C0812F61E0A6
:103CF0000E946B241C87212F30E0C90180579E4F02
:103D0000FC0184918D872E583E4FF9016491E62F76
:103D1000F0E0EE0FFF1FEC59FE4F859194919F87C5
:103D20008E87DF91CF911F910895FF920F931F937C
:103D30008C01F62E862F61E00E94DE238F2D61E03C
:103D40000E946B248F2D90E0FC01E057FE4FE49120
:103D5000D8015096EC9350978E589E4FFC01649179
:103D6000E62FF0E0EE0FFF1FEA5AFE4F8591949187
:103D700052969C938E9351971F910F91FF900895A7
:103D8000FF920F931F938C01F62EFC011382128277
:103D900088EE93E0A0E0B0E084839583A683B783A8
:103DA0008EE591E091838083148A138A168A158A9E
:103DB000108E178A128E118E838D2170220F8C7FA8
:103DC000822B838FC801642F0E94951EC8016F2D1E
:103DD0000E946A1E1F910F91FF900895EF92FF922B
:103DE0000F931F93CF93DF93582F162FE42E022F9C
:103DF000F32E8CEF91E0652F0E9452038CEF91E03F
:103E0000612F0E94D403202F3F2DC901EC0110E047
:103E100006C08CEF91E069910E94D4031F5F1E15CC
:103E2000C0F38CEF91E00E94170490E0882309F41E
:103E300091E0892FDF91CF911F910F91FF90EF902B
:103E40000895DF93CF930F92CDB7DEB7498341E05A
:103E50009E012F5F3F4F0E94EE1E0F90CF91DF918A
:103E600008952F923F924F925F926F927F928F921E
:103E70009F92AF92BF92CF92DF92EF92FF920F93F9
:103E80001F93DF93CF9300D000D000D0CDB7DEB723
:103E9000882E6983942E3B832A83EC820E944422DD
:103EA0005B016C01FF24EE24292C332428016624B5
:103EB00077244CC08CEF91E0682D0E9452038CEF68
:103EC00091E069810E94D4038CEF91E06C810E94A3
:103ED00004048CEF91E0682D0E945203A1014E1959
:103EE00051094132510514F040E250E08CEF91E06D
:103EF000682D0E9428042F2D332727FD30958A81B5
:103F00009B81280F391F3E832D838CEF91E00E9407
:103F10005C03892B09F453C00115110561F00E945F
:103F200044226A197B098C099D096415750586056B
:103F3000970508F044C08CEF91E00E946503ED8185
:103F4000FE818193FE83ED83F394DFCFE91408F4BF
:103F5000B1CF01151105C9F00E9444226A197B09ED
:103F60008C099D09980140E050E0621773078407AF
:103F7000950758F02F2D332727FD3095892D90E098
:103F80002817390714F4FF24FA948F2D26960FB6BC
:103F9000F894DEBF0FBECDBFCF91DF911F910F917F
:103FA000FF90EF90DF90CF90BF90AF909F908F9059
:103FB0007F906F905F904F903F902F900895892D44
:103FC000F0E2F91508F480E2E80EC0CFEF920F930B
:103FD0001F93FA01D901E02E41E09F018D010E945B
:103FE000311F1F910F91EF900895FC016083089598
:103FF000AF92BF92CF92DF92EF92FF920F93DF9337
:10400000CF930F92CDB7DEB75C01209119013091AB
:104010001A01FC01808161E06E010894C11CD11C71
:10402000A60100E00E94E61FF980EE24209119010C
:1040300030911A01F501808160E0A6010E94E61F1F
:104040008981E80EF11CC7010F90CF91DF910F918C
:10405000FF90EF90DF90CF90BF90AF9008950F93B7
:10406000DF93CF930F92CDB7DEB7FC011982209179
:10407000190130911A01808160E0AE014F5F5F4FFE
:1040800000E00E94E61F90E0813009F491E0892F62
:104090000F90CF91DF910F9108951F93CF93DF93EE
:1040A000EC01162F88816BE241E00E94211F88817C
:1040B0006CE241E00E94211F88816DE240E00E9495
:1040C000211F88816EE240E00E94211F88816FE2FB
:1040D00041E00E94211F888160E341E00E94211F8E
:1040E000888161E34FEF0E94211F888162E342E0F3
:1040F0000E94211F888161E44FE00E94211F888176
:1041000062E44AE00E94211F888163E44FE00E943C
:10411000211F888164E44AE00E94211F888165E4B0
:104120004FE00E94211F888166E44AE00E94211F1F
:10413000888167E44FE00E94211F888168E44AE09B
:104140000E94211F888169E44FE00E94211F88811D
:104150006AE44AE00E94211F88816BE44FE00E94DC
:10416000211F88816CE44AE00E94211F88816DE450
:104170004FE00E94211F88816EE44AE00E94211FC7
:1041800088816FE44FE00E94211F888160E54AE04A
:104190000E94211F888161E54FE00E94211F8881D4
:1041A00062E54AE00E94211F888163E54FE00E949A
:1041B000211F888164E54AE00E94211F888165E50E
:1041C0004FE00E94211F888166E54AE00E94211F7E
:1041D000888167E54FE00E94211F888168E54AE0F9
:1041E0000E94211F88816DE544E00E94211F112358
:1041F000A1F088816BE74BE00E94211F88816DE769
:104200004CE90E94211F88816EE745E60E94211F2C
:1042100088816FE74CE80E94211F88816EE54CE0A1
:104220000E94211F88816BE542E70E94211FDF91D8
:10423000CF911F9108956F927F928F929F92AF922C
:10424000BF92CF92DF92EF92FF920F931F93CF9383
:10425000DF938C01009729F4CB010E948A2A8C01FC
:10426000BBC08EEFE82E8FEFF82EE00EF11E480156
:10427000860E971E8E149F0408F4ACC0D7014D9192
:104280005C91119746175707B8F04530510508F46F
:10429000A3C0CA0104978617970708F49DC042502F
:1042A0005040461B570BF401419351936D937C93FF
:1042B000CF010E94272B90C05B01A41AB50A3801D8
:1042C000640E751EA091EC04B091ED04E0E0F0E006
:1042D000CC24DD2447C0A615B705A9F5CD91DC9106
:1042E0001197CE0102968A159B0568F1CE018A19B5
:1042F0009B09029612962C91129713963C91059762
:1043000058F0F40122833383CA19DB09D183C083B7
:10431000D7016D937C9309C04E5F5F4F4C0F5D1FBB
:10432000F70151834083C901FC01C114D10431F06C
:10433000D6011396FC93EE9312974EC0F093ED04C2
:10434000E093EC0449C08D919C911197E817F9070F
:1043500008F4FC016D0112968C91129713969C91B2
:104360009C01D901109709F0B6CF8091EA04909191
:10437000EB0486159705E9F4E617F707D0F42091CA
:104380002801309129012115310541F42DB73EB79F
:104390008091240190912501281B390B82169306E8
:1043A000C8F49092EB048092EA04F7017183608371
:1043B00013C0CB010E948A2AEC01009759F0D70163
:1043C0004D915C91B8010E945402C8010E94272BB4
:1043D0008E0102C000E010E0C801DF91CF911F9173
:1043E0000F91FF90EF90DF90CF90BF90AF909F9094
:1043F0008F907F906F9008951F920F920FB60F923B
:1044000011242F933F938F939F93AF93BF938091EA
:104410007D0490917E04A0917F04B091800430913E
:1044200081040196A11DB11D232F2D5F2D3720F092
:104430002D570196A11DB11D2093810480937D0409
:1044400090937E04A0937F04B093800480917904BC
:1044500090917A04A0917B04B0917C040196A11DF7
:10446000B11D8093790490937A04A0937B04B09358
:104470007C04BF91AF919F918F913F912F910F90AD
:104480000FBE0F901F9018958FB7F89420917D0460
:1044900030917E0440917F04509180048FBFB90118
:1044A000CA0108959B01AC017FB7F894809179040B
:1044B00090917A04A0917B04B0917C0466B5A89B8E
:1044C00005C06F3F19F00196A11DB11D7FBFBA2F26
:1044D000A92F982F8827860F911DA11DB11D62E07D
:1044E000880F991FAA1FBB1F6A95D1F7BC012DC069
:1044F000FFB7F8948091790490917A04A0917B049D
:10450000B0917C04E6B5A89B05C0EF3F19F0019679
:10451000A11DB11DFFBFBA2FA92F982F88278E0F7D
:10452000911DA11DB11DE2E0880F991FAA1FBB1F9D
:10453000EA95D1F7861B970B885E9340C8F221500D
:1045400030404040504068517C4F211531054105B5
:10455000510571F60895789484B5826084BD84B560
:10456000816084BD85B5826085BD85B5816085BD6E
:10457000EEE6F0E0808181608083E1E8F0E0108287
:10458000808182608083808181608083E0E8F0E0C8
:10459000808181608083E1E9F0E0808182608083B6
:1045A000808181608083E0E9F0E0808181608083A8
:1045B000E1ECF0E080818460808380818260808390
:1045C000808181608083E3ECF0E080818160808382
:1045D000E0ECF0E0808182608083E2ECF0E08081BA
:1045E00081608083EAE7F0E080818460808380815D
:1045F0008260808380818160808380818068808305
:104600000895823108F08251E82FF0E0E453FE4F24
:10461000E49120917B008E2F86958695869590E07B
:104620008170907035E0880F991F3A95E1F72F7DE2
:10463000282B20937B00E77080911B018295880FC7
:10464000880F807C8E2B80937C0080917A00806420
:1046500080937A0080917A0086FDFCCF20917800CB
:1046600040917900942F80E030E0282B392BC9014C
:1046700008951F93CF93DF93182FEB0161E00E9401
:10468000DE23209709F48FC0CF3FD10509F48EC0F7
:10469000E12FF0E0E255FE4F8491883009F440C0EC
:1046A000893070F4823019F1833020F4813009F0C0
:1046B00077C018C0833001F1843009F071C026C082
:1046C0008B3009F44BC08C3030F4893099F18A304A
:1046D00009F066C039C08C3009F44DC08E3009F045
:1046E0005FC051C084B5806884BDC7BD63C084B558
:1046F000806284BDC8BD5EC0809180008068809368
:104700008000D0938900C093880054C080918000BD
:10471000806280938000D0938B00C0938A004AC04F
:1047200080919000806880939000D0939900C0930E
:10473000980040C080919000806280939000D09358
:104740009B00C0939A0036C080919000886080934F
:104750009000D0939D00C0939C002CC08091C0001D
:1047600080688093C0008091C0008F7B8093C000E0
:10477000C093CF001FC08091C00080628093C000B2
:10478000C093D00017C08091C20088608093C2009F
:104790008091C2008B7F8093C200C093D2000AC078
:1047A000C038D1051CF4812F60E002C0812F61E088
:1047B0000E946B24DF91CF911F910895CF93DF93D7
:1047C000482F50E0CA0180579E4FFC0134914E584B
:1047D0005E4FFA018491882369F190E0880F991F58
:1047E000FC01E85BFE4FA591B491FC01EA5AFE4F33
:1047F000C591D491662351F42FB7F8948C91932FDF
:10480000909589238C93888189230BC0623061F451
:104810002FB7F8948C91932F909589238C9388814E
:10482000832B88832FBF06C09FB7F8948C91832B6E
:104830008C939FBFDF91CF910895883071F18930BB
:1048400068F4823031F1833020F4813009F042C0C5
:104850001DC0833089F08430E9F512C08B3059F1E6
:104860008C3028F48930E9F08A30A1F51EC08C30F4
:1048700031F18E3079F529C0809180008F7703C0A7
:10488000809180008F7D80938000089584B58F771C
:1048900002C084B58F7D84BD0895809190008F778C
:1048A00007C0809190008F7D03C080919000877F2A
:1048B0008093900008958091C0008F7703C080910D
:1048C000C0008F7D8093C00008958091C200877FD3
:1048D0008093C2000895FF920F931F93F62E482FE6
:1048E00050E0CA0182559E4FFC012491CA018057B5
:1048F0009E4FFC0114914E585E4FFA010491002323
:10490000C9F0222319F0822F0E941D24E02FF0E02D
:10491000EE0FFF1FEA5AFE4FA591B4919FB7F8948E
:10492000FF2021F48C911095812302C08C91812B62
:104930008C939FBF1F910F91FF9008950F931F932A
:10494000482F50E0CA0182559E4FFC012491CA01B4
:1049500080579E4FFC0104914E585E4FFA0114910E
:10496000112319F420E030E015C0222319F0822F22
:104970000E941D24812F90E0880F991F8C599E4F13
:10498000FC01A591B4918C9120E030E0802311F0DE
:1049900021E030E0C9011F910F9108950895209101
:1049A000C2043091C3048091C4049091C504281BB3
:1049B000390B2F733070C90108952091C2043091D2
:1049C000C3048091C4049091C5042817390719F4D1
:1049D0002FEF3FEF09C0E091C404F091C504EE57FA
:1049E000FB4F8081282F30E0C90108952091C20437
:1049F0003091C3048091C4049091C50428173907ED
:104A000019F42FEF3FEF13C0E091C404F091C504F7
:104A1000EE57FB4F20818091C4049091C50401960C
:104A20008F7390709093C5048093C40430E0C901E3
:104A300008951092C9041092C80488EE93E0A0E093
:104A4000B0E08093CA049093CB04A093CC04B093BD
:104A5000CD048EE691E09093C7048093C604089538
:104A60000F931F93DF93CF930F92CDB7DEB78C01D7
:104A7000698380912301882369F083E0BE016F5F21
:104A80007F4F41E050E00E94D5271816190614F414
:104A90009C0107C081E090E0F8019383828320E0CD
:104AA00030E0C9010F90CF91DF911F910F910895D0
:104AB00083E00E94AC270895CF93DF9312C082E079
:104AC0000E9437272FEF8F3F9207C9F0E091C20471
:104AD000F091C304EE57FB4F8083D093C304C0937F
:104AE000C204C091C204D091C3042196CF73D07088
:104AF0008091C4049091C504C817D90701F7DF91CC
:104B0000CF910895FC0180818E5F808380E868EDFD
:104B100071E042E450E00E9450270895FC01818139
:104B20009081913A59F4813209F04CC080E06CE1F7
:104B300071E047E050E00E94502742C0913209F0F6
:104B400041C0803239F48CE191E067E070E00E946E
:104B5000942736C0823209F035C0828180932301C8
:104B600080911C0190911D01A0911E01B0911F0127
:104B7000805B9440A040B04019F58091230180FDF6
:104B800012C087E797E790930108809300082BE015
:104B900088E190E00FB6F894A895809360000FBE6E
:104BA000209360000DC088E10FB6F89480936000F8
:104BB000109260000FBEA895109201081092000894
:104BC00081E0089580E00895CF93DF930E94AB22A7
:104BD0008CED94E00E94B7270E942F03C0E0D0E044
:104BE0000E9412032097E1F30E940000F9CFCF92B8
:104BF000DF92EF92FF920F931F93CF93DF937C018D
:104C00006B018A01C0E0D0E00FC0D6016D916D014B
:104C1000D701ED91FC910190F081E02DC70109953C
:104C2000C80FD91F015010400115110571F7CE01B1
:104C3000DF91CF911F910F91FF90EF90DF90CF9078
:104C40000895EF92FF920F931F938C01DC01ED9179
:104C5000FC910190F081E02D6DE009957C01D80177
:104C6000ED91FC910190F081E02DC8016AE0099579
:104C70009C012E0D3F1DC9011F910F91FF90EF90D8
:104C80000895CF93DF93EC016115710519F420E0CD
:104C900030E00FC0DB010D900020E9F71197A61B53
:104CA000B70BE881F9810280F381E02DAD01099510
:104CB0009C01C901DF91CF9108954F925F927F923D
:104CC0008F929F92AF92BF92CF92DF92EF92FF921C
:104CD0000F931F93DF93CF93CDB7DEB7A1970FB696
:104CE000F894DEBF0FBECDBF2C01742ECB01223055
:104CF00008F42AE019A231E2C32ED12CCC0EDD1E1D
:104D0000822E9924AA24BB24672D752FA501940116
:104D10000E944F2F79018A01C801B701A5019401B2
:104D20000E941D2F472D461B0894C108D1084A3008
:104D300014F4405D01C0495CF6014083E114F104C4
:104D40000105110521F07E2C5F2DC801DDCFC201C8
:104D5000B6010E944126A1960FB6F894DEBF0FBEA1
:104D6000CDBFCF91DF911F910F91FF90EF90DF901A
:104D7000CF90BF90AF909F908F907F905F904F901B
:104D80000895DC012115310541F4ED91FC9101906C
:104D9000F081E02D642F099508950E945D26089505
:104DA000CF92DF92EF92FF920F931F936C017B01E2
:104DB0009A0100E010E0B801A7010E94C1268C0111
:104DC000C6010E942126080F191FC8011F910F91CB
:104DD000FF90EF90DF90CF9008950E9441260895B4
:104DE000EF92FF920F931F937C010E9441268C014A
:104DF000C7010E942126080F191FC8011F910F919A
:104E0000FF90EF900895282F8091D6048823C1F059
:104E100057FF1AC015C028989093D5048091F100CF
:104E20008193E217F307B9F74115510539F08091E5
:104E3000F200882319F48BE68093E800AFBF02C02C
:104E40004FEF5FEFCA010895AFB7F8942770209332
:104E5000E9008091F200282F30E0241735070CF488
:104E6000A901FB019B01240F311D94E6DACFDF93EA
:104E7000CF930F92CDB7DEB7BE016F5F7F4F41E09A
:104E800050E00E940327019719F02FEF3FEF03C076
:104E90008981282F30E0C9010F90CF91DF910895CB
:104EA000FF920F931F93F82E142F052F4091D904D2
:104EB0005091DA04212F302FC901DC01FB016EEF84
:104EC00029C0F7FE02C0949101C090812091D704BF
:104ED0003091D80424173507ACF48091E800857030
:104EE000E1F38091E80082FF03C02FEF3FEF17C08E
:104EF0009093F100C90101968F739070892B11F482
:104F00006093E8002F5F3F4F3093D8042093D7047D
:104F1000119731961097A9F6812F902F9C01C90106
:104F20001F910F91FF9008959C018091E80082FFEE
:104F3000FCCFF901260F311D03C08091F100819350
:104F4000E217F307D1F7289884E68093D5048BEF16
:104F50008093E800CB0108958093E9008091F200EE
:104F6000882319F08AE38093E80008950895109249
:104F7000D60481E08093D70080EA8093D80082E154
:104F800089BD09B400FEFDCF61E070E080E090E0F3
:104F90000E94522280E98093D8008CE08093E20046
:104FA0001092E000559A209A08955F926F927F9236
:104FB0008F929F92AF92BF92CF92DF92EF92FF9229
:104FC0000F931F93CF93DF93E82E842E752E80913D
:104FD000D604882371F18B01242F352FC901EC01F0
:104FE0007AEFF72E67E0962E9E2050E4552E8E2DF8
:104FF00090E040E2A42EB12CA822B9223AE3632E1D
:1050000020E4C22ED12CC822D92258C09FB7F894D0
:105010009092E9008091E80085FD02C020E004C084
:105020008091F200252D281B9FBF222361F4FA9462
:1050300019F42FEF3FEF4DC061E070E080E090E0A9
:105040000E9452223BC0822F90E0C817D9070CF46F
:105050002C2FC21BD1094FB7F8949092E900A114EC
:10506000B10421F406C01092F10021502223D9F797
:1050700019C0E7FC03C0F801922F10C0C801322FFD
:1050800006C0FC010196E491E093F1003150332316
:10509000C1F706C081918093F10091509923D1F717
:1050A000020F111D8091E80085FF05C0209729F4AB
:1050B000C114D10411F06092E8004FBF209709F0AD
:1050C000A5CF5D9884E68093D404282D372DC9019F
:1050D0009C01C901DF91CF911F910F91FF90EF903B
:1050E000DF90CF90BF90AF909F908F907F906F9008
:1050F0005F9008951F920F920FB60F9211242F9375
:105100003F934F935F936F937F938F939F93AF934F
:10511000BF93EF93FF938091E1001092E100982FED
:1051200083FF0FC01092E90081E08093EB001092A2
:10513000EC0082E38093ED001092D60488E0809327
:10514000F00092FF34C083E08093E9008091F20088
:10515000882319F08AE38093E8008FB7F89492E0EF
:105160009093E9009091F2008FBF992321F086EC93
:1051700094E00E945C258091D404882351F08091B2
:10518000D40481508093D4048091D404882309F4FA
:105190005D9A8091D504882351F08091D504815087
:1051A0008093D5048091D504882309F4289AFF912F
:1051B000EF91BF91AF919F918F917F916F915F918F
:1051C0004F913F912F910F900FBE0F901F90189508
:1051D0000F931F93DF93CF930F92CDB7DEB7198252
:1051E0008E010F5F1F4FC8010E948225C8010E94D7
:1051F000F62C898190E00F90CF91DF911F910F9154
:1052000008951F920F920FB60F921124EF92FF9202
:105210001F932F933F934F935F936F937F938F933E
:105220009F93AF93BF93EF93FF93DF93CF93CDB74C
:10523000DEB76197DEBFCDBF1092E9008091E80034
:1052400083FF0FC1FE0131969E01275F3F4F03C0D0
:105250008091F1008193E217F307D1F7289884E653
:105260008093D50482EF8093E800998197FF05C071
:105270008091E80080FFFCCF03C08EEF8093E800B0
:10528000292F30E0C90180769070892B09F0C2C0C7
:105290008A81882329F41092F1001092F100D6C07F
:1052A000813009F4D3C0833009F4D0C0853049F48B
:1052B0008091E80080FFFCCF8B8180688093E300C1
:1052C000C5C0863009F07CC01C81EF80F8841230A4
:1052D000C1F51092E9001092D8041092D7041092F0
:1052E000DA041092D9040E94E82899E0FE01399668
:1052F000DF01292F1D922A95E9F799871A8791E0F6
:105300009E8790E8988B9AEF998B2091D7043091E3
:10531000D804275F3F4F3C872B878D871092E90089
:105320001092D8041092D704F092DA04E092D904D3
:1053300080E0BF0149E050E00E9450270E94E82829
:1053400085C01092E9001092D8041092D704F09210
:10535000DA04E092D904123241F482E290E00E9431
:10536000EE2C892B09F476C071C0113079F488E0F5
:10537000E816F10419F481E08093DB048091DB04EA
:10538000882309F06BC0E8E5F2E013C0133009F0A0
:1053900061C08B81882319F4EAE1F2E00AC082300F
:1053A00019F4EEE1F2E005C0813009F053C0E0E409
:1053B000F2E0449180E8BF0150E00E94502746C0CF
:1053C000873009F447C0883021F481E08093F100F0
:1053D0003DC08930D9F523703070232BD9F5EDE726
:1053E000F2E091E031E026E39093E9003093EB00A6
:1053F00084918093EC002093ED009F5F319695306F
:1054000099F78EE78093EA001092EA008B818093EF
:10541000D6041CC08F8198851092E9001092D804A0
:105420001092D7049093DA048093D9048D81882355
:1054300029F4CE0101960E948E2506C0823051F4D7
:10544000CE0101960E94BF2B882321F08EEF80931E
:10545000E80007C081E28093EB0003C0EAE6F2E0D7
:10546000A8CF6196DEBFCDBFCF91DF91FF91EF91C5
:10547000BF91AF919F918F917F916F915F914F916C
:105480003F912F911F91FF90EF900F900FBE0F90C3
:105490001F901895EF92FF920F931F937B018C0141
:1054A000611571058105910529F420E030E040E0A7
:1054B00050E00BC00E944602A80197010E94712F84
:1054C000AC01CB01DA019C01AD01B901CA011F9108
:1054D0000F91FF90EF900895EF92FF920F931F931B
:1054E0007B018C01621773078407950764F4261B00
:1054F000370B480B590BCA01B9010E944A2AE60E24
:10550000F71E081F191FB701C8011F910F91FF90C7
:10551000EF9008950F931F93CF93DF93BC018230D8
:10552000910510F462E070E0E091EC04F091ED047C
:1055300040E050E0A0E0B0E024C080819181861777
:105540009707D0F08617970771F48281938110979F
:1055500029F013969C938E9312972CC09093ED0490
:105560008093EC0427C04115510519F08417950765
:1055700018F48D01AC01EF01DF01828193819C0160
:10558000F9013097D1F641155105F9F0CA01861B92
:10559000970B8430910580F48A819B810115110558
:1055A00021F0F8019383828304C09093ED048093EB
:1055B000EC04FE01329645C0FE01E80FF91F61932D
:1055C00071930297998388833CC08091EA049091FB
:1055D000EB04892B41F4809126019091270190934F
:1055E000EB048093EA044091280150912901411570
:1055F000510541F44DB75EB780912401909125018A
:10560000481B590B2091EA043091EB04241735070D
:10561000B0F4CA01821B930B8617970780F0AB0189
:105620004E5F5F4F8417950750F0420F531F509302
:10563000EB044093EA04F9016193719302C0E0E046
:10564000F0E0CF01DF91CF911F910F910895CF939B
:10565000DF939C01009709F48FC0EC0122971B8215
:105660001A826091EC047091ED046115710581F46A
:1056700088819981820F931F2091EA043091EB0475
:105680002817390739F5D093EB04C093EA0474C0A6
:10569000DB0140E050E0AC17BD0708F1BB83AA83F3
:1056A000FE0121913191E20FF31FAE17BF0779F48C
:1056B0008D919C911197280F391F2E5F3F4F398391
:1056C000288312968D919C9113979B838A83411511
:1056D000510571F4D093ED04C093EC044DC01296C3
:1056E0008D919C911397AD01009711F0DC01D3CF00
:1056F000DA011396DC93CE931297FA01219131913E
:10570000E20FF31FCE17DF0769F488819981280F14
:10571000391F2E5F3F4FFA01318320838A819B819D
:1057200093838283E0E0F0E0DB0112968D919C91FF
:105730001397009719F0BC01FD01F6CFAB014E5F46
:105740005F4FDB018D919C91840F951F2091EA049E
:105750003091EB042817390779F4309729F4109227
:10576000ED041092EC0402C01382128242505040A9
:105770005093EB044093EA04DF91CF910895FC012C
:1057800091818081813A31F4913089F080E09330C9
:1057900089F40DC0813269F49B3021F482818093B9
:1057A0002A0105C09A3029F4828180932B0181E07F
:1057B000089580E00895EF92FF920F931F938C015C
:1057C000E62EDC01ED91FC910480F581E02D099538
:1057D000F82ED801ED91FC910680F781E02DC801EB
:1057E0006E2D09958F2D90E01F910F91FF90EF90F6
:1057F00008951092DD041092E1041092E00480E814
:1058000091E09093DF048093DE040895EF92FF927D
:105810000F931F93DF93CF930F92CDB7DEB789839A
:105820008B017A0184E0BE016F5F7F4F41E050E061
:105830000E94D52784E4B801A7010E94D5270F90C4
:10584000CF91DF911F910F91FF90EF90089582E02B
:1058500048E050E00E94062C0895FC011682178251
:10586000108611861286138614823496BF010E9418
:10587000272C0895DC01683810F0685829C0E62FFD
:10588000F0E067FF13C0E058F04081E090E002C014
:10589000880F991FEA95E2F7809514962C9114973A
:1058A000282314962C93149760E012C0E150FD4F0A
:1058B0006491662319F420E030E01DC067FF08C042
:1058C00014968C9114978D7F14968C9314976F7700
:1058D000FD0190E0662321F08681861709F4168287
:1058E0009F5F31969630B1F7CD011496BD010E94AD
:1058F000272C21E030E0C9010895CF93DF93DC012C
:10590000683810F0685825C0E62FF0E067FF12C035
:10591000E058F04081E090E002C0880F991FEA95BE
:10592000E2F714962C911497282B14962C93149725
:1059300060E00FC0E150FD4F64916623D9F167FF2D
:1059400008C014968C911497826014968C931497C7
:105950006F7716968C9116978617A9F117968C91EA
:105960001797861781F118968C911897861759F119
:1059700019968C911997861731F11A968C911A976E
:10598000861709F11B968C911B978617E1F0ED01A4
:10599000E0E0F0E09E2F8E81882321F4EA0FFB1FC8
:1059A000668306C09F5F31962196E630F10591F738
:1059B000963049F481E090E013969C938E93129771
:1059C00020E030E007C0CD011496BD010E94272CD5
:1059D00021E030E0C901DF91CF91089580E861E8CE
:1059E00072E045E650E00E9450270895FC01808156
:1059F0008F5F808380E866EE72E049E150E00E94AC
:105A0000502708955058BB27AA270ED075C166D1DC
:105A100030F06BD120F031F49F3F11F41EF45BC1E4
:105A20000EF4E095E7FB51C1E92F77D180F3BA1767
:105A3000620773078407950718F071F49EF58FC10C
:105A40000EF4E0950B2EBA2FA02D0B01B901900199
:105A50000C01CA01A0011124FF27591B99F0593FDD
:105A600050F4503E68F11A16F040A22F232F342F25
:105A70004427585FF3CF469537952795A795F04073
:105A80005395C9F77EF41F16BA0B620B730B840B88
:105A9000BAF09150A1F0FF0FBB1F661F771F881F40
:105AA000C2F70EC0BA0F621F731F841F48F4879598
:105AB00077956795B795F7959E3F08F0B3CF939587
:105AC000880F08F09927EE0F979587950895D9D0FC
:105AD00008F481E008950CD00FC107D140F0FED04A
